:020000040000FA
:100000000C9459000C9481000C9481000C94810094
:100010000C9481000C9481000C9481000C9481005C
:100020000C9481000C9481000C9481000C9481004C
:100030000C9481000C9481000C9481000C9481003C
:100040000C94EE020C9481000C945E030C94380323
:100050000C9481000C9481000C9481000C9481001C
:100060000C9481000C948100000000002500280001
:100070002B00040404040404040402020202020229
:10008000030303030303010204081020408001025C
:1000900004081020010204081020000000080002DB
:1000A00001000003040700000000000000009003AE
:1000B000A40511241FBECFEFD8E0DEBFCDBF22E0E4
:1000C000A8E9B1E001C01D92A039B207E1F711E043
:1000D000A0E0B1E0EAE3F0E102C005900D92A8399A
:1000E000B107D9F710E0C8E5D0E004C02197FE01C0
:1000F0000E940F06C735D107C9F70E940A040C9465
:1001000010080C94000090E0FC01E656FF4F24918B
:10011000FC01EA57FF4F3491FC01EE58FF4FE49188
:10012000EE23C9F0222339F0233001F1A8F4213065
:1001300019F1223029F1F0E0EE0FFF1FE859FF4FCF
:10014000A591B4918FB7F894EC91611126C03095C8
:100150003E233C938FBF08952730A9F02830C9F083
:10016000243049F7809180008F7D03C0809180000A
:100170008F7780938000DFCF84B58F7784BDDBCF0E
:1001800084B58F7DFBCF8091B0008F778093B000D6
:10019000D2CF8091B0008F7DF9CF3E2BDACF3FB721
:1001A000F8948091990190919A01A0919B01B0914E
:1001B0009C0126B5A89B05C02F3F19F00196A11DF3
:1001C000B11D3FBFBA2FA92F982F8827BC01CD01A1
:1001D000620F711D811D911D42E0660F771F881F00
:1001E000991F4A95D1F708950895AF92BF92CF9283
:1001F000DF92EF92FF920F931F93CF93DF936C01E7
:100200007B018B01040F151FEB015E01AE18BF08C7
:10021000C017D10759F06991D601ED91FC91019079
:10022000F081E02DC6010995892B79F7C501DF9191
:10023000CF911F910F91FF90EF90DF90CF90BF90E3
:10024000AF900895FC01538D448D252F30E0842F0D
:1002500090E0821B930B541710F0CF9608950197EE
:100260000895FC01918D828D981761F0A28DAE0FDB
:10027000BF2FB11D5D968C91928D9F5F9F73928F62
:1002800090E008958FEF9FEF08952FB7F894809135
:100290009D0190919E01A0919F01B091A0012FBF5F
:1002A0008093A9019093AA01A093AB01B093AC01F4
:1002B00081EA91E00E94310197FF26C02FB7F894A0
:1002C00080919D0190919E01A0919F01B091A0010C
:1002D0002FBF4091A9015091AA016091AB0170918B
:1002E000AC01841B950BA60BB70B4091A501509157
:1002F000A6016091A7017091A80184179507A60730
:10030000B707B0F28FEF9FEF0895FC01918D828DBA
:10031000981731F0828DE80FF11D858D90E00895DA
:100320008FEF9FEF0895FC01918D228D892F90E032
:10033000805C9F4F821B91098F739927089581EAF2
:1003400091E00E94930121E0892B09F420E0822FA3
:10035000089580E090E0892B29F00E949F0181118F
:100360000C9400000895FC01A48DA80FB92FB11DB5
:10037000A35ABF4F2C91848D90E001968F739927DB
:10038000848FA689B7892C93A089B1898C918370B9
:1003900080648C93938D848D981306C00288F389B2
:1003A000E02D80818F7D80830895EF92FF920F93DF
:1003B0001F93CF93DF93EC0181E0888F9B8D8C8D11
:1003C00098131AC0E889F989808185FF15C09FB705
:1003D000F894EE89FF896083E889F98980818370C8
:1003E000806480839FBF81E090E0DF91CF911F9177
:1003F0000F91FF90EF900895F62E0B8D10E00F5F98
:100400001F4F0F731127E02E8C8D8E110CC00FB66D
:1004100007FCFACFE889F989808185FFF5CFCE0105
:100420000E94B301F1CFEB8DEC0FFD2FF11DE35ACC
:10043000FF4FF0829FB7F8940B8FEA89FB89808188
:100440008062CFCFCF93DF93EC01888D8823B9F002
:10045000AA89BB89E889F9898C9185FD03C08081CF
:1004600086FD0DC00FB607FCF7CF8C9185FFF2CF4C
:10047000808185FFEDCFCE010E94B301E9CFDF91EE
:10048000CF910895FC0101900020E9F73197AF0169
:10049000481B590BBC0181EA91E00C94F5002091B6
:1004A0008A0230918B02DC0114964D915C91159774
:1004B00024173507D9F4E0918602F09187026D91F7
:1004C0007C913097D1F06115710599F4232BC1F01F
:1004D000808190E008C0232B99F0FB01808190E09F
:1004E00091958195910921E0892B09F020E0822FD7
:1004F0000895CF010E940008F6CF6115710559F7E4
:1005000021E0F5CFFC0180819181009711F00C94DE
:10051000B10608950F931F93CF93DF93EC01888169
:100520009981009759F02A813B812617370730F0CF
:1005300081E0DF91CF911F910F9108958B016F5F43
:100540007F4F0E943A07009759F0998388831B8355
:100550000A832C813D81232B59F7FC011082E8CFBF
:1005600080E0E7CFEF92FF920F931F93CF93DF933B
:10057000EC017B01198218821B821A821D821C8267
:10058000FB0101900020E9F731978F01061B170B43
:10059000B8010E948A0228813981811113C0211576
:1005A000310519F0C9010E94B106198218821D8215
:1005B0001C821B821A82DF91CF911F910F91FF90B5
:1005C000EF9008951D830C83B701C901DF91CF918E
:1005D0001F910F91FF90EF900C9409081F920F92BA
:1005E0000FB60F9211242F933F938F939F93AF9346
:1005F000BF9380919D0190919E01A0919F01B09128
:10060000A0013091980123E0230F2D3758F5019672
:10061000A11DB11D2093980180939D0190939E018F
:10062000A0939F01B093A0018091990190919A01AC
:10063000A0919B01B0919C010196A11DB11D8093D9
:10064000990190939A01A0939B01B0939C01BF9153
:10065000AF919F918F913F912F910F900FBE0F906F
:100660001F90189526E8230F0296A11DB11DD2CF29
:100670001F920F920FB60F9211242F933F934F9317
:100680005F936F937F938F939F93AF93BF93EF93FA
:10069000FF9381EA91E00E94B301FF91EF91BF9136
:1006A000AF919F918F917F916F915F914F913F910A
:1006B0002F910F900FBE0F901F9018951F920F92C1
:1006C0000FB60F9211242F938F939F93EF93FF9365
:1006D000E091B101F091B2018081E091B701F09118
:1006E000B80182FD1BC090818091BA018F5F8F732A
:1006F0002091BB01821741F0E091BA01F0E0EF5583
:10070000FE4F958F8093BA01FF91EF919F918F914A
:100710002F910F900FBE0F901F9018958081F4CFEE
:10072000E1EAF1E01382128288EE93E0A0E0B0E00B
:1007300084839583A683B7838AE091E09183808345
:1007400085EC90E09587848784EC90E09787868796
:1007500080EC90E0918B808B81EC90E0938B828B8E
:1007600082EC90E0958B848B86EC90E0978B868B67
:10077000118E128E138E148E66E871E086E892E078
:100780000E94B20268E171E080E892E00E94B20249
:100790006BE171E08AE792E00E94B2026FE171E0E2
:1007A00084E792E00E94B20262E271E08EE692E09B
:1007B0000E94B20266E271E088E692E00E94B20214
:1007C00069E271E082E692E00E94B2026DE271E0BD
:1007D0008CE592E00E94B20260E371E086E592E06F
:1007E0000E94B20264E371E080E592E00E94B202EE
:1007F0006BE371E08AE492E00E94B20263E471E08C
:1008000084E492E00E94B20265E471E08EE392E03B
:100810000C94B202CF93DF93CDB7DEB728970FB613
:10082000F894DEBF0FBECDBF789484B5826084BDDE
:1008300084B5816084BD85B5826085BD85B58160E4
:1008400085BD80916E00816080936E001092810062
:10085000809181008260809381008091810081601D
:1008600080938100809180008160809380008091DE
:10087000B10084608093B1008091B000816080936A
:10088000B00080917A00846080937A0080917A0031
:10089000826080937A0080917A00816080937A00F0
:1008A00080917A00806880937A001092C100E09174
:1008B000B101F091B20182E08083E091AD01F0914D
:1008C000AE011082E091AF01F091B0018FEC808316
:1008D0001092B901E091B501F091B60186E08083F4
:1008E000E091B301F091B401808180618083E09157
:1008F000B301F091B401808188608083E091B301FD
:10090000F091B401808180688083E091B301F0911F
:10091000B40180818F7D808360E082E00E9483004B
:1009200060E083E00E94830060E084E00E94830036
:1009300090E0E92E90E0F92E87E491E00E944202D7
:1009400084E891E00E94420281EA91E00E949301D2
:10095000892BD1F366E871E0CE0101960E94B202C4
:100960000E94450197FD1EC08A309105D9F08F8302
:1009700018860D811E810F5F1F4FB801CE010196B1
:100980000E948A02882361F329813A818D819E81A8
:10099000BE01695F7F4F820F931F0E9409081E836B
:1009A0000D83DECF8091860290918702009709F433
:1009B00051C069817A816115710509F449C040917E
:1009C0008802509189022D813E814217530708F415
:1009D0003FC00E9409088D819E8190938B02809375
:1009E0008A021E821D82CE0101960E94820280E848
:1009F00092E00E944F0281111EC084E792E00E94A3
:100A00004F02811118C088E692E00E944F028111C6
:100A100012C08CE592E00E944F0281110CC080E56B
:100A200092E00E944F02811106C084E492E00E948D
:100A30004F02882331F161E082E00E94830061E08F
:100A400083E00E94830061E084E00E94830041C053
:100A50000E94B10689819A819093870280938602D1
:100A60008B819C8190938902809388028D819E81E5
:100A700090938B0280938A021A8219821C821B82B5
:100A8000B0CF8AE792E00E944F02811153C08EE6F8
:100A900092E00E944F0281114DC082E692E00E94D6
:100AA0004F02811147C086E592E00E944F028111FA
:100AB00041C08AE492E00E944F0281113BC08EE364
:100AC00092E00E944F02811135C087E891E00E94B8
:100AD00042020E94CF002B013C018CE2882E992417
:100AE0009394A12CB12C0E94CF006419750986093A
:100AF0009709683E734081059105A8F321E0821AA9
:100B00009108A108B10888EE480E83E0581E611CC8
:100B1000711C81149104A104B10429F7E114F104BA
:100B200009F40ACF0E949F01882309F405CF0E948F
:100B3000000002CF60E082E00E94830060E083E07A
:100B40000E94830060E080CF8EE392E00E948202E8
:100B500084E492E00E9482028AE492E00E9482028F
:100B600080E592E00E94820286E592E00E94820285
:100B70008CE592E00E94820282E692E00E9482026C
:100B800088E692E00E9482028EE692E00E94820253
:100B900084E792E00E9482028AE792E00E94820249
:100BA00080E892E00E94820286E892E00C94820241
:100BB0002F923F924F925F926F927F928F929F926D
:100BC000AF92BF92CF92DF92EF92FF920F931F935B
:100BD000CF93DF93CDB7DEB7CA1BDB0B0FB6F8940C
:100BE000DEBF0FBECDBF09942A88398848885F844C
:100BF0006E847D848C849B84AA84B984C884DF80BD
:100C0000EE80FD800C811B81AA81B981CE0FD11DA0
:100C10000FB6F894DEBF0FBECDBFED010895EE0F05
:100C2000FF1F0590F491E02D09940F931F93CF932C
:100C3000DF938230910510F482E090E0E0918E0223
:100C4000F0918F0230E020E0B0E0A0E0309799F41E
:100C50002115310509F44AC0281B390B2430310510
:100C6000D8F58A819B816115710589F1FB01938318
:100C70008283FE0111C04081518102811381481796
:100C80005907E0F04817590799F4109761F0129648
:100C90000C93129713961C933296CF01DF91CF914C
:100CA0001F910F91089500938E0210938F02F4CF3D
:100CB0002115310551F04217530738F0A901DB0126
:100CC0009A01BD01DF01F801C1CFEF01F9CF909387
:100CD0008F0280938E02CDCFFE01E20FF31F81932E
:100CE00091932250310939832883D7CF20918C02E8
:100CF00030918D02232B41F42091020130910301A8
:100D000030938D0220938C022091000130910101DB
:100D10002115310541F42DB73EB7409104015091A2
:100D20000501241B350BE0918C02F0918D02E21736
:100D3000F307A0F42E1B3F0B2817390778F0AC01FE
:100D40004E5F5F4F2417350748F04E0F5F1F5093DB
:100D50008D0240938C02819391939FCFF0E0E0E06D
:100D60009CCFCF93DF930097E9F0FC013297138279
:100D70001282A0918E02B0918F02ED0130E020E04E
:100D80001097A1F420813181820F931F20918C0252
:100D900030918D022817390709F061C0F0938D0258
:100DA000E0938C02DF91CF910895EA01CE17DF071F
:100DB000E8F54A815B819E0141155105B1F7E901D2
:100DC000FB83EA8349915991C40FD51FEC17FD07A6
:100DD00061F4808191810296840F951FE9019983C6
:100DE0008883828193819B838A83F0E0E0E012967E
:100DF0008D919C9113970097B9F52D913C91119786
:100E0000CD010296820F931F20918C0230918D02AA
:100E10002817390739F6309751F510928F02109242
:100E20008E02B0938D02A0938C02BCCFD383C28379
:100E300040815181840F951FC817D90761F44E5F17
:100E40005F4F88819981480F591F518340838A8160
:100E50009B81938382832115310509F0B0CFF093F4
:100E60008F02E0938E029ECFFD01DC01C0CF138282
:100E70001282D7CFB0E0A0E0E0E4F7E00C94DA050E
:100E80008C01009751F4CB010E9415068C01C8011A
:100E9000CDB7DEB7E0E10C94F605FC01E60FF71FD5
:100EA0009C0122503109E217F30708F49DC0D901D3
:100EB000CD91DC911197C617D70798F0C530D105B1
:100EC00030F3CE0104978617970708F3C61BD70B9C
:100ED0002297C193D1936D937C93CF010E94B10669
:100EE000D6CF5B01AC1ABD0A4C018C0E9D1EA091A1
:100EF0008E02B0918F02512C412CF12CE12C1097D5
:100F000031F580918C0290918D028815990509F038
:100F10005CC04616570608F058C0809100019091B9
:100F20000101009741F48DB79EB7409104015091A3
:100F30000501841B950BE817F90708F055C0F093DD
:100F40008D02E0938C02F90171836083A0CF8D91B3
:100F50009C91119712966C90129713967C90139710
:100F6000A815B90559F56C0142E0C40ED11CCA148C
:100F7000DB0420F1AC014A195B09DA0112961597DE
:100F800080F06282738251834083D9016D937C9398
:100F9000E114F10471F0D7011396FC93EE931297CC
:100FA00076CF22968C0F9D1FF90191838083F301E8
:100FB000EFCFF0938F02E0938E0269CF4816590667
:100FC00008F42C017D01D3019ACFCB010E941506B4
:100FD0007C01009749F0AE01B8010E94F707C801F3
:100FE0000E94B106870153CF10E000E050CFFB0113
:100FF000DC0102C001900D9241505040D8F7089595
:10100000FB01DC018D91019080190110D9F3990B3E
:101010000895FB01DC0101900D920020E1F7089595
:1010200010E0C8E5D0E004C0FE010E940F06219642
:10103000C935D107C9F7F894FFCF000090028000AE
:1010400000000000D501F5002201220293013101C8
:1010500085014F4E004F4646006F6E006F6666007A
:101060004F6E004F6666006F4E006F4646006B770E
:1010700061747361006B757A696D7961003100305C
:1010800000456E7465722073746174653A284F4E22
:101090002F4F46462F6B77617473612F6B757A699A
:1010A0006D79612F4C6F67696320484947483D312E
:1010B0002F4C6F676963204C4F573D3029000D0A54
:1010C00000496E636F727265637420496E70757447
:0210D0007300AB
:107E0000112484B714BE81FFF0D085E080938100F7
:107E100082E08093C00088E18093C10086E0809377
:107E2000C20080E18093C4008EE0C9D0259A86E02C
:107E300020E33CEF91E0309385002093840096BBD3
:107E4000B09BFECF1D9AA8958150A9F7CC24DD24C4
:107E500088248394B5E0AB2EA1E19A2EF3E0BF2EE7
:107E6000A2D0813461F49FD0082FAFD0023811F036
:107E7000013811F484E001C083E08DD089C08234E0
:107E800011F484E103C0853419F485E0A6D080C0E4
:107E9000853579F488D0E82EFF2485D0082F10E0AE
:107EA000102F00270E291F29000F111F8ED06801E7
:107EB0006FC0863521F484E090D080E0DECF843638
:107EC00009F040C070D06FD0082F6DD080E0C81688
:107ED00080E7D80618F4F601B7BEE895C0E0D1E017
:107EE00062D089930C17E1F7F0E0CF16F0E7DF06D8
:107EF00018F0F601B7BEE89568D007B600FCFDCFD4
:107F0000A601A0E0B1E02C9130E011968C91119780
:107F100090E0982F8827822B932B1296FA010C0160
:107F200087BEE89511244E5F5F4FF1E0A038BF0790
:107F300051F7F601A7BEE89507B600FCFDCF97BE46
:107F4000E89526C08437B1F42ED02DD0F82E2BD052
:107F50003CD0F601EF2C8F010F5F1F4F84911BD097
:107F6000EA94F801C1F70894C11CD11CFA94CF0C13
:107F7000D11C0EC0853739F428D08EE10CD085E9AC
:107F80000AD08FE07ACF813511F488E018D01DD067
:107F900080E101D065CF982F8091C00085FFFCCF94
:107FA0009093C60008958091C00087FFFCCF809118
:107FB000C00084FD01C0A8958091C6000895E0E648
:107FC000F0E098E1908380830895EDDF803219F02E
:107FD00088E0F5DFFFCF84E1DECF1F93182FE3DFCA
:107FE0001150E9F7F2DF1F91089580E0E8DFEE27F6
:047FF000FF270994CA
:027FFE00040479
:00000001FF
