:020000040000FA
:100000000C9462000C948A000C948A000C948A0070
:100010000C948A000C948A000C948A000C948A0038
:100020000C948A000C948A000C948A000C948A0028
:100030000C948A000C948A000C948A000C948A0018
:100040000C9456050C948A000C94C6050C94A005DB
:100050000C948A000C948A000C948A000C948A00F8
:100060000C94F8050C948A00000000002300260080
:10007000290000000000240027002A0000000000E2
:10008000250028002B0004040404040404040202D4
:100090000202020203030303030301020408102007
:1000A0004080010204081020010204081020000012
:1000B0000008000201000003040700000000000027
:1000C0000000170711241FBECFEFD8E0DEBFCDBF61
:1000D00011E0A0E0B1E0E4E2F3E102C005900D928E
:1000E000A43AB107D9F723E0A4EAB1E001C01D9218
:1000F000AE31B207E1F710E0C2E6D0E004C02197CC
:10010000FE010E948A09C136D107C9F70E945F0724
:100110000C9490090C940000833081F028F4813015
:1001200099F08230A9F008958730A9F08830C9F09D
:100130008430B1F4809180008F7D03C08091800075
:100140008F7780938000089584B58F7784BD08955C
:1001500084B58F7DFBCF8091B0008F778093B00006
:1001600008958091B0008F7DF9CF1F93CF93DF93D7
:10017000282F30E0F901E255FF4F8491F901E6564E
:10018000FF4FD491F901EA57FF4FC491CC23A9F056
:10019000162F81110E948C00EC2FF0E0EE0FFF1F54
:1001A000E458FF4FA591B4918FB7F894EC911111D9
:1001B00008C0D095DE23DC938FBFDF91CF911F91D4
:1001C0000895DE2BF8CFCF93DF9390E0FC01E65645
:1001D000FF4F24918A579F4FFC0184918823D1F0CF
:1001E00090E0880F991FFC01EE58FF4FA591B49144
:1001F000FC01E458FF4FC591D49161110EC09FB727
:10020000F8948C91E22FE0958E238C932881E22341
:10021000E8839FBFDF91CF9108958FB7F894EC9159
:10022000E22BEC938FBFF6CF3FB7F8948091650235
:1002300090916602A0916702B091680226B5A89BD2
:1002400005C02F3F19F00196A11DB11D3FBFBA2F68
:10025000A92F982F8827BC01CD01620F711D811D28
:10026000911D42E0660F771F881F991F4A95D1F7AD
:1002700008958F929F92AF92BF92CF92DF92EF92AA
:10028000FF924B015C010E9414016B017C010E94F2
:1002900014016C197D098E099F09683E7340810520
:1002A0009105A8F321E0821A9108A108B10888EE0F
:1002B000C80E83E0D81EE11CF11C81149104A10436
:1002C000B10429F7FF90EF90DF90CF90BF90AF90EF
:1002D0009F908F90089508950895AF92BF92CF9206
:1002E000DF92EF92FF920F931F93CF93DF936C01F6
:1002F0007B018B01040F151FEB015E01AE18BF08D7
:10030000C017D10759F06991D601ED91FC91019088
:10031000F081E02DC6010995892B79F7C501DF91A0
:10032000CF911F910F91FF90EF90DF90CF90BF90F2
:10033000AF900895FC01538D448D252F30E0842F1C
:1003400090E0821B930B541710F0CF9608950197FD
:100350000895FC01918D828D981761F0A28DAE0FEA
:10036000BF2FB11D5D968C91928D9F5F9F73928F71
:1003700090E008958FEF9FEF0895FC01918D828D9D
:10038000981731F0828DE80FF11D858D90E008956A
:100390008FEF9FEF0895FC01918D228D892F90E0C2
:1003A000805C9F4F821B91098F739927089589E67E
:1003B00092E00E94CB0121E0892B09F420E0822FFA
:1003C000089580E090E0892B29F00E94D7018111E7
:1003D0000C9400000895FC01A48DA80FB92FB11D45
:1003E000A35ABF4F2C91848D90E001968F7399276B
:1003F000848FA689B7892C93A089B1898C91837049
:1004000080648C93938D848D981306C00288F38941
:10041000E02D80818F7D80830895EF92FF920F936E
:100420001F93CF93DF93EC0181E0888F9B8D8C8DA0
:1004300098131AC0E889F989808185FF15C09FB794
:10044000F894EE89FF896083E889F9898081837057
:10045000806480839FBF81E090E0DF91CF911F9106
:100460000F91FF90EF900895F62E0B8D10E00F5F27
:100470001F4F0F731127E02E8C8D8E110CC00FB6FD
:1004800007FCFACFE889F989808185FFF5CFCE0195
:100490000E94EB01F1CFEB8DEC0FFD2FF11DE35A24
:1004A000FF4FF0829FB7F8940B8FEA89FB89808118
:1004B0008062CFCFCF93DF93EC01888D8823B9F092
:1004C000AA89BB89E889F9898C9185FD03C080815F
:1004D00086FD0DC00FB607FCF7CF8C9185FFF2CFDC
:1004E000808185FFEDCFCE010E94EB01E9CFDF9146
:1004F000CF91089520910C02260F3327331F21320C
:100500003105ECF420913002FC0190E080E02430D1
:1005100069F082E00895A0910C022191AC01445150
:100520005E4FA40FB52FB11D2C930196861798F33B
:1005300080910C02680F60930C0280E0089581E0C6
:1005400008951092300281E08093320210923102BD
:1005500061E082E10E94B50061E083E10E94B500A4
:10056000E9EBF0E080818E7F808380818D7F8083C6
:1005700088E48093B80085E48093BC000895CF930D
:10058000DF9391E09093EB018823B9F0C091B8001C
:10059000D091BA008091BC008A7B8093BC0060E05F
:1005A00082E10E94B50060E083E10E94B5000E94F4
:1005B000A102D093BA00C093B800DF91CF91089503
:1005C0000895E0915D0280915C02E81730F4F0E05C
:1005D000EA53FE4F808190E008958FEF9FEF0895DA
:1005E00090915D0280915C022FEF3FEF981748F4E5
:1005F000E92FF0E0EA53FE4F208130E09F5F9093B7
:100600005D02C901089580915C0290915D02891B91
:10061000990B0895CF92DF92EF92FF920F931F9361
:10062000CF93DF937C01CB018A012091C501222366
:1006300089F0EB016B01C40ED51ECC15DD0569F008
:100640006991D701ED91FC910190F081E02DC701F6
:100650000995F3CF642F0E947A02C801DF91CF91F0
:100660001F910F91FF90EF90DF90CF900895CF935F
:10067000DF931F92CDB7DEB769832091C501222396
:10068000F9F020915A02203258F021E030E0FC01CC
:100690003383228390E080E00F90DF91CF91089523
:1006A00080915B02E82FF0E0EB55FE4F998190833B
:1006B0008F5F80935B0280935A0281E090E0ECCFE1
:1006C00061E0CE0101960E947A02F7CFCF92DF92CD
:1006D000EF92FF920F931F93CF93DF93FC01C4819E
:1006E00021E02093C501C093A40110925B021092F7
:1006F0005A028385682B86E093E00E943703D091ED
:100700005A02D13208F092C00E9414016B017C01A0
:1007100080913002811165C082E08093300281E0D7
:10072000809332028FEF80932F0210925402D09365
:100730005302A5EAB1E0E3E3F2E080E0D81385C01C
:100740001092550280915502CC0FC82BC0935502D0
:1007500080913102813009F07CC0109231020E94F8
:1007600014016B017C01809155028093BB00809144
:10077000E7019091E801A091E901B091EA01892B8C
:100780008A2B8B2B99F00E9414010091E7011091A4
:10079000E8012091E9013091EA016C197D098E0987
:1007A0009F090617170728073907E0F18091BC0059
:1007B00083FDD9CF85EC8093BC000E9414016B01AE
:1007C0007C0180913002823009F445C080912F0273
:1007D0008F3F61F180912F02803241F180912F0291
:1007E00025C08091E7019091E801A091E901B091C5
:1007F000EA01892B8A2B8B2B09F48ACF0E941401E2
:100800000091E7011091E8012091E9013091EA019E
:100810006C197D098E099F090617170728073907E4
:1008200008F076CF8091E6010E94BF0210925B0231
:1008300010925A021092C501DF91CF911F910F9132
:10084000FF90EF90DF90CF9008959D9191938F5FEF
:1008500075CF85EEB0CF8091E7019091E801A0912E
:10086000E901B091EA01892B8A2B8B2B09F4A9CFDE
:100870000E9414010091E7011091E8012091E90123
:100880003091EA016C197D098E099F090617170737
:100890002807390708F095CFC5CF089590E080E08C
:1008A00008950F931F93CF938C01C62F0E94660368
:1008B0006C2F6460C8010E9466036C2F6B7FC801B7
:1008C0000E94660383EC90E00197F1F7CF911F91AE
:1008D0000F9108950F931F93CF93DF938C01D62F21
:1008E000C42F607F642B0E94510480E1D89FB00127
:1008F00011246C2BC801DF91CF911F910F910C94A3
:10090000510440E061E082E193E00E946A048BE3DD
:100910009FE10197F1F70895CF93DF93CDB7DEB74D
:1009200028970FB6F894DEBF0FBECDBF98E0E1E088
:10093000F1E0DE01119601900D929A95E1F7909108
:100940001A03981708F48FEF90E0880F991F21E0A1
:1009500030E02C0F3D1F820F931FFC016081606807
:1009600040E082E193E028960FB6F894DEBF0FBE18
:10097000CDBFDF91CF910C946A0441E00E946A04DC
:1009800081E090E00895FB0101900020E9F73197A4
:10099000AF01461B570BDC01ED91FC910280F38106
:1009A000E02D09948F929F92AF92BF92EF92FF92A7
:1009B0000F931F93CF93DF93CDB7DEB7A1970FB6F9
:1009C000F894DEBF0FBECDBF7C01FA01CB0119A2A6
:1009D000223008F42AE08E010F5D1F4F822E912CE9
:1009E000B12CA12CBF01A50194010E946809F90155
:1009F000CA016A300CF5605DD8016E938D01232B1E
:100A0000242B252B79F790E080E0109721F0BD0191
:100A1000C7010E94C304A1960FB6F894DEBF0FBEB3
:100A2000CDBFDF91CF911F910F91FF90EF90BF90BD
:100A3000AF909F908F900895695CDECF85ED809395
:100A4000BC008091E7019091E801A091E901B0918B
:100A5000EA010796A11DB11D23E0B695A7959795CC
:100A600087952A95D1F72091BC0024FD03C01092F0
:100A7000300208954091E7015091E8016091E90149
:100A80007091EA01452B462B472B69F30097A1058E
:100A9000B10541F02AE22A95F1F700C00197A109BA
:100AA000B109E1CF8091E6010C94BF021F920F9231
:100AB0000FB60F9211242F933F938F939F93AF9371
:100AC000BF938091610290916202A0916302B09104
:100AD00064023091600223E0230F2D3758F5019610
:100AE000A11DB11D20936002809361029093620268
:100AF000A0936302B09364028091650290916602B4
:100B0000A0916702B09168020196A11DB11D80936A
:100B1000650290936602A0936702B0936802BF914A
:100B2000AF919F918F913F912F910F900FBE0F909A
:100B30001F90189526E8230F0296A11DB11DD2CF54
:100B40001F920F920FB60F9211242F933F934F9342
:100B50005F936F937F938F939F93AF93BF93EF9325
:100B6000FF9389E692E00E94EB01FF91EF91BF9124
:100B7000AF919F918F917F916F915F914F913F9135
:100B80002F910F900FBE0F901F9018951F920F92EC
:100B90000FB60F9211242F938F939F93EF93FF9390
:100BA000E0917902F0917A028081E0917F02F091E8
:100BB000800282FD1BC09081809182028F5F8F73C3
:100BC00020918302821741F0E0918202F0E0E75920
:100BD000FD4F958F80938202FF91EF919F918F91AE
:100BE0002F910F900FBE0F901F9018958081F4CF1A
:100BF0001F920F920FB60F9211242F933F934F9392
:100C00005F936F937F938F939F93AF93BF93EF9374
:100C1000FF938091B900887F803609F44AC0F0F5CF
:100C2000883209F4A7C018F5803109F49BC0B8F4E4
:100C3000882309F4F9C0883009F494C0FF91EF913A
:100C4000BF91AF919F918F917F916F915F914F91E4
:100C50003F912F910F900FBE0F901F9018958831E4
:100C600009F488C0803251F780932F0214C0803479
:100C700009F49DC040F48033B9F38833F9F68093CA
:100C80002F0285ECB0C0803509F485C0883509F4A1
:100C900096C0883499F60E941E05D0CF883909F491
:100CA0008CC038F5883729F050F4883611F0803739
:100CB00029F683E08093300210922E0257C08838C4
:100CC00009F47BC0803919F0803809F0B7CF8091E2
:100CD0002E02803208F071C0E0912E0281E08E0F6A
:100CE00080932E028091BB00F0E0E25FFD4F808395
:100CF0003DC0803B39F0E0F4803A09F479C0883A8D
:100D000009F09CCF84E08093300210920D02109283
:100D10000C02E0915802F0915902099580910C0261
:100D200081110FC081E080930C021092EC0109C088
:100D3000803C09F4A6CF883C09F4A3CF883B09F096
:100D40007DCFE0910D0281E08E0F80930D02F0E0E7
:100D5000E451FE4F80818093BB0090910D02809101
:100D60000C0229C0809155028093BB0085EC8093D2
:100D7000BC0064CF9091540280915302981758F5AB
:100D8000E091540281E08E0F80935402F0E0ED5C1C
:100D9000FD4F8081E9CFE091540281E08E0F809376
:100DA00054028091BB00F0E0ED5CFD4F8083909198
:100DB0005402809153029817C8F285E8D8CFE09189
:100DC000540281E08E0F809354028091BB00F0E0CA
:100DD000ED5CFD4F80838091320281115CCF81E018
:100DE0008093310284EA8093BC001092300226CFB7
:100DF00085EC8093BC001092300280912E028032EC
:100E000030F4E0912E02F0E0E25FFD4F108260913D
:100E10002E0270E0E0915602F09157028EE092E0CF
:100E2000099510922E020ACF10922F0234CFE9E6D4
:100E3000F2E01382128288EE93E0A0E0B0E08483B7
:100E40009583A683B7832DE031E03183208325ECA1
:100E500030E03587248724EC30E03787268720EC84
:100E600030E0318B208B21EC30E0338B228B22EC75
:100E700030E0358B248B26EC30E0378B268B118EBF
:100E8000128E138E148EE6E0F3E0138212828483B6
:100E90009583A683B7838FE191E091838083E2E11C
:100EA000F3E01382128281E391E09183808380E2F8
:100EB000848380E1818782E0828713860895789415
:100EC00084B5826084BD84B5816084BD85B582604F
:100ED00085BD85B5816085BD80916E008160809300
:100EE0006E00109281008091810082608093810069
:100EF0008091810081608093810080918000816079
:100F0000809380008091B10084608093B1008091D3
:100F1000B00081608093B00080917A0084608093FB
:100F20007A0080917A00826080937A0080917A00C2
:100F3000816080937A0080917A00806880937A0043
:100F40001092C10060E082E00E94E30061E083E073
:100F50000E94E30061E084E00E94E30061E085E03C
:100F60000E94E300E0917902F0917A0282E08083AE
:100F7000E0917502F09176021082E0917702F09193
:100F800078028FEC808310928102E0917D02F091D3
:100F90007E0286E08083E0917B02F0917C0280817A
:100FA00080618083E0917B02F0917C028081886087
:100FB0008083E0917B02F0917C0280818068808355
:100FC000E0917B02F0917C0280818F7D808369E3D8
:100FD00071E089E692E00E94C30462E571E089E66F
:100FE00092E00E94C30410925D0210925C02109283
:100FF0005B0210925A020E94A1028BE691E090934C
:101000005902809358028CE691E0909357028093A6
:1010100056021092170380911C03823018F098E05A
:101020009093170380931A0362E370E080E090E0EE
:101030000E94390160911D0382E193E00E946603E2
:1010400068EE73E080E090E00E94390160E382E1A5
:1010500093E00E945104CBE4D6E4CE010197F1F76E
:1010600060E382E193E00E9451042197F1F760E38D
:1010700082E193E00E94510483E592E00197F1F749
:1010800060E282E193E00E94510460911703606284
:1010900040E082E193E00E946A0484E080931803B8
:1010A00040E06CE082E193E00E946A040E948104C7
:1010B00082E08093190340E066E082E193E00E94C1
:1010C0006A0440E062E082E193E00E946A048BE3FC
:1010D0009FE10197F1F788E080931D0360E082E1D2
:1010E00093E00E94660380E00E948C0465E571E055
:1010F00082E193E00E94C30481E00E948C046FE5CA
:1011000071E082E193E00E94C3046CED75E080E041
:1011100090E00E9439010E948104C0EBD0E00CE90C
:1011200010E098E8E92E90E0F92E20E0C22E20E0B1
:10113000D22EFE018491F801A490F701B490B11071
:101140008CC080910001882309F479C080915E02EF
:1011500090915F02019690935F0280935E0261E03E
:1011600083E00E94B50061E084E00E94B50061E088
:1011700085E00E94B5006CE671E089E692E00E948D
:10118000C30480905E0290905F02092C000CAA08B4
:10119000BB082AE0B501A401B7FE0DC06DE289E6E7
:1011A00092E00E940D0244275527BA0148195909B7
:1011B0006A097B092AE089E692E00E94D20462E58E
:1011C00071E089E692E00E94C3040E94810480E0FD
:1011D0000E948C0465E871E082E193E00E94C30400
:1011E00081E00E948C046DE771E082E193E00E944F
:1011F000C30480905E0290905F02092C000CAA0844
:10120000BB082AE0B501A401B7FE0EC041E06DE2C3
:1012100082E193E00E946A0444275527BA014819E5
:1012200059096A097B092AE082E193E00E94D2040D
:1012300068EC70E080E090E00E94390180E08093EB
:101240000001C114D10409F474CF0E94D70188238E
:1012500009F46FCF0E9400006CCF81110E948C00B6
:10126000EB2DF0E0EE0FFF1FE859FF4FA591B49171
:101270009C9180910001A92209F463CF8111DFCFF5
:1012800060E083E00E94B50060E084E00E94B50069
:1012900060E085E00E94B5000E94810480E00E9429
:1012A0008C0463E971E082E193E00E94C30481E071
:1012B0000E948C046DE971E082E193E00E94C30416
:1012C00062E370E080E090E00E94390181E0B7CFF6
:1012D000A1E21A2EAA1BBB1BFD010DC0AA1FBB1F3A
:1012E000EE1FFF1FA217B307E407F50720F0A21BAC
:1012F000B30BE40BF50B661F771F881F991F1A9419
:1013000069F760957095809590959B01AC01BD0142
:10131000CF010895EE0FFF1F0590F491E02D099481
:10132000F894FFCF010000400014005400000000BA
:10133000000D026D019A015A02CB01A901BD010005
:1013400000000037030A034E04E0020303F002E149
:101350000200000000BD046D014E044D04495220FE
:1013600053656E736F722053797374656D20537477
:101370006172746564000D0A0049522053454E5352
:101380004F520053595354454D2052454144590042
:101390004F626A6563742044657465637465642E86
:1013A000204974656D733A20004974656D20446569
:1013B000746563746564004E4F204F424A45435440
:0813C00000464F554E440000A9
:107E0000112484B714BE81FFF0D085E080938100F7
:107E100082E08093C00088E18093C10086E0809377
:107E2000C20080E18093C4008EE0C9D0259A86E02C
:107E300020E33CEF91E0309385002093840096BBD3
:107E4000B09BFECF1D9AA8958150A9F7CC24DD24C4
:107E500088248394B5E0AB2EA1E19A2EF3E0BF2EE7
:107E6000A2D0813461F49FD0082FAFD0023811F036
:107E7000013811F484E001C083E08DD089C08234E0
:107E800011F484E103C0853419F485E0A6D080C0E4
:107E9000853579F488D0E82EFF2485D0082F10E0AE
:107EA000102F00270E291F29000F111F8ED06801E7
:107EB0006FC0863521F484E090D080E0DECF843638
:107EC00009F040C070D06FD0082F6DD080E0C81688
:107ED00080E7D80618F4F601B7BEE895C0E0D1E017
:107EE00062D089930C17E1F7F0E0CF16F0E7DF06D8
:107EF00018F0F601B7BEE89568D007B600FCFDCFD4
:107F0000A601A0E0B1E02C9130E011968C91119780
:107F100090E0982F8827822B932B1296FA010C0160
:107F200087BEE89511244E5F5F4FF1E0A038BF0790
:107F300051F7F601A7BEE89507B600FCFDCF97BE46
:107F4000E89526C08437B1F42ED02DD0F82E2BD052
:107F50003CD0F601EF2C8F010F5F1F4F84911BD097
:107F6000EA94F801C1F70894C11CD11CFA94CF0C13
:107F7000D11C0EC0853739F428D08EE10CD085E9AC
:107F80000AD08FE07ACF813511F488E018D01DD067
:107F900080E101D065CF982F8091C00085FFFCCF94
:107FA0009093C60008958091C00087FFFCCF809118
:107FB000C00084FD01C0A8958091C6000895E0E648
:107FC000F0E098E1908380830895EDDF803219F02E
:107FD00088E0F5DFFFCF84E1DECF1F93182FE3DFCA
:107FE0001150E9F7F2DF1F91089580E0E8DFEE27F6
:047FF000FF270994CA
:027FFE00040479
:00000001FF
