:100000000C9463000C948B000C948B000C948B006C
:100010000C948B000C948B000C948B000C948B0034
:100020000C948B000C948B000C948B000C948B0024
:100030000C948B000C948B000C948B000C948B0014
:100040000C9487040C948B000C948B000C948B0004
:100050000C948B000C948B000C948B000C948B00F4
:100060000C948B000C948B000000000024002700EF
:100070002A0000000000250028002B0000000000DE
:1000800023002600290004040404040404040202DA
:100090000202020203030303030301020408102007
:1000A0004080010204081020010204081020000012
:1000B0000008000201000003040700000000000027
:1000C00000001908C10811241FBECFEFD8E0DEBF21
:1000D000CDBF22E0A2E7B1E001C01D92A531B20779
:1000E000E1F711E0A0E0B1E0E4E9FBE102C0059036
:1000F0000D92A237B107D9F710E0C2E6D0E004C0F4
:100100002197FE010E94C50BC136D107C9F70E9495
:10011000D1040C94BD0D0C94000096E0899FD00191
:100120001124AC57BE4F90967C936E935F9791E0ED
:1001300091969C939197E091F101F091F201909149
:10014000F001992339F0309751F0811108C0809166
:10015000A0010994309719F05C968C91FACF08951C
:10016000CF92DF92EF92FF920F931F9396E0899FB9
:10017000F0011124EC57FE4F11A2278D30A1213040
:10018000310551F178F02230310509F451C02330A6
:10019000310509F452C01F910F91FF90EF90DF904D
:1001A000CF9008956623B9F361E070E00E948D005E
:1001B0002FB7F8948091800190918101A0918201E4
:1001C000B09183012FBF8093DC019093DD01A09358
:1001D000DE01B093DF01DFCF9FB7F894C0908001BC
:1001E000D0908101E0908201F09083019FBF009147
:1001F000DC011091DD012091DE013091DF01C01A98
:10020000D10AE20AF30A0091EE011091EF0130E009
:1002100020E00C151D052E053F0550F462E070E04E
:100220001F910F91FF90EF90DF90CF900C948D0075
:100230006111B1CF63E070E0F3CF70E060E0F0CF28
:10024000833081F028F4813099F08230A9F008954C
:100250008730A9F08830C9F08430B1F480918000F3
:100260008F7D03C0809180008F77809380000895F8
:1002700084B58F7784BD089584B58F7DFBCF809141
:10028000B0008F778093B00008958091B0008F7D8B
:10029000F9CFCF93DF93282F30E0F901E255FF4FDC
:1002A0008491F901E656FF4FD491F901EA57FF4FC7
:1002B000C491CC23A1F081110E942001EC2FF0E029
:1002C000EE0FFF1FE458FF4FA591B491EC91ED2381
:1002D00081E090E009F480E0DF91CF91089580E023
:1002E00090E0FACF1F93CF93DF93282F30E0F901EE
:1002F000E255FF4F8491F901E656FF4FD491F90181
:10030000EA57FF4FC491CC23A9F0162F81110E9408
:100310002001EC2FF0E0EE0FFF1FEE58FF4FA591EC
:10032000B4918FB7F894EC91111108C0D095DE23E9
:10033000DC938FBFDF91CF911F910895DE2BF8CF13
:10034000CF93DF9390E0FC01E656FF4F24918A574C
:100350009F4FFC0184918823C9F090E0880F991F7A
:10036000FC01E859FF4FA591B491FC01EE58FF4FF5
:10037000C591D49161110DC09FB7F8948C912095CF
:1003800082238C938881282328839FBFDF91CF917C
:100390000895623051F49FB7F8943C91822F809574
:1003A00083238C93E8812E2BEFCF8FB7F894EC91B9
:1003B0002E2B2C938FBFEACF862F642F0C94A00195
:1003C000862F642F0C947201862F0C944901AF92F2
:1003D000BF92CF92DF92EF92FF920F931F93CF9332
:1003E000DF936C017B018B01040F151FEB015E0194
:1003F000AE18BF08C017D10759F06991D601ED9129
:10040000FC910190F081E02DC6010995892B79F7C7
:10041000C501DF91CF911F910F91FF90EF90DF9079
:10042000CF90BF90AF900895089590E080E0089538
:10043000CF93DF93EC0180910B0290910C02009717
:1004400059F020910D0230910E022C173D0720F03B
:1004500081E0DF91CF910895BE016F5F7F4F0E94D1
:10046000F00C009789F090930C0280930B02D093CC
:100470000E02C0930D0220910F0230911002232B27
:1004800039F7FC011082E4CF80E0E3CFFC0101905A
:100490000020E9F73197AF01481B590BBC0183EFEE
:1004A00091E00C94E7018F929F92AF92BF920F93CD
:1004B0001F93CF93DF93CDB7DEB7A1970FB6F89414
:1004C000DEBF0FBECDBF19A2423008F44AE08E0154
:1004D0000F5D1F4F842E912CB12CA12CA5019401EE
:1004E0000E94A30BE62FB901CA01EA30F4F4E05DE3
:1004F000D801EE938D01232B242B252B79F790E047
:1005000080E0109719F0CD010E944602A1960FB627
:10051000F894DEBF0FBECDBFDF91CF911F910F9139
:10052000BF90AF909F908F900895E95CE1CF0F93BB
:100530001F93CF93DF9300D0CDB7DEB789831A82A4
:1005400000910F02109110020F5F1F4FC8010E940F
:1005500018028823A1F020910B0230910C028091A7
:100560000F0290911002BE016F5F7F4F820F931FA9
:100570000E94B60D1093100200930F0281E00F90BD
:100580000F90DF91CF911F910F91089590E080E03F
:100590000E94180220910B0230910C02811113C0AD
:1005A0002115310519F0C9010E94670C10920C0247
:1005B00010920B021092100210920F0210920E0273
:1005C00010920D0208951092100210920F026EE523
:1005D00071E0C9010C94B60DCF93DF93EC0160E09C
:1005E0008E810E94720161E08E810E94720160E042
:1005F0008E810E9472018BE891E00197F1F7DF9103
:10060000CF910895CF92DF92EF92FF920F931F93B5
:10061000CF93DF936C017C0187E0E80EF11CD0E002
:10062000C0E0062F10E0B8010C2E02C0759567954A
:100630000A94E2F76170F70181917F010E947201D3
:100640002196C430D10579F7C601DF91CF911F9172
:100650000F91FF90EF90DF90CF900C94EC02CF922F
:10066000DF92EF92FF920F931F93CF93DF93EC01F2
:10067000F62E642F8C810E9472018D818F3F19F0BC
:1006800060E00E9472010F2D10E08F8584FF25C06D
:100690006E0187E0C80ED11CF12CE12CB8010E2CA4
:1006A00002C0759567950A94E2F76170F601819131
:1006B0006F010E947201FFEFEF1AFF0A88E0E8164F
:1006C000F10461F7CE01DF91CF911F910F91FF905F
:1006D000EF90DF90CF900C94EC02B80184E0759518
:1006E00067958A95E1F7CE010E9402036F2DCE0136
:1006F000DF91CF911F910F91FF90EF90DF90CF90FE
:100700000C94020340E0682F83EF91E00C942F03D8
:1007100081E00E9482038BE39FE10197F1F7089546
:10072000CF93DF93823029F49091020298609093E6
:100730000202809306021092070280E4809308026E
:1007400080E18093090280E580930A0261E0809154
:10075000F7010E94A0018091F8018F3F19F061E03C
:100760000E94A00161E08091F9010E94A001C3EF05
:10077000D1E09E01235F31408091020284FD0BC0D5
:1007800084E090E021962817390744F461E08E81D7
:100790000E94A001EECF88E090E0F4CF8BE39DE0D3
:1007A0000197F1F760E08091F7010E94720160E02B
:1007B0008091F9010E9472018091F8018F3F19F038
:1007C00060E00E9472018091020284FD34C063E007
:1007D00083EF91E00E940203CBE4D6E4CE010197BF
:1007E000F1F763E083EF91E00E9402032197F1F7B4
:1007F00063E083EF91E00E94020383E592E00197BA
:10080000F1F762E083EF91E00E940203809102021F
:1008100080620E94820384E0809303028CE00E9445
:1008200082030E94880382E08093040286E0DF91C5
:10083000CF910C94820380620E9482038BE496E441
:100840000197F1F78091020280620E94820383E5A2
:1008500092E00197F1F78091020280620E94820388
:10086000D5CF90910602891710F08FEF890FE82FEE
:10087000F0E0ED50FE4F848980680C94820341E0E3
:100880000E942F0381E090E00895CF92DF92EF92D3
:10089000FF9297FF18C06B017C0141E06DE283EF8E
:1008A00091E00E942F0366277727CB016C197D0901
:1008B0008E099F094AE00E9453020196FF90EF9033
:1008C000DF90CF9008954AE0FF90EF90DF90CF90B7
:1008D0000C9453020E94C602109276011092770186
:1008E00010927801109279011092720110927301A6
:1008F000109274011092750180E280931801109299
:100900007A010E94880385E391E00C9446021F92CD
:100910000F920FB60F9211242F933F938F939F93B3
:10092000AF93BF938091800190918101A09182014A
:10093000B091830130917F0123E0230F2D3758F5CB
:100940000196A11DB11D20937F018093800190939A
:100950008101A0938201B093830180917B019091EA
:100960007C01A0917D01B0917E010196A11DB11D78
:1009700080937B0190937C01A0937D01B0937E01D5
:10098000BF91AF919F918F913F912F910F900FBE8B
:100990000F901F90189526E8230F0296A11DB11DF8
:1009A000D2CF789484B5826084BD84B5816084BDE3
:1009B00085B5826085BD85B5816085BD80916E00FD
:1009C000816080936E00109281008091810082602E
:1009D000809381008091810081608093810080916B
:1009E00080008160809380008091B100846080935A
:1009F000B1008091B00081608093B00080917A0056
:100A0000846080937A0080917A00826080937A007B
:100A100080917A00816080937A0080917A0080686A
:100A200080937A001092C10082E00E9490030E949D
:100A30006A0422242A94322C51E05093F0018FB79B
:100A4000F8944091800150918101609182017091F0
:100A500083018FBF8091E0019091E101A091E201BB
:100A6000B091E301481B590B6A0B7B0B8091EC01A1
:100A70009091ED01B0E0A0E084179507A607B707B5
:100A800008F014C1C0E08091EA01C81760F4E09159
:100A9000E601F091E701EC0FF11D62E080810E9418
:100AA000A001CF5FF0CF10E08091EB01181708F0A4
:100AB00061C0E12EF12CE091E801F091E901EE0D29
:100AC000FF1D61E080810E94A001E091E801F091AA
:100AD000E901EE0DFF1D60E080810E94720181E05E
:100AE00090E0A0E0B0E0012E04C0880F991FAA1F7B
:100AF000BB1F0A94D2F75C016C01C094D09400E053
:100B00008091EA010817F8F4C02FD0E0E091E601E7
:100B1000F091E701EC0FFD1F80810E9449012496AE
:100B2000CC0FDD1FCC57DE4F892B41F48881998192
:100B30008A299B29998388830F5FE2CF88819981D5
:100B40008C219D21F7CFE091E801F091E901EE0DB4
:100B5000FF1D61E080810E9472018091E801909107
:100B6000E901E80EF91E60E0F70180810E94A00112
:100B70001F5F9ACF04E811E0F801878D90A1892BBF
:100B800021F4148E368E258E11A2369651E0E03C6B
:100B9000F50799F7F12C8091EA01F81608F050C09A
:100BA000E12CCF2DD0E0CC0FDD1FC457DE4F2091BC
:100BB000EB01E21608F042C0688179810E2C02C078
:100BC000769567950A94E2F7F29E900111242E0D16
:100BD000311DE4E8F1E080E0458D568D241735079E
:100BE00009F425C28F5F36968A30B1F760FF24C0C2
:100BF000E4E8F1E090E080E0448D411118C0E0911C
:100C0000E401F091E501E20FF31F408156E0589FA7
:100C1000F001599FF00D1124EC57FE4F448F368F91
:100C2000258F10A2178E61E00E94B00005C00196CA
:100C300036968A30910501F7E394B9CFF394ABCFA0
:100C400080E0F80191A19111892F0A5F1F4FF1E017
:100C5000003C1F07B1F79FB7F89440918001509175
:100C6000810160918201709183019FBF4093E001F7
:100C70005093E1016093E2017093E3018823B1F0A6
:100C80008091A501882391F08091A3019091A40106
:100C9000019761F4C091A001C1110BC0E0E0F0E048
:100CA000EF2B09F4C9CE0E940000C6CE1092F001CD
:100CB000F5CFC33419F40E946A04F0CF80917A0111
:100CC000811147C080ED8C0F8A3098F48C2F0E94E0
:100CD000970281E00E94310440910F02509110026E
:100CE00060910B0270910C0283EF91E00E94E7018A
:100CF000D5CF80910F0290911002892B79F28C2F21
:100D00008D7F8D3221F086ED8C0F823038F6809108
:100D10000B0290910C020097C1F00E94CA086093E8
:100D200076017093770180937801909379010E9406
:100D3000C602C093180152E050937A010E948803C2
:100D400081E491E00E944602A9CF60E070E0CB010F
:100D5000E6CF823009F0A2CF80ED8C0F8A3008F404
:100D6000B5CFCD3309F09ACF80910F029091100248
:100D7000892B09F493CF80910B0290910C0200977C
:100D800009F43FC00E94CA08609372017093730116
:100D900080937401909375010E94C6020E9488039B
:100DA00080E00E943104609176017091770180911A
:100DB0007801909179010E94450441E06091180109
:100DC00083EF91E00E942F03609172017091730193
:100DD00080917401909175010E9445048DE491E029
:100DE0000E94460281E00E943104809118018B32FA
:100DF00009F445C054F48A3209F470C08BE691E0DE
:100E00003BC060E070E0CB01BFCF8D3209F451C030
:100E10008F32A1F7C0907201D0907301E0907401FD
:100E2000F09075018FE491E0C114D104E104F10464
:100E300019F160917601709177018091780190911C
:100E400079010E940D094B015C01C701B6010E94A6
:100E50000D099B01AC01C501B4010E94E80A6B01B8
:100E60007C014B015C01AC019B010E948E0B88232D
:100E700009F447C08FE591E00E94460216C06091D8
:100E800076017091770180917801909179010091BC
:100E90007201109173012091740130917501600FFE
:100EA000711F821F931F0E94450483E080937A0183
:100EB000F5CE6091760170917701809178019091E3
:100EC00079010091720110917301209174013091A8
:100ED0007501601B710B820B930BE5CF209176019E
:100EE00030917701409178015091790160917201C0
:100EF0007091730180917401909175010E94930B20
:100F0000D2CF26013701E89477F82FEF3FEF4FE774
:100F10005FE7C301B2010E948E0B81110DC02FEF5C
:100F20003FEF4FE75FE7C301B2010E9406091816C1
:100F30001CF483E691E0A0CF2FEF3FEF4FE75FE493
:100F4000C701B6010E94890B18161CF487E691E0D0
:100F500093CF2FEF3FEF4FE75FECC701B6010E9441
:100F6000060987FDF3CF20E030E0A901C701B601F3
:100F70000E94060987FF0CC041E06DE283EF91E01B
:100F80000E942F0346015701B7FAB094B7F8B09406
:100F90002AE037ED43EA5BE3C501B4010E947C0A15
:100FA0004B015C010E945A0B6B017C010E940B09F2
:100FB0009B01AC01C501B4010E947B0A4B015C019D
:100FC0004AE0C701B6010E94530241E06EE283EF9E
:100FD00091E00E942F0320E030E040E251E4C5019F
:100FE000B4010E946C094B015C010E945A0B6B0119
:100FF000F12CE12C4AE0C701B6010E945302C7015F
:10100000B6010E940B099B01AC01C501B4010E940D
:101010007B0A20E030E040E251E40E946C090E942B
:101020005A0B90E080E04AE00E9453023ECF61708C
:10103000FBCD1092F6011092F5018DE291E09093B4
:10104000F4018093F3018CE08093F7018FEF80939C
:10105000F8018BE08093F90185E08093FA0184E048
:101060008093FB0183E08093FC0182E08093FD018B
:101070001092FE011092FF011092000210920102E4
:101080001092020281E00E94900310928601109259
:101090008A011092890110928B0183E291E0909372
:1010A000850180938401E0EAF1E0108214821382CA
:1010B0001582369681E0EC3DF807B9F784E091E0BF
:1010C0009093E7018093E60180E091E09093E9013D
:1010D0008093E80184E08093EA018093EB0188E04B
:1010E00091E09093E5018093E4018AE090E0909391
:1010F000ED018093EC0184EF91E09093EF018093F8
:10110000EE011092F2011092F1011092E0011092A2
:10111000E1011092E2011092E3011092F0011092AD
:101120000C0210920B0210920E0210920D021092FD
:10113000100210920F0290E080E00E9418022091AD
:101140000B0230910C02811113C02115310519F0E9
:10115000C9010E94670C10920C0210920B021092AF
:10116000100210920F0210920E0210920D020895BA
:101170001092100210920F026EE571E0C9010C94FA
:10118000B60D80910B0290910C02009711F00C9417
:10119000670C08951F93FC0199278827BC01E894E8
:1011A00011911032E9F3193010F01E30C8F31B32E0
:1011B00051F01D3249F4689406C00E94F108610F95
:1011C000711D811D911D119110531A30B0F33EF421
:1011D00090958095709561957F4F8F4F9F4F1F9190
:1011E0000895592F482F372F262F660F771F881FF6
:1011F000991F660F771F881F991F620F731F841F27
:10120000951F660F771F881F991F08950E94480930
:1012100008F481E00895E89409C097FB3EF49095A6
:101220008095709561957F4F8F4F9F4F9923A9F0BF
:10123000F92F96E9BB279395F6958795779567954E
:10124000B795F111F8CFFAF4BB0F11F460FF1BC092
:101250006F5F7F4F8F4F9F4F16C0882311F096E925
:1012600011C0772321F09EE8872F762F05C06623D3
:1012700071F096E8862F70E060E02AF09A95660F8C
:10128000771F881FDAF7880F9695879597F9089545
:10129000990F0008550FAA0BE0E8FEEF1616170687
:1012A000E807F907C0F012161306E407F50798F0EF
:1012B000621B730B840B950B39F40A2661F0232B08
:1012C000242B252B21F408950A2609F4A140A69584
:1012D0008FEF811D811D08950E947F090C94F009F4
:1012E0000E94E20938F00E94E90920F0952311F0EC
:1012F0000C94D9090C94DF0911240C94240A0E943F
:10130000010A70F3959FC1F3950F50E0551F629F3E
:10131000F001729FBB27F00DB11D639FAA27F00D4E
:10132000B11DAA1F649F6627B00DA11D661F829F75
:101330002227B00DA11D621F739FB00DA11D621F5A
:10134000839FA00D611D221F749F3327A00D611D77
:10135000231F849F600D211D822F762F6A2F112459
:101360009F5750409AF0F1F088234AF0EE0FFF1F8C
:10137000BB1F661F771F881F91505040A9F79E3FE3
:10138000510580F00C94D9090C94240A5F3FE4F3D2
:10139000983ED4F3869577956795B795F795E79539
:1013A0009F5FC1F7FE2B880F911D9695879597F942
:1013B000089597F99F6780E870E060E008959FEFD7
:1013C00080EC089500240A941616170618060906DC
:1013D000089500240A9412161306140605060895AB
:1013E000092E0394000C11F4882352F0BB0F40F433
:1013F000BF2B11F460FF04C06F5F7F4F8F4F9F4F73
:10140000089557FD9058440F551F59F05F3F71F0F4
:101410004795880F97FB991F61F09F3F79F087955B
:101420000895121613061406551FF2CF4695F1DFE4
:1014300008C0161617061806991FF1CF8695710574
:10144000610508940895E894BB2766277727CB01A8
:1014500097F908950E946C0AA59F900DB49F900D76
:10146000A49F800D911D112408952F923F924F92B9
:101470005F926F927F928F929F92AF92BF92CF9224
:10148000DF92EF92FF920F931F93CF93DF93CDB72D
:10149000DEB7CA1BDB0B0FB6F894DEBF0FBECDBFA5
:1014A00009942A88398848885F846E847D848C8476
:1014B0009B84AA84B984C884DF80EE80FD800C817F
:1014C0001B81AA81B981CE0FD11D0FB6F894DEBF62
:1014D0000FBECDBFED010895A29FB001B39FC00123
:1014E000A39F700D811D1124911DB29F700D811D50
:1014F0001124911D08955058BB27AA270E94930AD2
:101500000C94F0090E94E20938F00E94E90920F0E9
:1015100039F49F3F19F426F40C94DF090EF4E0959A
:10152000E7FB0C94D909E92F0E94010A58F3BA1776
:10153000620773078407950720F079F4A6F50C94E9
:10154000230A0EF4E0950B2EBA2FA02D0B01B90142
:1015500090010C01CA01A0011124FF27591B99F029
:10156000593F50F4503E68F11A16F040A22F232F35
:10157000342F4427585FF3CF469537952795A79585
:10158000F0405395C9F77EF41F16BA0B620B730B2C
:10159000840BBAF09150A1F0FF0FBB1F661F771F9D
:1015A000881FC2F70EC0BA0F621F731F841F48F452
:1015B000879577956795B795F7959E3F08F0B0CFDB
:1015C0009395880F08F09927EE0F979587950895C2
:1015D0000E94FC0A0C94F0090E94E90958F00E944C
:1015E000E20940F029F45F3F29F00C94D909511128
:1015F0000C94240A0C94DF090E94010A68F39923D1
:10160000B1F3552391F3951B550BBB27AA276217FE
:101610007307840738F09F5F5F4F220F331F441F0B
:10162000AA1FA9F335D00E2E3AF0E0E832D091503F
:101630005040E695001CCAF72BD0FE2F29D0660F2C
:10164000771F881FBB1F261737074807AB07B0E86F
:1016500009F0BB0B802DBF01FF2793585F4F3AF075
:101660009E3F510578F00C94D9090C94240A5F3FF1
:10167000E4F3983ED4F3869577956795B795F795FB
:101680009F5FC9F7880F911D9695879597F90895E3
:10169000E1E0660F771F881FBB1F6217730784077F
:1016A000BA0720F0621B730B840BBA0BEE1F88F78E
:1016B000E09508950E94090A88F09F5798F0B92F85
:1016C0009927B751B0F0E1F0660F771F881F991F77
:1016D0001AF0BA95C9F714C0B13091F00E94230AEC
:1016E000B1E008950C94230A672F782F8827B85FFC
:1016F00039F0B93FCCF3869577956795B395D9F7CF
:101700003EF490958095709561957F4F8F4F9F4FD8
:1017100008950E94480908F48FEF08950E9448092F
:10172000880B990B0895DB018F939F930E942A0ADF
:10173000BF91AF91A29F800D911DA39F900DB29F6D
:10174000900D11240895A1E21A2EAA1BBB1BFD01C6
:101750000DC0AA1FBB1FEE1FFF1FA217B307E40790
:10176000F50720F0A21BB30BE40BF50B661F771FE8
:10177000881F991F1A9469F76095709580959095C8
:101780009B01AC01BD01CF010895EE0FFF1F059035
:10179000F491E02D09940F931F93CF93DF93823040
:1017A000910510F482E090E0E0911302F0911402B0
:1017B00030E020E0B0E0A0E0309799F42115310549
:1017C00009F44AC0281B390B24303105D8F58A8129
:1017D0009B816115710589F1FB0193838283FE0171
:1017E00011C0408151810281138148175907E0F0EF
:1017F0004817590799F4109761F012960C931297B5
:1018000013961C933296CF01DF91CF911F910F91C8
:1018100008950093130210931402F4CF211531059B
:1018200051F04217530738F0A901DB019A01BD01BD
:10183000DF01F801C1CFEF01F9CF9093140280933B
:101840001302CDCFFE01E20FF31F8193919322503B
:10185000310939832883D7CF2091110230911202A8
:10186000232B41F420911B0130911C013093120273
:10187000209311022091190130911A01211531058F
:1018800041F42DB73EB740911D0150911E01241B1C
:10189000350BE0911102F0911202E217F307A0F468
:1018A0002E1B3F0B2817390778F0AC014E5F5F4FB6
:1018B0002417350748F04E0F5F1F509312024093D4
:1018C0001102819391939FCFF0E0E0E09CCFCF9302
:1018D000DF930097E9F0FC01329713821282A09106
:1018E0001302B0911402ED0130E020E01097A1F452
:1018F00020813181820F931F2091110230911202B9
:101900002817390709F061C0F0931202E093110221
:10191000DF91CF910895EA01CE17DF07E8F54A81FC
:101920005B819E0141155105B1F7E901FB83EA8313
:1019300049915991C40FD51FEC17FD0761F48081BF
:1019400091810296840F951FE90199838883828192
:1019500093819B838A83F0E0E0E012968D919C91C5
:1019600013970097B9F52D913C911197CD010296EF
:10197000820F931F2091110230911202281739070C
:1019800039F6309751F51092140210921302B09369
:101990001202A0931102BCCFD383C2834081518134
:1019A000840F951FC817D90761F44E5F5F4F888178
:1019B0009981480F591F518340838A819B8193836A
:1019C00082832115310509F0B0CFF0931402E09322
:1019D00013029ECFFD01DC01C0CF13821282D7CF4C
:1019E000B0E0A0E0E6EFFCE00C94370A8C01009731
:1019F00051F4CB010E94CB0B8C01C801CDB7DEB7EF
:101A0000E0E10C94530AFC01E60FF71F9C01225001
:101A10003109E217F30708F49DC0D901CD91DC919B
:101A20001197C617D70798F0C530D10530F3CE010E
:101A300004978617970708F3C61BD70B2297C19305
:101A4000D1936D937C93CF010E94670CD6CF5B013D
:101A5000AC1ABD0A4C018C0E9D1EA0911302B091D0
:101A60001402512C412CF12CE12C109731F580916E
:101A70001102909112028815990509F05CC0461672
:101A8000570608F058C08091190190911A010097EB
:101A900041F48DB79EB740911D0150911E01841BEA
:101AA000950BE817F90708F055C0F0931202E09380
:101AB0001102F90171836083A0CF8D919C911197E0
:101AC00012966C90129713967C901397A815B905EF
:101AD00059F56C0142E0C40ED11CCA14DB0420F19C
:101AE000AC014A195B09DA011296159780F06282FF
:101AF000738251834083D9016D937C93E114F10487
:101B000071F0D7011396FC93EE93129776CF22963D
:101B10008C0F9D1FF90191838083F301EFCFF09328
:101B20001402E093130269CF4816590608F42C01F9
:101B30007D01D3019ACFCB010E94CB0B7C01009792
:101B400049F0AE01B8010E94AD0DC8010E94670CBA
:101B5000870153CF10E000E050CFFB01DC0102C051
:101B600001900D9241505040D8F70895FB01DC01DF
:101B700001900D920020E1F7089510E0C2E6D0E058
:101B800004C0FE010E94C50B2196C336D107C9F7D8
:041B9000F894FFCFF7
:101B9400090807060E0F10113738392F3435362A45
:101BA4003132332D43303D2B2000001502800000DC
:101BB400000000DC01E001E401000000003F04E754
:101BC4000115021402317374204E756D6265723A08
:101BD40000326E64204E756D6265723A003D0045B8
:101BE40072726F723A204469762062792030006EF6
:101BF400616E00696E66006F7666004572726F7280
:021C04000000DE
:00000001FF
