:100000000C94E9010C9411020C9411020C9411024D
:100010000C9411020C9411020C9411020C94110214
:100020000C9411020C9411020C9411020C94110204
:100030000C9411020C9411020C9411020C941102F4
:100040000C94E3110C9411020C94B1110C948B11CB
:100050000C9411020C9411020C9411020C941102D4
:100060000C9411020C9411024E414E494E495459C0
:10007000494E46CDCCCC3D0AD7233C17B7D1387773
:10008000CC2B329595E6241FB14F0A000020410089
:1000900000C84200401C4620BCBE4CCA1B0E5AAED3
:1000A000C59D7400407A10F35A00A0724E180900E2
:1000B00010A5D4E80000E87648170000E40B5402CD
:1000C0000000CA9A3B000000E1F505000080969808
:1000D00000000040420F000000A086010000001058
:1000E0002700000000E8030000000064000000009A
:1000F000000A00000000000100000000002C76D87B
:1001000088DC674F0823DFC1DFAE59E1B1B796E560
:10011000E3E453C63AE651997696E8E6C28426EBC4
:10012000898C9B62ED407C6FFCEFBC9C9F40F2BAD7
:10013000A56FA5F490055A2AF75C936B6CF9676D6F
:10014000C11BFCE0E40D47FEF520E6B500D0ED90C4
:100150002E0300943577050080841E080000204E91
:100160000A000000C80C333333330F986E1283112A
:1001700041EF8D2114893BE65516CFFEE6DB18D101
:10018000844B381BF77C1D901DA4BBE424203284D3
:10019000725E228100C9F124ECA1E53D27596F75FB
:1001A0002068617665206265656E2062616E6E65AD
:1001B000642066726F6D20636F6E6E656374696E26
:1001C000672E20506C6561736520636F6E74616388
:1001D0007420746865204D5154542073657276659F
:1001E000722061646D696E6973747261746F7220DC
:1001F000666F72206D6F72652064657461696C73DF
:100200002E004578636565646564207265636F6E72
:100210006E6563742072617465206C696D69742EFB
:1002200020506C6561736520747279206167616923
:100230006E206C617465722E004E6F74206175744F
:10024000686F72697A656420746F20636F6E6E6583
:10025000637400546865206461746120696E207461
:1002600068652075736572206E616D65206F722000
:1002700070617373776F7264206973206D616C664F
:100280006F726D656400546865204D51545420733D
:1002900065727669636520697320756E6176616940
:1002A0006C61626C650054686520436C69656E74AE
:1002B000206964656E74696669657220697320637C
:1002C0006F7272656374205554462D3820627574C0
:1002D000206E6F7420616C6C6F776564206279208A
:1002E00074686520536572766572005468652053A2
:1002F000657276657220646F6573206E6F7420730B
:100300007570706F727420746865206C6576656CAA
:10031000206F6620746865204D5154542070726FB0
:10032000746F636F6C2072657175657374656400BA
:10033000436F6E6E656374696F6E206661696C658C
:1003400064004661696C656420746F207375627324
:1003500063726962650000000000240027002A0023
:1003600000000000250028002B000000000800020B
:100370000100000304070000000000000000556EAB
:100380006B6E6F776E206572726F720000000000F6
:1003900023002600290044726F707065642061207C
:1003A0007061636B657400040404040404040402B3
:1003B0000202020202030303030303010204081002
:1003C00020408001020408102001020408102000CF
:1003D0002D1211241FBECFEFD8E0DEBFCDBF12E03B
:1003E000A0E0B1E0E2EFFEE302C005900D92A43B75
:1003F000B107D9F724E0A4EBB2E001C01D92A63703
:10040000B207E1F711E0C9EED1E004C02197FE0187
:100410000E94FE1DC83ED107C9F70E9435130C94F7
:10042000771F0C9400002F923F924F925F926F9231
:100430007F928F929F92AF92BF92CF92DF92EF9274
:10044000FF920F931F93CF93DF93EC014B015A015F
:10045000E881F9810484F585E02D9A0141E050E0BE
:1004600009950197A9F090E080E0DF91CF911F916D
:100470000F91FF90EF90DF90CF90BF90AF909F9043
:100480008F907F906F905F904F903F902F90089546
:1004900084010F5F1F4F140185E0280E311C412C91
:1004A000512C32014394C12CD12C7601E881F98181
:1004B0000484F585E02D950141E050E0B801CE01BE
:1004C0000995019781F6D801ED918D01AE2FAF7797
:1004D000B0E0A30192010E946C1CC60ED71EE81E5C
:1004E000F91E87E0440C551C661C771C8A95D1F7D1
:1004F0000215130509F4B7CFE7FDD8CFC801881955
:1005000099094C0145E950E0481B590BE881F981F4
:100510000484F585E02DCA01B0E0A0E095018C15BA
:100520009D05AE05BF0530F4B801CE010995880DD3
:10053000991D9BCFA601F8CFCF92DF92EF92FF9249
:10054000CF93DF93B0915E04A0E08111AB2F809137
:100550005F0490E0880F991FAC0144575C4FC09036
:100560006404D0906504E0906604F090670430E085
:1005700020E0FA01C591D491E881B90190E080E0D2
:10058000EB23EA130AC02F5F3F4F6C157D058E05E4
:100590009F0578F36FEF7FEFCB01DF91CF91FF9055
:1005A000EF90DF90CF900895AF92BF92CF92DF92FD
:1005B000EF92FF920F931F93CF93DF936C017B0118
:1005C0008B01040F151FEB015E01AE18BF08C017A9
:1005D000D10759F06991D601ED91FC910190F0811C
:1005E000E02DC6010995892B79F7C501DF91CF91DF
:1005F0001F910F91FF90EF90DF90CF90BF90AF9041
:100600000895FC01538D448D252F30E0842F90E018
:10061000821B930B541710F0CF96089501970895FD
:10062000FC01918D828D981761F0A28DAE0FBF2FC6
:10063000B11D5D968C91928D9F5F9F73928F90E01C
:1006400008958FEF9FEF0895FC01918D828D98178B
:1006500031F0828DE80FF11D858D90E008958FEFC8
:100660009FEF0895FC01918D228D892F90E0805C91
:100670009F4F821B91098F739927089580EC92E018
:100680000E94320321E0892B09F420E0822F089593
:1006900080E090E0892B29F00E943E0381110C94A8
:1006A00000000895FC01A48DA80FB92FB11DA35A15
:1006B000BF4F2C91848D90E001968F739927848F82
:1006C000A689B7892C93A089B1898C9183708064A5
:1006D0008C93938D848D981306C00288F389E02D46
:1006E00080818F7D80830895EF92FF920F931F93F7
:1006F000CF93DF93EC0181E0888F9B8D8C8D9813D5
:100700001AC0E889F989808185FF15C09FB7F894E0
:10071000EE89FF896083E889F9898081837080642C
:1007200080839FBF81E090E0DF91CF911F910F9177
:10073000FF90EF900895F62E0B8D10E00F5F1F4F86
:100740000F731127E02E8C8D8E110CC00FB607FC95
:10075000FACFE889F989808185FFF5CFCE010E9423
:100760005203F1CFEB8DEC0FFD2FF11DE35AFF4F3C
:10077000F0829FB7F8940B8FEA89FB8980818062B1
:10078000CFCF0F931F93CF93DF938C01D0E0C0E0C6
:10079000F801EC0FFD1F6491662341F080EC92E0BC
:1007A0000E947403892B11F02196F2CFCE01DF91C4
:1007B000CF911F910F910895CF93DF93EC01888D16
:1007C0008823B9F0AA89BB89E889F9898C9185FDCC
:1007D00003C0808186FD0DC00FB607FCF7CF8C915A
:1007E00085FFF2CF808185FFEDCFCE010E945203BD
:1007F000E9CFDF91CF910895833081F028F48130E3
:1008000099F08230A9F008958730A9F08830C9F0B6
:100810008430B1F4809180008F7D03C0809180008E
:100820008F7780938000089584B58F7784BD089575
:1008300084B58F7DFBCF8091B0008F778093B0001F
:1008400008958091B0008F7DF9CF1F93CF93DF93F0
:10085000282F30E0F901E659FC4F8491F901E55465
:10086000FC4FD491F901E955FC4FC491CC23A9F078
:10087000162F81110E94FC03EC2FF0E0EE0FFF1FFA
:10088000E05AFC4FA591B4918FB7F894EC911111F7
:1008900008C0D095DE23DC938FBFDF91CF911F91ED
:1008A0000895DE2BF8CFCF93DF9390E0FC01E55461
:1008B000FC4F249189559C4FFC0184918823C9F0F9
:1008C00090E0880F991FFC01EA5AFC4FA591B49162
:1008D000FC01E05AFC4FC591D49161110DC09FB746
:1008E000F8948C91209582238C93888128232883E7
:1008F0009FBFDF91CF910895623051F49FB7F89474
:100900003C91822F809583238C93E8812E2BEFCF0F
:100910008FB7F894EC912E2B2C938FBFEACF3FB773
:10092000F8948091B7029091B802A091B902B09169
:10093000BA0226B5A89B05C02F3F19F00196A11D4C
:10094000B11D3FBFBA2FA92F982F8827BC01CD0119
:10095000620F711D811D911D42E0660F771F881F78
:10096000991F4A95D1F708958F929F92AF92BF92A7
:10097000CF92DF92EF92FF924B015C010E948F04B5
:100980006B017C010E948F046C197D098E099F09FF
:10099000683E734081059105A8F321E0821A910811
:1009A000A108B10888EEC80E83E0D81EE11CF11C36
:1009B00081149104A104B10429F7FF90EF90DF9016
:1009C000CF90BF90AF909F908F900895CF92DF927D
:1009D000EF92FF920F931F93CF93DF93CDB7DEB7C4
:1009E000C054D1400FB6F894DEBF0FBECDBF2FB7B5
:1009F000F8948091BC029091BD02A091BE02B0918A
:100A0000BF022FBF40916004509161046091620465
:100A1000709163048C019D01041B150B260B370B91
:100A2000B901A801403D57406105710590F48091DE
:100A30006804C05CDE4F0FB6F894DEBF0FBECDBFBA
:100A4000DF91CF911F910F91FF90EF90DF90CF90AA
:100A500008958093600490936104A0936204B0931E
:100A6000630410925B0410925A041092590410927D
:100A700058041092570462E080915C040E94530471
:100A800061E070E080E090E00E94B40461E0809159
:100A90005C040E94530460E080915C040E94250481
:100AA00080915D048551823020F58BE291E10197C0
:100AB000F1F762E080915C040E9453048091690424
:100AC00090E08230910538F0880F991F880F991FA8
:100AD00005970197F1F7F89480E00E949C026F3F20
:100AE0007F4F8F4F9F4F61F410926804789480E09D
:100AF000A0CF64E170E080E090E00E94B404D9CF20
:100B000081E00E949C026F3F7F4F8F4F9F4F61F3A8
:100B10008E010F5F1F4F6E018FEBC81A8EEFD80A40
:100B2000780180E00E949C02F701608371838283D8
:100B3000938381E00E949C02F7016483758386831E
:100B40009783F8E0EF0EF11CEC14FD0451F7789454
:100B500030E020E0F801C080D180E280F380448161
:100B6000558166817781FFEFCF16DF06EF06FF061E
:100B700031F04F3F8FEF58076807780719F410924C
:100B80006804B5CFF90183E0F595E7958A95E1F71B
:100B9000E95AFB4F8081880FC416D506E606F70692
:100BA00010F180832F5F3F4F085F1F4F28323105C0
:100BB00089F640915B042091570480915804280FD6
:100BC0003327331F80915904280F311D80915A0417
:100BD000820F932F911D99274817190681F681E0FE
:100BE0008093680426CF8160DCCFAF92BF92CF9212
:100BF000DF92EF92FF920F931F93CF93DF935B01EE
:100C0000EA01F12CE12C8A549F4F6C012097A1F14D
:100C1000D6018D919C91DC01ED91FC910688F789BC
:100C2000E02D099581110CC080E0DF91CF911F91DB
:100C30000F91FF90EF90DF90CF90BF90AF9008950D
:100C40008E01CB3FD10510F00AEF10E0F601808154
:100C50009181B5016E0D7F1DDC01ED91FC9102804B
:100C6000F381E02DA8010995C81BD90BE80EF91EE8
:100C70000817190759F2D8CF81E0D7CF6F927F922A
:100C80008F929F92AF92BF92CF92DF92EF92FF929C
:100C90000F931F93CF93DF93F12CE12C4115510556
:100CA000E9F1632E722E6A015B01C22FD32FF12C62
:100CB000E12C8C010A541F4FF80180819181DC01E5
:100CC000ED91FC910688F789E02D0995882331F193
:100CD000D7FD24C045018E0C9F1CF80180819181B5
:100CE000DC01ED91FC910084F185E02D0995892BC3
:100CF00029F1F80180819181DC01ED91FC91028460
:100D0000F385E02D0995F40181934F01FFEFEF1A70
:100D1000FF0AC72DD62DCE14DF04F9F6C701DF91E7
:100D2000CF911F910F91FF90EF90DF90CF90BF90E8
:100D3000AF909F908F907F906F9008952A976AE070
:100D400070E080E090E00E94B404B6CF8A549F4FD8
:100D5000DC018D919C91DC01ED91FC910688F78975
:100D6000E02D099591E0811101C090E0892F08954F
:100D7000CF93DF93EC01CA54DF4F88819981DC0166
:100D8000ED91FC910688F789E02D0995882349F0BB
:100D900088819981DC01ED91FC910488F589E02D31
:100DA000099581E0DF91CF910895CF92DF92EF9284
:100DB000FF920F931F93CF93DF93C1E7D3E002EC31
:100DC00013E09EEAE92E93E0F92EFE018491F801EA
:100DD000C490F701D490DD2071F081110E94FC03D2
:100DE000ED2DF0E0EE0FFF1FE457FC4FA591B491FD
:100DF0008C91C82251F7DF91CF911F910F91FF90F5
:100E0000EF90DF90CF900895CF93DF931F92CDB7EF
:100E1000DEB7898389818EBD00000DB407FEFDCF4A
:100E20008EB52AE030E0000021503109E1F70F9043
:100E3000DF91CF910895CF93DF93D82FC62F80EE07
:100E40000E94040783E290E00197F1F78D2F0E9442
:100E500004078C2F0E940407C11105C08EEEDF919C
:100E6000CF910C940407DF91CF910895DF92EF9218
:100E7000FF920F931F93CF93DF93D82EE92E8B0110
:100E8000F42E812F0E940407802F0E940407CD2D8D
:100E9000DE2D0C0F1D1FC017D10721F089910E9474
:100EA0000407F9CF81E0F8120AC08EEEDF91CF91EE
:100EB0001F910F91FF90EF90DF900C940407DF914A
:100EC000CF911F910F91FF90EF90DF900895DF92E7
:100ED000EF92FF920F931F93CF93DF937C01C62F66
:100EE000D42E862F0E9404078701D0E0C8018E19F6
:100EF0009F098C179D0734F4F80181918F010E949E
:100F00000407F4CFF1E0DF120AC08EEEDF91CF913B
:100F10001F910F91FF90EF90DF900C940407DF91E9
:100F2000CF911F910F91FF90EF90DF900895CF9395
:100F3000DF93EC018FEF0E94040788838AE090E042
:100F400000000197E9F7DF91CF9108950F931F9368
:100F5000CF93DF931F92CDB7DEB709EE13E019826E
:100F6000CE0101960E94970729812F3E81F0015002
:100F7000110911F0203E99F781E090E0203E09F040
:100F800080E00F90DF91CF911F910F9108958FEF27
:100F90009FEFF7CFCF92DF92EF92FF920F931F93C5
:100FA000CF93DF931F92CDB7DEB7182F6B017A0175
:100FB00019820E94A607892B61F490E080E00F90CF
:100FC000DF91CF911F910F91FF90EF90DF90CF9025
:100FD0000895CE0101960E94970710688981181321
:100FE000ECCFCE0101960E9497078981813029F7C5
:100FF0008FEF0E940407F701808310E000E0F70103
:1010000080818017110649F044F0C601800F911FBE
:101010000E9497070F5F1F4FF2CFCE0101960E94EB
:10102000970781E090E0CBCFCF92DF92EF92FF92D3
:101030000F931F93CF93DF9300D0CDB7DEB7182F58
:101040007B016A011A820E94A607892B69F490E04D
:1010500080E00F900F90DF91CF911F910F91FF9043
:10106000EF90DF90CF900895CE0102960E949707EF
:1010700010688A811813EBCF1982CE0101960E9465
:10108000970789818823B1F08FEF0E940407F6014A
:1010900080838701F6012081C8018E199F092817D6
:1010A000190641F03CF08FEF0E940407F80181938C
:1010B0008F01F0CFCE0102960E94970781E090E069
:1010C000C8CF61E08AE00C94250460E08AE00C94CB
:1010D0002504CF93CFB7F8948091B502811127C032
:1010E000E1EBF3E08491E5ECF3E09491E82FF0E09C
:1010F000EE0FFF1FEA5AFC4FA591B491EC91E92342
:1011000021F461E08AE00E94250461E08AE00E9407
:1011100053048CB580618CBD8CB580648CBD61E05E
:101120008DE00E94530461E08BE00E9453048091A3
:10113000B5028F5F8093B502CFBF61E08AE00E9465
:10114000530460E087E00E94530461E089E00E945C
:10115000530461E08AE00E94250461E08AE00E9475
:10116000250460E089E0CF910C942504CF93DF93B0
:1011700000D0CDB7DEB78091BB02811105C00E94BF
:10118000690881E08093BB020E94D5060E94650831
:1011900060E080E20E941B070E94D5068FEF8983E2
:1011A0001A82AE014E5F5F4FBE016F5F7F4F80E2DC
:1011B0000E94CA070E94610889810F900F90DF91F9
:1011C000CF910895FF920F931F93CF93DF9300D099
:1011D0001F92CDB7DEB78B838B01F42E8091B402C2
:1011E000811105C00E94690881E08093B4020E94C9
:1011F000D5060E94650862E08CE20E941B0740E071
:1012000061E0CE0103960E94670782E00E94040716
:1012100080E00E9404078F2D0E9404078EEE0E943A
:1012200004070E94D50619821A82AE014E5F5F4FF5
:10123000BE016F5F7F4F8CE20E9414080E9461081C
:101240008A81882369F08981F801808381E00F9089
:101250000F900F90DF91CF911F910F91FF90089504
:1012600080E0F5CFCF93DF9300D01F92CDB7DEB7EC
:101270008B838091B402811105C00E94690881E0CE
:101280008093B4020E94D5060E94650861E08FE257
:101290000E941B0741E061E0CE0103960E946707B0
:1012A0000E94D50619821A82AE014E5F5F4FBE01C1
:1012B0006F5F7F4F8FE20E94CA070E946108898199
:1012C0000F900F900F90DF91CF91089521E0FC01D6
:1012D00084858F3F09F420E0822F0895FC018485E6
:1012E0008F3F71F00E943209843038F09BEF980FE5
:1012F000933018F091E08A3009F490E0892F089536
:1013000080E00895EF92FF920F931F93CF93DF93A6
:1013100000D01F92CDB7DEB7FC0194859F3F09F442
:101320004EC08F019B838091B402811105C00E9441
:10133000690881E08093B4020E94D5060E94650886
:1013400061E08EE20E941B0741E061E0CE0103965E
:101350000E9467070E94D5061A821982AE014F5F6C
:101360005F4FBE016E5F7F4F8EE20E94CA070E94F0
:101370006108D8011C96EC91F0E0EE0FFF1FE050E1
:10138000FF4F8FEF9FEF9183808392E3E92EF12C43
:10139000F80184858F3F79F00E943209882359F043
:1013A000F1E0EF1AF10839F064E670E080E090E0D7
:1013B0000E94B404EDCF8FEFD8011C968C930F9050
:1013C0000F900F90DF91CF911F910F91FF90EF90B1
:1013D000089508950F931F93CF93DF931F92CDB776
:1013E000DEB78C01DC01ED91FC910084F185E02DEC
:1013F0000995892B81F041E0BE016F5F7F4FF801B5
:1014000084850E94E208898190E00F90DF91CF915E
:101410001F910F9108958FEF9FEFF7CFCF92DF923B
:10142000EF92FF920F931F93CF93DF9300D01F9201
:10143000CDB7DEB76B017A01FC0184858B83809187
:10144000B402811105C00E94690881E08093B40252
:101450000E94D5060E94650861E085E40E941B0792
:1014600041E061E070E0CE0103960E9436070E94E1
:10147000D5061A820E94A607892B49F1CE01029651
:101480000E9497078A81853C11F51982CE01019649
:101490000E94970789818823B1F08FEF0E9404078B
:1014A000E82E8FEF0E940407FE2CE82E8601CE0C5A
:1014B000DF1CC016D10639F08FEF0E940407F80137
:1014C00081938F01F6CFCE0102960E9497070E946A
:1014D000610881E090E0EF2811F090E080E09195C4
:1014E000819591090F900F900F90DF91CF911F91EF
:1014F0000F91FF90EF90DF90CF9008950F931F937F
:10150000CF93DF931F92CDB7DEB78C01DC01ED9155
:10151000FC910084F185E02D0995892B81F040E054
:10152000BE016F5F7F4FF80184850E94E2088981C8
:1015300090E00F90DF91CF911F910F9108958FEF61
:101540009FEFF7CFCF93DF9300D000D0CDB7DEB7BA
:10155000FC0184858F3F89F18C838091B4028111D5
:1015600005C00E94690881E08093B4020E94D506FC
:101570000E94650861E08BE20E941B0741E061E088
:10158000CE0104960E9467070E94D5061B821A822C
:101590001982AE014D5F5F4FBE016F5F7F4F8BE2DF
:1015A0000E94CA070E94610889819A810F900F905A
:1015B0000F900F90DF91CF91089590E080E0F6CFEB
:1015C000BF92CF92DF92EF92FF920F931F93CF9330
:1015D000DF9300D000D0CDB7DEB76C018B017A016C
:1015E000FC0184858430B0F081E090E0F6019383C3
:1015F0008283F12CE12CC7010F900F900F900F9078
:10160000DF91CF911F910F91FF90EF90DF90CF90DE
:10161000BF900895452B41F38C838091B4028111D2
:1016200005C00E94690881E08093B4020E94D5063B
:101630000E94650862E084E40E941B0740E061E0CC
:1016400070E0CE0104960E94360741E0B701C80160
:101650000E9436070E94D5061A821982AE014F5F9A
:101660005F4FBE016E5F7F4F84E40E9414080E94AA
:1016700061088981882309F4B7CF8A81813009F014
:10168000B3CFF60184858B831A82198210E000E0C3
:10169000BB24B3948091B402811104C00E946908F4
:1016A000B092B4020E94D5060E94650861E08AE209
:1016B0000E941B0741E061E0CE0103960E9467078C
:1016C0000E94D506AE014F5F5F4FBE016E5F7F4F38
:1016D0008AE20E94CA070E9461088A81811113C0B0
:1016E0000F5F1F4F64E670E080E090E00E94B4045A
:1016F0008A81811103C00931110560F20931110598
:1017000009F472CF78CF10E000E0F2CFCF93DF93EF
:101710001F92CDB7DEB76983DC01ED91FC910280A9
:10172000F381E02D41E050E0BE016F5F7F4F0995EE
:101730000F90DF91CF91089590E080E00895089593
:10174000FB0101900020E9F73197AF01461B570BD1
:10175000DC01ED91FC910280F381E02D09948F92E0
:101760009F92AF92BF92EF92FF920F931F93CF93EE
:10177000DF93CDB7DEB7A1970FB6F894DEBF0FBEEB
:10178000CDBF7C01FA01CB0119A2223008F42AE076
:101790008E010F5D1F4F822E912CB12CA12CBF0109
:1017A000A50194010E94AE1CF901CA016A300CF532
:1017B000605DD8016E938D01232B242B252B79F7A7
:1017C00090E080E0109721F0BD01C7010E94A00BBE
:1017D000A1960FB6F894DEBF0FBECDBFDF91CF91BB
:1017E0001F910F91FF90EF90BF90AF909F908F90BF
:1017F0000895695CDECF0F931F93CF93DF93EC01C5
:101800000E94A00B8C016AE671E0CE010E94A00B41
:10181000800F911FDF91CF911F910F9108952F920B
:101820003F924F925F926F927F928F929F92AF9270
:10183000BF92CF92DF92EF92FF920F931F93CF93BD
:10184000DF93CDB7DEB729970FB6F894DEBF0FBE92
:10185000CDBF7C014B014F831C0124E1220E311CC2
:1018600044EF51E0B401C7010E9413028C01892B9F
:1018700009F433C1D4018C9182958F70BF818B178D
:1018800009F42BC1833009F01DC10330110540F369
:10189000F7018489807F803319F7C8010497B0E08D
:1018A000A0E0F0E0E0E080389105A105B10540F04E
:1018B00081159044A105B10508F0B0C0E1E0F0E069
:1018C0003F0124E0620E711CEE0DFF1DA688878982
:1018D000BA2CA82EC70184559F4F9E838D83D12C8F
:1018E000C12CD101A60DB71DB987A887ED81FE8156
:1018F00041905190FE83ED834114510409F491C04D
:10190000D2016D917C91FB0101900020E9F73197A4
:10191000E61BF70BAE16BF0609F083C0A50188854C
:1019200099850E94471F892B09F07BC0F20185A190
:10193000811102C021E025A393012A0D3B1DD7018F
:1019400054968C918670512C412C60E0823039F491
:10195000F701E20FF31F84894588582E62E0CC0C12
:10196000DD1CCE0CDF1CACEACA0ED11CD601ED91F9
:10197000FC913396DF0184E11D928A95E9F770E0CE
:101980000A191B09061B170B061917090531110542
:1019900010F003E110E0620F731F620D731DD6019A
:1019A0008D919C91A80103960E942E1FD601ED9166
:1019B000FC91108F078BF70184898670823091F437
:1019C000F0E4F9838A835B824C82D701ED91FC912C
:1019D0000284F385E02D44E050E0BE016F5F7F4F4D
:1019E000C7010995F601008111810115110509F45E
:1019F00037CFD8015996CD90DC905A97C114D104B5
:101A0000C9F0C80103960E941717BC01990F880BF3
:101A1000990BF6010995F80115A222CFE2E0F0E05A
:101A20004FCF8FEFC81AD80A95E0C916D10409F034
:101A30005DCF16CF5B968D919C915C97892B51F071
:101A4000C80103960E941317D8015B96ED91FC9193
:101A50000995E1CF5D96ED91FC915E97309739F055
:101A600057966D917C91C80103960995D4CF5F96E6
:101A7000ED91FC91909791968D919C919C01217094
:101A80003327309721F42115310509F4E9CE9595D6
:101A90008795D80193964D915C91840F951F232BC8
:101AA00041F0DC012D913C91E20FF31F0190F08198
:101AB000E02DD80157964D915C91B8016D5F7F4F35
:101AC0000995A9CF86E993E00E94C1036AE671E017
:101AD00080EC92E00E94A00BC3CEC80129960FB6FD
:101AE000F894DEBF0FBECDBFDF91CF911F910F9154
:101AF000FF90EF90DF90CF90BF90AF909F908F902E
:101B00007F906F905F904F903F902F9008950F932C
:101B10001F93CF93DF93EB0109900020E9F7219702
:101B2000C61BD70BFC01D083C1838C010E5F1F4FF6
:101B3000AE01C8010E945F1FC8018C0F9D1FDF917D
:101B4000CF911F910F9108954F925F926F927F9264
:101B50008F929F92AF92BF92CF92DF92EF92FF92BD
:101B60000F93CF93DF93EC016A0159017C0144E1AB
:101B7000E40EF11CFB0101900020E9F731979F0171
:101B8000261B370B011174C02E5F3F4FC501820F1A
:101B9000931F2C01712C612C50E040E0A0E84A1604
:101BA00051046104710450F042E050E04114B0E48B
:101BB0005B066104710410F441E050E00296840F6A
:101BC000951F8739910528F043E950E05A01A21A80
:101BD000B30A2A0D3B1D802F880F80638C8BCE01AA
:101BE0004596422F4F77220F232F221F330B31951B
:101BF0002115310509F04068FC014193CF01211501
:101C0000310579F70E94870D4C010023D9F0FE01C0
:101C1000E655FF4F8181D4018C93808111968C937E
:101C2000B2E08B0E911C40815181CA01019621E0E6
:101C300030E04F3F5F4F11F030E020E0820F931F04
:101C400091838083A501B601C4010E942E1FA401C7
:101C50004A0D5B1D4E195F09E881F9810284F38505
:101C6000E02DB701CE010995811105C080E023C0A8
:101C70002C5F3F4F8BCF0023F1F044E0B701CE0142
:101C80000E940F0C049791F78E899F8998278927C6
:101C9000982721E030E08F3F980711F030E020E0F6
:101CA0000196280F391FC655DF4F81E048815981C1
:101CB00024173507D9F6DF91CF910F91FF90EF9060
:101CC000DF90CF90BF90AF909F908F907F906F905C
:101CD0005F904F900895CF92DF92EF92FF920F9313
:101CE0001F93CF93DF93CDB7DEB7A9970FB6F894C4
:101CF000DEBF0FBECDBF6C01CB01BA019E012F5FCD
:101D00003F4F7901890122E040E00E94F516F7017A
:101D100001900020E9F731979F012E193F09F60144
:101D2000628173810481A701808191810E94A40D49
:101D3000A9960FB6F894DEBF0FBECDBFDF91CF914D
:101D40001F910F91FF90EF90DF90CF9008954F92E9
:101D50005F926F927F928F929F92AF92BF92CF923B
:101D6000DF92EF92FF920F931F93CF936B017C0151
:101D7000742EAC019B010E94F21D6DE671E0811191
:101D800026C046015701E894B7F82FEF3FEF4FE721
:101D90005FE7C501B4010E94F21D81110CC02FEF55
:101DA0003FEF4FE75FE7C501B4010E94261B61E7E3
:101DB00071E0181664F02FEF3FEF4FE75FE4C701C3
:101DC000B6010E94ED1D1816ACF465E771E080ECD9
:101DD00092E0CF911F910F91FF90EF90DF90CF9005
:101DE000BF90AF909F908F907F906F905F904F903B
:101DF0000C94A00B2FEF3FEF4FE75FECC701B6014C
:101E00000E94261B87FDE1CF20E030E0A901C70139
:101E1000B6010E94261B10E000E087FF0AC06DE2B9
:101E200080EC92E00E9474038C01F7FAF094F7F8CA
:101E3000F094C0E060E070E080E09FE37C1641F049
:101E400020E030E040E251E40E944C1DCF5FF6CF2D
:101E5000A70196010E94E01C2B013C010E94BE1DBF
:101E60004B015C012AE0BC01A40180EC92E00E94DD
:101E7000AF0B7C01E00EF11ECC23D1F1C501B40102
:101E80000E942B1B9B01AC01C301B2010E94DF1C0D
:101E90004B015C016EE280EC92E00E947403E80E5C
:101EA000F91EC15028F120E030E040E251E4C501C4
:101EB000B4010E948C1B2B013C010E94BE1D4B01F2
:101EC000B12CA12C2AE0B501A40180EC92E00E9483
:101ED000AF0BE80EF91EC501B4010E942B1B9B013C
:101EE000AC01C301B2010E94DF1C4B015C01D9CFE0
:101EF000C701CF911F910F91FF90EF90DF90CF908E
:101F0000BF90AF909F908F907F906F905F904F9019
:101F100008958F929F92AF92BF92CF92DF92EF92ED
:101F2000FF920F931F93CF93DF937C01EB016C0122
:101F300082E0C80ED11C4701E5E08E0E911C10E036
:101F400000E0F60141916F0150E070E060E02AE0AE
:101F5000CE010E94AF0B5C01E881F9810190F08114
:101F6000E02D6EE2CE0109958A0D9B1D080F191F09
:101F7000C814D90431F7F701458150E070E060E002
:101F80002AE0CE010E94AF0B800F911FDF91CF910D
:101F90001F910F91FF90EF90DF90CF90BF90AF9087
:101FA0009F908F900895CF92DF92EF92FF920F93C0
:101FB0001F93CF93DF93CDB7DEB728970FB6F89472
:101FC000DEBF0FBECDBF8C01F42EE52EE0E0F1E0C8
:101FD00090E080E0219131912F3F3F4F29F0019611
:101FE00084309105B9F78FEFD8011C968C938F3F01
:101FF00009F49EC0FB01428153816481758149834C
:102000005A836B837C8388871D828091B4028111FF
:1020100005C00E94690881E08093B4020E94D50641
:102020000E94650864E08DE20E941B0740E064E0C6
:10203000CE0101960E94670782E00E9404078E2D60
:102040000E9404078F2D0E94040740E061E0CE014A
:1020500008960E94670741E061E0CE0105960E9464
:1020600067070E94D5061F821E82AE014A5F5F4F3E
:10207000BE01695F7F4F8DE20E94CA070E9461081E
:10208000D8011C968C9190E0FC01EE0FFF1FE050F0
:10209000FF4F918380838FB7F894C090BC02D0909B
:1020A000BD02E090BE02F090BF028FBFD801ED915B
:1020B000FC910688F789E02DC801099581111BC0A4
:1020C0002FB7F8948091BC029091BD02A091BE02FE
:1020D000B091BF022FBF8C199D09AE09BF09803195
:1020E0009742A105B10538F461E070E080E090E02E
:1020F0000E94B404DBCFD801ED91FC910688F789EA
:10210000E02DC801099521E090E0811101C020E097
:10211000822F28960FB6F894DEBF0FBECDBFDF9199
:10212000CF911F910F91FF90EF90DF90CF90089586
:1021300069E771E080EC92E00E94FB0B80E090E0A8
:10214000E8CF0E94291F0F931F93CF93DF93EC01D9
:102150008C010C5E1F4F86E9D8011D928A95E9F724
:102160006A817B81C8010E94401FFE01EA54FF4F33
:10217000808191814C815D81DC01ED91FC91008831
:10218000F189E02DB801099521E0892B09F420E0BF
:10219000822FDF91CF911F910F9108953F924F921F
:1021A0005F926F927F928F929F92AF92BF92CF92E7
:1021B000DF92EF92FF920F931F93CF93DF93CDB7F0
:1021C000DEB72B970FB6F894DEBF0FBECDBF7C01F4
:1021D0008B016A018091BB02811105C00E946908D0
:1021E00081E08093BB020E94D5060E94650861E0F1
:1021F00084E30E941B07F80101900020E9F7319762
:10220000BF01601B710B41E0C8010E9467070E947B
:10221000D5061F821982AE014F5F5F4FBE01695F15
:102220007F4F84E30E94CA07182F0E946108111192
:102230001AC090E080E02B960FB6F894DEBF0FBE78
:10224000CDBFDF91CF911F910F91FF90EF90DF9065
:10225000CF90BF90AF909F908F907F906F905F9046
:102260004F903F9008950AE01FEF332433941B836F
:102270001C831D831E838091BB02811104C00E94B8
:1022800069083092BB020E94D5060E94650860E092
:1022900085E30E941B070E94D5061B86AE01455FA1
:1022A0005F4FBE01695F7F4F85E30E94CA07892B9C
:1022B00061F40E946108015009F4BBCF68EE73E03D
:1022C00080E090E00E94B404D2CF4F8058846984AB
:1022D0007A848B809C80AD80BE800E9461088414CB
:1022E0009504A604B70439F3D701ED91FC91068457
:1022F000F785E02D86E591E09A8389834B825C82A5
:102300006D827E82A601BE016F5F7F4FC701099576
:1023100092CF0C94A01E1F920F920FB60F92112411
:102320002F933F934F935F936F937F938F939F93DD
:10233000AF93BF93EF93FF9380EC92E00E94520320
:10234000FF91EF91BF91AF919F918F917F916F918D
:102350005F914F913F912F910F900FBE0F901F9063
:1023600018951F920F920FB60F9211242F938F93EF
:102370009F93EF93FF93E091D002F091D10280817F
:10238000E091D602F091D70282FD1BC0908180912E
:10239000D9028F5F8F732091DA02821741F0E091AA
:1023A000D902F0E0E054FD4F958F8093D902FF9160
:1023B000EF919F918F912F910F900FBE0F901F90D3
:1023C00018958081F4CF1F920F920FB60F921124AF
:1023D0002F933F938F939F93AF93BF938091BC02B2
:1023E0009091BD02A091BE02B091BF023091B602A1
:1023F00023E0230F2D3758F50196A11DB11D209321
:10240000B6028093BC029093BD02A093BE02B0932B
:10241000BF028091B7029091B802A091B902B09129
:10242000BA020196A11DB11D8093B7029093B80224
:10243000A093B902B093BA02BF91AF919F918F91CF
:102440003F912F910F900FBE0F901F90189526E887
:10245000230F0296A11DB11DD2CF0F931F93E0EC65
:10246000F2E01382128248EE53E060E070E04483B1
:1024700055836683778386E291E09183808385EC40
:1024800090E09587848784EC90E09787868780EC3E
:1024900090E0918B808B81EC90E0938B828B82EC2F
:1024A00090E0958B848B86EC90E0978B868B118ED9
:1024B000128E138E148EEDE5F3E086E591E09183A4
:1024C00080831282138214821582E3E6F3E0918303
:1024D00080831282138214821582E9E6F3E09183ED
:1024E00080831282138214821582EFE6F3E09183D7
:1024F00080831282138214821582E5E7F3E09183D0
:1025000080831282138214821582EBE7F3E09183B9
:1025100080831282138214821582EAE6F4E09183AA
:1025200080831282138214821582A7E5B4E084E0CE
:1025300015968C93159796E116969C931697EFEB4C
:10254000F3E0E4911796EC931797EBEAF3E0E4914C
:102550001896EC93189700E81EE320E030E01D96F3
:102560000D931D932D933C935097A8E4B4E01396DC
:102570001C921E92129714964D935D936D937C93CB
:10258000179728E331E011963C932E931C968C9379
:102590001C97E0E9F3E08DE891E0938382838BE57B
:1025A00097E0958384838CE691E0978386838DE919
:1025B00091E09187808787EA91E0938782871092E4
:1025C0003D0410923C0410923F0410923E0410927D
:1025D000410410924004109243041092420410925D
:1025E0004504109244041586148617861686108AB0
:1025F000118A81E090E090933B0480933A048CE24E
:1026000091E0938B828B8CE591E091838083B093F2
:102610004704A0934604ABE8B3E01196FC93EE9315
:1026200088EC91E013969C938E93129714961C92CB
:10263000A6E8B3E01196FC93EE9384EE91E0139636
:102640009C938E93129714961C92A1E8B3E0119676
:10265000FC93EE938DEF91E013969C938E931297DB
:1026600014961C921F910F910895CF93DF93CDB7CD
:10267000DEB72F970FB6F894DEBF0FBECDBF7894AC
:1026800084B5826084BD84B5816084BD85B5826077
:1026900085BD85B5816085BD80916E008160809328
:1026A0006E00109281008091810082608093810091
:1026B00080918100816080938100809180008160A1
:1026C000809380008091B10084608093B1008091FC
:1026D000B00081608093B00080917A008460809324
:1026E0007A0080917A00826080937A0080917A00EB
:1026F000816080937A0080917A00806880937A006C
:102700001092C100E091D002F091D10282E080836A
:10271000E091CC02F091CD021082E091CE02F091D6
:10272000CF0280E180831092D802E091D402F09130
:10273000D50286E08083E091D202F091D3028081BD
:1027400080618083E091D202F091D3028081886021
:102750008083E091D202F091D302808180688083EF
:10276000E091D202F091D30280818F7D808362E07C
:1027700080915C040E9453042FB7F8948091BC02AE
:102780009091BD02A091BE02B091BF022FBF805DAB
:102790009740A109B1098093600490936104A093CC
:1027A0006204B093630487E38093690462E172E09A
:1027B00080EC92E00E94A00B8091BB02811105C0C9
:1027C0000E94690881E08093BB020E94D5060E94A6
:1027D000650862E081E10E941B0740E065E085E258
:1027E00092E00E94670741E06AE08BE292E00E947B
:1027F00067070E94D5061D861982CE0101969F8724
:102800008E87AC01BE01635F7F4F81E10E94CA07E2
:10281000892B11F48FEF8D870E9461088D858F3F82
:1028200069F01AE068E873E180E090E00E94B40487
:102830000E94B6088D7F11F41150A1F70E94B608CE
:10284000833069F066E372E080EC92E00E94A00BB6
:1028500064EF71E080E090E00E94B404EFCF6BE39E
:1028600072E080EC92E00E94FB0BE6E42E2EE4E0A6
:102870003E2E80E993E00E94A60681112BC16CE4F4
:1028800072E080EC92E00E94A00B50E1F52E64E033
:10289000E62E72E8D72E80E993E00E94A3108823E9
:1028A00009F42CC1F092A40363E672E086EA93E097
:1028B0000E94870DDC01EC9282E011968C931197B7
:1028C000E0919C03F0919D033097D9F0E491EE23C1
:1028D000C1F086E011968C9311978091A00381300E
:1028E00009F0DEC08EE011968C9311978091A103C0
:1028F000813039F411968C911197806211968C93E6
:102900001197E0919803F0919903E491EE2339F047
:1029100011968C911197806811968C931197E09184
:102920009A03F0919B03E491EE2339F011968C9178
:102930001197806411968C9311978091A30312963E
:102940008C9312978091A20313968C9313976091A6
:10295000960370919703FB018491882309F4A5C025
:10296000CD0104960E94870D60919C0370919D0398
:102970006115710561F0FB012491222341F00E9451
:10298000870D60919E0370919F030E94870D609157
:10299000980370919903FB01249121110E94870DE6
:1029A00060919A0370919B03FB01249121110E9475
:1029B000870D845A93402EEF280F2093A503AC0176
:1029C000552764EA73E080E993E00E94F5058823C7
:1029D00009F494C040E757E164EA73E080E993E0CA
:1029E0000E941302843009F089C08091A4038032D0
:1029F00009F084C08091A503823009F07FC0E09186
:102A0000A703E1117CC00CE314E0D8018D919C91E7
:102A1000892B09F453C043E0C42ED801ED91FC91F9
:102A2000728060817181D092A40380913A04909168
:102A30003B049093A6038093A70321E030E08F3FEF
:102A4000980711F030E020E00196820F931F9093D9
:102A50003B0480933A0488EA93E00E94870DFC01CE
:102A60007192CF01845A93402EEF280F2093A50333
:102A7000AC01552764EA73E080E993E00E94F50514
:102A80008823E1F149E064EA73E080E993E00E9481
:102A90000F0C892B99F4CA94C110BFCFEEEF2FC051
:102AA000823009F023CF8EE11ECF14961C9214972A
:102AB00015961C921597CD01069656CF0E5F1F4FA7
:102AC0002016310609F0A1CF61E872E080EC92E0B7
:102AD0000E94FB0B0E94E604882349F080915D046C
:102AE0008C3009F496C0E8F58B3009F453C0C12C42
:102AF000D12C90ECE92E9FE7F92E76C0EFEFEE5F38
:102B00008EE793E0EA3038F4F0E0EE0FFF1FE25F6B
:102B1000FE4F808191810E94C1036AE671E080ECE2
:102B200092E00E94A00B68E672E080EC92E00E94C6
:102B3000FB0B80EE8093A4031092A50342E050E0CB
:102B400064EA73E080E993E00E94F50580E993E090
:102B50000E94B80668E873E180E090E00E94B40447
:102B60009ACE8551823018F610915904612F70E089
:102B7000762F662766277F7780915A04682B90E02E
:102B800080E00E942B1B2DEC3CEC4CEC5DE30E94A2
:102B90008C1B5BC06091590470E090E080E00E9463
:102BA0002B1B6B017C0110915A0417FF0AC0AC016A
:102BB0009B0160E070E080E89FEB0E94DF1C6B01EE
:102BC0007C011F70612F70E090E080E00E942D1B5F
:102BD0002DEC3CEC4CEC5DE30E948C1BA7019601B4
:102BE0000E94E01C6B017C010E94E604882351F0E6
:102BF00080915D048B3030F08D3080F185518230D2
:102C000008F4E1C0412C512C80EC682E8FE7782E1F
:102C100043C010915904612F70E090E080E00E9461
:102C20002B1B6B017C0160915A046F7070E090E087
:102C300080E00E942D1B2DEC3CEC4CEC5DE30E94EF
:102C40008C1BA70196010E94E01C6B017C0117FF01
:102C5000CBCFF7FAF094F7F8F094C6CF6091580410
:102C600070E090E080E00E942D1B2DEC3CEC4CECE1
:102C70005DE30E948C1B2B013C016091570470E0C6
:102C800090E080E00E942D1B9B01AC01C301B201CA
:102C90000E94E01C2B013C0184E480937C00809125
:102CA0007A00806480937A0080917A0086FDFCCF60
:102CB00080917800A0917900BA2FA82F24E630E007
:102CC0000E94F71D2FEF3FE040E050E00E944D1CB6
:102CD00049015A0161E972E080EC92E00E94A00B88
:102CE00042E0C701B6010E94A70E68E972E080ECDD
:102CF00092E00E94A00B42E0C301B2010E94A70E25
:102D000068EA72E080EC92E00E94A00B2AE0B50134
:102D1000A401B7FE0DC06DE280EC92E00E94740346
:102D200044275527BA01481959096A097B092AE03D
:102D300080EC92E00E94AF0B62EB72E080EC92E0DC
:102D40000E94FB0BB701A6018BE893E00E946B0E7B
:102D5000B301A20186E893E00E946B0E2AE0AE0167
:102D60004F5F5F4FC501B4010E943517EE85FF85A7
:102D700001900020E9F731979F018E859F85281BE0
:102D8000390B609183037091840300918503AE0138
:102D90004F5F5F4F80918103909182030E94A40D49
:102DA00068EE73E080E090E00E94B40480E090E080
:102DB000892B09F45ECD0E943E03882309F455CD8A
:102DC0000E94000052CD60915704709158047627FC
:102DD0006727762790E080E00E942B1B2DEC3CECCF
:102DE0004CEC5DE30E948C1B55CFEF920F931F9329
:102DF000CF93DF93E80134E047FD34E1042E000C6B
:102E0000550B57FF03C0519541955109E32E022FF1
:102E1000242FAE010E946E17CE01DF91CF911F913A
:102E20000F91EF900895662777270C94CD18FC0139
:102E300088279927E89421912032E9F3293010F06E
:102E40002E30C8F32B3241F02D3239F4689404C08F
:102E50000E944417820F911D219120532A30C0F304
:102E60001EF4909581959F4F0895BB272A3051F409
:102E7000992342F4BDE290958095709561957F4FBE
:102E80008F4F9F4F0C944D177AE0979F902D879FFF
:102E9000802D910D11240895BB27FA01A62F6217EA
:102EA000710581059105330B30FB66F0AA27660F8B
:102EB000771F881F991FAA1FA21710F0A21B6395E6
:102EC0003850A9F7A05DAA3308F0A95DA19336F7A1
:102ED000B111B1931082CA010C94161BA9E0B0E0A5
:102EE000E4E7F7E10C947D1C6A01F22EB02E102F5E
:102EF000FBE3AF2EA01608F41BE31F5F012F27E0B2
:102F0000AE014F5F5F4F0E941D1ABC018981982F4F
:102F10009970913009F43FC09BE2E1FC04C09E2D02
:102F20009170E0FC3AC05E2D5071E82FE87083FF8D
:102F300046C084E0911101C083E0EF2DE81B8F159E
:102F400008F0E0E0D6018E2F20E2552351F19923BD
:102F500029F0D6019C93C60101966C0196012D5F64
:102F60003F4FE2FE24C08EE4D6018C9391E411968B
:102F70009C93119712968C93D9018E2F90E2811118
:102F80001BC0E20FF32FF11D10828EEF9FEF2996E9
:102F9000ECE00C94991C9DE2C6CF90E2C4CF2D9337
:102FA00081508111FCCFCE0ED11CE0E0D0CF8EE657
:102FB000D6018C9391E6DBCF9D938150E0CF482FD3
:102FC000447082FF3DC084E0911101C083E08F1501
:102FD00010F4EF2DE81BD6018E2F20E2552309F1C6
:102FE000992329F0D6019C93C60101966C019601A4
:102FF0002D5F3F4FE2FE1BC089E4D6018C938EE427
:1030000011968C93119786E412968C93D9018E2F8A
:1030100090E2882309F4B5CF9D938150FACF2D9388
:1030200081508111FCCFCE0ED11CE0E0D9CF89E6D2
:10303000D6018C938EE611968C93119786E6E4CF99
:103040009B0177FF02C030E020E0A1E0B0E09111E9
:1030500002C0B0E0A0E0F9013196AE0FBF1F8B2C8B
:10306000912CBB2009F461C05401EFEFAE1ABE0AE7
:10307000AA0DBB1DFA161B0619F014F04F2D4A1BA2
:10308000511188C0E3FC59C07601A42FB0E2A11110
:103090004FC0C40ED11C992309F45BC040E0D60197
:1030A0001196F60190836D01552309F448C0012F54
:1030B000060F9A81582F507184FF03C0913309F491
:1030C000015010160CF047C0093008F008E0EEE29D
:1030D000FE2E5B01A01AB10885019194819491089C
:1030E0002F3F320729F4D601FC92F60131966F0189
:1030F0006217730794F1021713077CF5DB01A21B1B
:10310000B30BAA24A394B12CAC0EBD1EAA0DBB1DFB
:1031100011968C9121503109D60111962815390547
:10312000F4F0F60180836D01DBCFB12CA12CA0CF90
:10313000F701B1937F01A150AACF9111B0CFD60171
:10314000942F50E302C05D9391509111FCCFC40EB7
:10315000D11C40E0ACCF01E0BACF80E3DBCF6217F7
:10316000730731F4963388F4953311F4552369F0DD
:10317000F6018083FD01842F90E2811108C0A40F25
:10318000B11D1C9290E080E002CF81E3F1CF9193DA
:103190008150F3CF911183CF8ACFB0E0A0E0E3ED6F
:1031A000F8E10C947D1C5C017B016115710519F03F
:1031B000DB018D939C9385010F5F1F4FF501D0813B
:1031C0008D2F90E00E94F51A6C01892BB9F5DD3244
:1031D000B9F50F5F1F4FD5011196DC91C1E0580181
:1031E000F1E0AF1AB10843E050E060E770E0C501DC
:1031F0000E94FE1A892B69F5680182E0C80ED11C75
:1032000045E050E06BE670E0C6010E94FE1A892B93
:1032100021F4680197E0C90ED11CE114F10419F002
:10322000D701CD92DC9260E070E080E89FEFC111A1
:10323000FFC060E070E080E89FE7FAC05801BBCFB4
:10324000DB3229F485010E5F1F4FF501D181C0E00B
:10325000C6CF43E050E068E670E0C5010E94FE1A68
:10326000892BE9F0F80110E000E020E030E0A9014E
:103270005F01B0ED8B2E8D0E89E08815C8F19C2E74
:10328000689491F88C2F8870C2FF16C0811102C01B
:103290000F5F1F4F3196D501DC91C92DE9CFE114A5
:1032A000F10429F00E5F1F4FF7011183008360E0E6
:1032B00070E080EC9FE7BCC0882311F00150110939
:1032C000A5E0B0E00E946C1C9B01AC01220F331FF3
:1032D000441F551F280D311D411D511D283999E9E5
:1032E0003907490799E15907A8F2C6609C2ED2CF49
:1032F000AEEF8A1206C0C3FD3CC09C2E689493F8C2
:10330000C9CFDF7DD534A9F580818D3239F4C06114
:10331000DF011296818162E070E006C0DF018B322E
:10332000C1F3119661E070E080535D01A61AB70AFF
:103330008A30F8F4E0E8CE16ECE0DE065CF4B60184
:10334000660F771F660F771FC60ED71ECC0CDD1CCD
:10335000C80ED11C5D01FFEFAF1ABF0A8C918053DC
:103360008A30A8F1C4FF03C0D194C194D1080C0DD8
:103370001D1DC1FF09C0E114F10431F081E0A81A5C
:10338000B108D701AD92BC92CA01B9010E942B1BB2
:10339000C370C33009F490584B015C0120E030E069
:1033A000A9010E94261B882309F440C0CFE9D0E080
:1033B00017FF05C0119501951109C7E8D0E06E010E
:1033C000B8E1CB1AD10880E2E82EF12C0FC0D5016C
:1033D000B1CFFE0125913591459154910E191F09E8
:1033E000C501B4010E948C1B4B015C01D501C401D5
:1033F0000E151F0574F72497F594E794CC16DD0697
:10340000A9F78A2F880F8B2F881F8F3F49F020E064
:1034100030E0A901C501B4010E94261B811106C03C
:1034200082E290E09093710480937004C501B4012E
:10343000CDB7DEB7ECE00C94991C283008F027E0FB
:103440003327DA01990F311D87FD916000966105E0
:10345000710539F432602E5F3D9330E32A95E1F730
:1034600008959F3F30F080387105610509F03C5F99
:103470003C5F3D93913008F08068911DDF93CF93BE
:103480001F930F93FF92EF92192F987F9695E92F34
:1034900096959695E90FFF27E350FF4F992733271D
:1034A000EE24FF24A701E70105900894079428F46F
:1034B000360FE71EF81E491F511D660F771F881F24
:1034C000991F0694A1F70590079428F4E70EF81EBB
:1034D000491F561FC11D770F881F991F661F06942D
:1034E000A1F70590079428F4F80E491F561FC71F2F
:1034F000D11D880F991F661F771F0694A1F70590AD
:10350000079420F4490F561FC71FD81F990F661F35
:10351000771F881F0694A9F784911095177041F0C2
:10352000D695C79557954795F794E7941A95C1F79F
:10353000E3EAF0E0689415901591359165919591C5
:1035400005907FE27395E118F10A430B560BC90B06
:10355000D009C0F7E10CF11E431F561FC91FD01D33
:103560007EF4703311F48A95E6CFE894015030F080
:10357000080F0AF40027021708F4202F2395022FC2
:103580007A3328F079E37D932A95E9F710C07D938B
:103590002A9589F606949795679537951795179408
:1035A000E118F10A430B560BC90BD00998F023958B
:1035B0007E9173957A3308F070E37C932013B8F70B
:1035C0007E9170617D9330F0839571E37D9370E31C
:1035D0002A95E1F71124EF90FF900F911F91CF9161
:1035E000DF91992787FD9095089591110C94F91B0F
:1035F000803219F089508550C8F70895FB01DC012D
:103600004150504088F08D9181341CF08B350CF482
:10361000805E659161341CF06B350CF4605E861B36
:10362000611171F3990B0895881BFCCFDC01FC013B
:10363000672F71917723E1F7329704C07C916D93E6
:1036400070836291AE17BF07C8F308950E94681B8C
:1036500008F481E00895E89409C097FB3EF4909542
:103660008095709561957F4F8F4F9F4F9923A9F05B
:10367000F92F96E9BB279395F695879577956795EA
:10368000B795F111F8CFFAF4BB0F11F460FF1BC02E
:103690006F5F7F4F8F4F9F4F16C0882311F096E9C1
:1036A00011C0772321F09EE8872F762F05C066236F
:1036B00071F096E8862F70E060E02AF09A95660F28
:1036C000771F881FDAF7880F9695879597F90895E1
:1036D000990F0008550FAA0BE0E8FEEF1616170623
:1036E000E807F907C0F012161306E407F50798F08B
:1036F000621B730B840B950B39F40A2661F0232BA4
:10370000242B252B21F408950A2609F4A140A6951F
:103710008FEF811D811D08950E949F1B0C94131C27
:103720000E94051C38F00E940C1C20F0952311F01B
:103730000C94FC1B0C94021C11240C94471C0E943A
:10374000241C70F3959FC1F3950F50E0551F629FA5
:10375000F001729FBB27F00DB11D639FAA27F00DEA
:10376000B11DAA1F649F6627B00DA11D661F829F11
:103770002227B00DA11D621F739FB00DA11D621FF6
:10378000839FA00D611D221F749F3327A00D611D13
:10379000231F849F600D211D822F762F6A2F1124F5
:1037A0009F5750409AF0F1F088234AF0EE0FFF1F28
:1037B000BB1F661F771F881F91505040A9F79E3F7F
:1037C000510580F00C94FC1B0C94471C5F3FE4F304
:1037D000983ED4F3869577956795B795F795E795D5
:1037E0009F5FC1F7FE2B880F911D9695879597F9DE
:1037F000089599278827089597F99F6780E870E0D2
:1038000060E008959FEF80EC089500240A94161656
:10381000170618060906089500240A9412161306BE
:10382000140605060895092E0394000C11F488234C
:1038300052F0BB0F40F4BF2B11F460FF04C06F5F68
:103840007F4F8F4F9F4F089557FD9058440F551F3E
:1038500059F05F3F71F04795880F97FB991F61F012
:103860009F3F79F087950895121613061406551F89
:10387000F2CF4695F1DF08C0161617061806991FF5
:10388000F1CF86957105610508940895E894BB27EA
:1038900066277727CB0197F90895052E97FB1EF42D
:1038A00000940E94641C57FD07D00E94AE1C07FCC8
:1038B00003D04EF40C94641C50954095309521959E
:1038C0003F4F4F4F5F4F089590958095709561954C
:1038D0007F4F8F4F9F4F08950E94D01CA59F900D42
:1038E000B49F900DA49F800D911D112408952F92D7
:1038F0003F924F925F926F927F928F929F92AF9280
:10390000BF92CF92DF92EF92FF920F931F93CF93CC
:10391000DF93CDB7DEB7CA1BDB0B0FB6F894DEBF63
:103920000FBECDBF09942A88398848885F846E8489
:103930007D848C849B84AA84B984C884DF80EE80D3
:10394000FD800C811B81AA81B981CE0FD11D0FB6DC
:10395000F894DEBF0FBECDBFED010895A1E21A2E8F
:10396000AA1BBB1BFD010DC0AA1FBB1FEE1FFF1F23
:10397000A217B307E407F50720F0A21BB30BE40B73
:10398000F50B661F771F881F991F1A9469F76095BA
:103990007095809590959B01AC01BD01CF01089574
:1039A000A29FB001B39FC001A39F700D811D112480
:1039B000911DB29F700D811D1124911D08955058C5
:1039C000BB27AA270E94F71C0C94131C0E94051CFD
:1039D00038F00E940C1C20F039F49F3F19F426F4B3
:1039E0000C94021C0EF4E095E7FB0C94FC1BE92FF1
:1039F0000E94241C58F3BA176207730784079507BF
:103A000020F079F4A6F50C94461C0EF4E0950B2EEC
:103A1000BA2FA02D0B01B90190010C01CA01A00120
:103A20001124FF27591B99F0593F50F4503E68F17B
:103A30001A16F040A22F232F342F4427585FF3CFBC
:103A4000469537952795A795F0405395C9F77EF48D
:103A50001F16BA0B620B730B840BBAF09150A1F0D6
:103A6000FF0FBB1F661F771F881FC2F70EC0BA0F5C
:103A7000621F731F841F48F4879577956795B795E4
:103A8000F7959E3F08F0B0CF9395880F08F09927DF
:103A9000EE0F9795879508950E94601D0C94131C56
:103AA0000E940C1C58F00E94051C40F029F45F3F56
:103AB00029F00C94FC1B51110C94471C0C94021C13
:103AC0000E94241C68F39923B1F3552391F3951BAD
:103AD000550BBB27AA2762177307840738F09F5F2F
:103AE0005F4F220F331F441FAA1FA9F335D00E2E9C
:103AF0003AF0E0E832D091505040E695001CCAF709
:103B00002BD0FE2F29D0660F771F881FBB1F2617CB
:103B100037074807AB07B0E809F0BB0B802DBF01A2
:103B2000FF2793585F4F3AF09E3F510578F00C9471
:103B3000FC1B0C94471C5F3FE4F3983ED4F386953E
:103B400077956795B795F7959F5FC9F7880F911D92
:103B50009695879597F90895E1E0660F771F881F7E
:103B6000BB1F621773078407BA0720F0621B730B31
:103B7000840BBA0BEE1F88F7E09508950E942C1C69
:103B800088F09F5798F0B92F9927B751B0F0E1F01E
:103B9000660F771F881F991F1AF0BA95C9F714C0CE
:103BA000B13091F00E94461CB1E008950C94461C7F
:103BB000672F782F8827B85F39F0B93FCCF3869507
:103BC00077956795B395D9F73EF490958095709564
:103BD00061957F4F8F4F9F4F08950E94681B08F497
:103BE0008FEF08950E94681B880B990B08950E941F
:103BF000D01CB7FF0895821B930B0895EE0FFF1F93
:103C00000590F491E02D09940F931F93CF93DF93C8
:103C10008230910510F482E090E0E0917404F0911C
:103C2000750430E020E0B0E0A0E0309799F4211571
:103C3000310509F44AC0281B390B24303105D8F569
:103C40008A819B816115710589F1FB0193838283D0
:103C5000FE0111C04081518102811381481759072B
:103C6000E0F04817590799F4109761F012960C93F9
:103C7000129713961C933296CF01DF91CF911F912B
:103C80000F9108950093740410937504F4CF2115D7
:103C9000310551F04217530738F0A901DB019A01B1
:103CA000BD01DF01F801C1CFEF01F9CF9093750499
:103CB00080937404CDCFFE01E20FF31F81939193A3
:103CC0002250310939832883D7CF20917204309153
:103CD0007304232B41F420910A0130910B0130939E
:103CE0007304209372042091080130910901211579
:103CF000310541F42DB73EB740910C0150910D01B3
:103D0000241B350BE0917204F0917304E217F30762
:103D1000A0F42E1B3F0B2817390778F0AC014E5F3B
:103D20005F4F2417350748F04E0F5F1F5093730401
:103D300040937204819391939FCFF0E0E0E09CCF99
:103D4000CF93DF930097E9F0FC0132971382128240
:103D5000A0917404B0917504ED0130E020E010975B
:103D6000A1F420813181820F931F20917204309140
:103D700073042817390709F061C0F0937304E093C6
:103D80007204DF91CF910895EA01CE17DF07E8F5BD
:103D90004A815B819E0141155105B1F7E901FB8321
:103DA000EA8349915991C40FD51FEC17FD0761F4BF
:103DB000808191810296840F951FE9019983888300
:103DC000828193819B838A83F0E0E0E012968D915B
:103DD0009C9113970097B9F52D913C911197CD01C6
:103DE0000296820F931F209172043091730428175A
:103DF000390739F6309751F5109275041092740412
:103E0000B0937304A0937204BCCFD383C283408168
:103E10005181840F951FC817D90761F44E5F5F4F1A
:103E200088819981480F591F518340838A819B81E2
:103E3000938382832115310509F0B0CFF093750487
:103E4000E09374049ECFFD01DC01C0CF1382128287
:103E5000D7CF81E090E0F8940C94771F681779072A
:103E600068F4FB01DC01E40FF51FA40FB51F02C0CD
:103E700002900E9241505040D8F708950C946E1F56
:103E8000FB01DC0101900D920020E1F70895FB0198
:103E9000DC014150504088F08D9181341CF08B350D
:103EA0000CF4805E619161341CF06B350CF4605E43
:103EB000861B611171F3990B0895881BFCCFFB01E0
:103EC000DC014150504048F001900D920020C9F7AC
:103ED00001C01D9241505040E0F70895FB01DC0104
:103EE00002C001900D9241505040D8F70895F894C7
:023EF000FFCF02
:103EF200FFFFFFFFFFFFFFFF000076048000420389
:103F020030037E03EB02A60286025302390202024A
:103F12009D01000000007403D4020103DC0332039C
:103F22001003240300000000860BE00A9C0BE90941
:103F3200A20A7E0AEA09D30FCE100E0A82096E097E
:103F4200660900000000890F000000009F0B891124
:103F5200A606A310B806F5053E060D0A006E616EB0
:103F620000696E66006F7666004E6F20536F636B5A
:103F7200657420617661696C61626C6500696F2E9F
:103F820061646166727569742E636F6D0050726947
:103F92006E78653232320061696F5F645046613912
:103FA200314F7044476A3067636732687143423702
:103FB20061524F70384E71005072696E78653232BC
:103FC200322F66656564732F74656D7065726174F6
:103FD200757265005072696E78653232322F66658D
:103FE2006564732F68756D696469747900507269CC
:103FF2006E78653232322F66656564732F736F692E
:104002006C00436F6E6E656374696E6720746F2017
:10401200576946690045644E657400487561776565
:1040220069403132330054727921000A5769466976
:1040320020636F6E6E65637465642100436F6E6EFC
:10404200656374696E6720746F204D5154542E2E2F
:104052002E20004D515454005265747279696E6776
:1040620020696E2035207365636F6E64732E2E2E69
:10407200004D51545420436F6E6E65637465642124
:104082000054656D703A2000C2B043202048756D1F
:1040920069646974793A2000252020536F696C3A6B
:0440A20020002500D5
:107E0000112484B714BE81FFF0D085E080938100F7
:107E100082E08093C00088E18093C10086E0809377
:107E2000C20080E18093C4008EE0C9D0259A86E02C
:107E300020E33CEF91E0309385002093840096BBD3
:107E4000B09BFECF1D9AA8958150A9F7CC24DD24C4
:107E500088248394B5E0AB2EA1E19A2EF3E0BF2EE7
:107E6000A2D0813461F49FD0082FAFD0023811F036
:107E7000013811F484E001C083E08DD089C08234E0
:107E800011F484E103C0853419F485E0A6D080C0E4
:107E9000853579F488D0E82EFF2485D0082F10E0AE
:107EA000102F00270E291F29000F111F8ED06801E7
:107EB0006FC0863521F484E090D080E0DECF843638
:107EC00009F040C070D06FD0082F6DD080E0C81688
:107ED00080E7D80618F4F601B7BEE895C0E0D1E017
:107EE00062D089930C17E1F7F0E0CF16F0E7DF06D8
:107EF00018F0F601B7BEE89568D007B600FCFDCFD4
:107F0000A601A0E0B1E02C9130E011968C91119780
:107F100090E0982F8827822B932B1296FA010C0160
:107F200087BEE89511244E5F5F4FF1E0A038BF0790
:107F300051F7F601A7BEE89507B600FCFDCF97BE46
:107F4000E89526C08437B1F42ED02DD0F82E2BD052
:107F50003CD0F601EF2C8F010F5F1F4F84911BD097
:107F6000EA94F801C1F70894C11CD11CFA94CF0C13
:107F7000D11C0EC0853739F428D08EE10CD085E9AC
:107F80000AD08FE07ACF813511F488E018D01DD067
:107F900080E101D065CF982F8091C00085FFFCCF94
:107FA0009093C60008958091C00087FFFCCF809118
:107FB000C00084FD01C0A8958091C6000895E0E648
:107FC000F0E098E1908380830895EDDF803219F02E
:107FD00088E0F5DFFFCF84E1DECF1F93182FE3DFCA
:107FE0001150E9F7F2DF1F91089580E0E8DFEE27F6
:047FF000FF270994CA
:027FFE00040479
:0400000300007E007B
:00000001FF
