:100000000C945C000C9479000C9479000C947900A9
:100010000C9479000C9479000C9479000C9479007C
:100020000C9479000C9479000C9479000C9479006C
:100030000C9479000C9479000C9479000C9479005C
:100040000C94A0000C9479000C9479000C94790025
:100050000C9479000C9479000C9479000C9479003C
:100060000C9479000C947900000000002400270013
:100070002A0000000000250028002B0004040404CE
:100080000404040402020202020203030303030342
:10009000010204081020408001020408102001021F
:1000A00004081020000000080002010000030407FB
:1000B000000000000000000011241FBECFEFD8E0B8
:1000C000DEBFCDBF11E0A0E0B1E0E6EEF3E002C09C
:1000D00005900D92A831B107D9F721E0A8E1B1E070
:1000E00001C01D92A132B207E1F70E94EA000C9410
:1000F000F1010C9400003FB7F89480911D0190919C
:100100001E01A0911F01B091200126B5A89B05C03A
:100110002F3F19F00196A11DB11D3FBFBA2FA92F86
:10012000982F8827BC01CD01620F711D811D911D83
:1001300042E0660F771F881F991F4A95D1F70895EF
:100140001F920F920FB60F9211242F933F938F930C
:100150009F93AF93BF938091190190911A01A09141
:100160001B01B0911C013091180123E0230F2D37A2
:1001700058F50196A11DB11D209318018093190116
:1001800090931A01A0931B01B0931C0180911D0153
:1001900090911E01A0911F01B09120010196A11D17
:1001A000B11D80931D0190931E01A0931F01B09378
:1001B0002001BF91AF919F918F913F912F910F900F
:1001C0000FBE0F901F90189526E8230F0296A11DD1
:1001D000B11DD2CF789484B5826084BD84B581602E
:1001E00084BD85B5826085BD85B5816085BD809102
:1001F0006E00816080936E0010928100809181007A
:100200008260809381008091810081608093810071
:10021000809180008160809380008091B100846033
:100220008093B1008091B00081608093B000809194
:100230007A00846080937A0080917A008260809353
:100240007A0080917A00816080937A0080917A00B0
:10025000806880937A001092C1002EE031E0A0E027
:10026000B1E08D919D919927FC01E057FF4F44919A
:1002700084589F4FFC018491882399F090E0880F67
:10028000991FFC01E859FF4FC591D491FC01EE582C
:10029000FF4F859194918FB7F894E881E42BE88320
:1002A0008FBF2A173B07E9F608E111E020E0E22EB4
:1002B00020E0F22ECEE0D1E0A0E0B1E026E030E098
:1002C0008D919D919927FC01EC55FF4F5491FC01B4
:1002D000E057FF4F4491FC01E458FF4FE491EE23B7
:1002E00031F18881552359F0533009F460C008F08A
:1002F00053C0513009F461C0523009F462C0F0E0DB
:10030000EE0FFF1FEE58FF4F659174915FB7F894A1
:1003100090E0022E02C0959587950A94E2F7FB01C2
:1003200080FD5CC080814095482340835FBF2150A1
:10033000310908F0C5CF0E947B002B013C0188EEFB
:10034000882E83E0982EA12CB12C0E947B0064198A
:10035000750986099709683E734081059105A8F3E0
:1003600021E0821A9108A108B10888EE480E83E0C6
:10037000581E611C711C81149104A104B10429F759
:1003800021960C171D0709F097CFE114F10409F429
:1003900091CF0E9400008ECF5730B1F05830D1F08D
:1003A000543009F0ACCF909180009F7D03C09091B4
:1003B00080009F7790938000A2CF94B59F7794BDE3
:1003C0009ECF94B59F7DFBCF9091B0009F77909387
:1003D000B00095CF9091B0009F7DF9CF8081482BE0
:0603E000A4CFF894FFCF4A
:1003E60002000300040005000600070008007E3036
:0803F6006D79335B5F707F7BC2
:00000001FF
