:020000040000FA
:100000000C9462000C948A000C948A000C948A0070
:100010000C948A000C948A000C948A000C948A0038
:100020000C948A000C948A000C948A000C948A0028
:100030000C948A000C948A000C948A000C948A0018
:100040000C9469050C948A000C94D9050C94B305A2
:100050000C948A000C948A000C948A000C948A00F8
:100060000C940B060C948A0000000000230026006C
:10007000290000000000240027002A0000000000E2
:10008000250028002B0004040404040404040202D4
:100090000202020203030303030301020408102007
:1000A0004080010204081020010204081020000012
:1000B0000008000201000003040700000000000027
:1000C00000002A0711241FBECFEFD8E0DEBFCDBF4E
:1000D00011E0A0E0B1E0E8E1F3E102C005900D928B
:1000E000AC3AB107D9F723E0ACEAB1E001C01D9208
:1000F000A632B207E1F710E0C2E6D0E004C02197D3
:10010000FE010E948409C136D107C9F70E94720717
:100110000C948A090C940000833081F028F481301B
:1001200099F08230A9F008958730A9F08830C9F09D
:100130008430B1F4809180008F7D03C08091800075
:100140008F7780938000089584B58F7784BD08955C
:1001500084B58F7DFBCF8091B0008F778093B00006
:1001600008958091B0008F7DF9CF1F93CF93DF93D7
:10017000282F30E0F901E255FF4F8491F901E6564E
:10018000FF4FD491F901EA57FF4FC491CC23A9F056
:10019000162F81110E948C00EC2FF0E0EE0FFF1F54
:1001A000E458FF4FA591B4918FB7F894EC911111D9
:1001B00008C0D095DE23DC938FBFDF91CF911F91D4
:1001C0000895DE2BF8CFCF93DF9390E0FC01E65645
:1001D000FF4F24918A579F4FFC0184918823D1F0CF
:1001E00090E0880F991FFC01EE58FF4FA591B49144
:1001F000FC01E458FF4FC591D49161110EC09FB727
:10020000F8948C91E22FE0958E238C932881E22341
:10021000E8839FBFDF91CF9108958FB7F894EC9159
:10022000E22BEC938FBFF6CF3FB7F89480916D022D
:1002300090916E02A0916F02B091700226B5A89BBA
:1002400005C02F3F19F00196A11DB11D3FBFBA2F68
:10025000A92F982F8827BC01CD01620F711D811D28
:10026000911D42E0660F771F881F991F4A95D1F7AD
:1002700008958F929F92AF92BF92CF92DF92EF92AA
:10028000FF924B015C010E9414016B017C010E94F2
:1002900014016C197D098E099F09683E7340810520
:1002A0009105A8F321E0821A9108A108B10888EE0F
:1002B000C80E83E0D81EE11CF11C81149104A10436
:1002C000B10429F7FF90EF90DF90CF90BF90AF90EF
:1002D0009F908F90089508950895AF92BF92CF9206
:1002E000DF92EF92FF920F931F93CF93DF936C01F6
:1002F0007B018B01040F151FEB015E01AE18BF08D7
:10030000C017D10759F06991D601ED91FC91019088
:10031000F081E02DC6010995892B79F7C501DF91A0
:10032000CF911F910F91FF90EF90DF90CF90BF90F2
:10033000AF900895FC01538D448D252F30E0842F1C
:1003400090E0821B930B541710F0CF9608950197FD
:100350000895FC01918D828D981761F0A28DAE0FEA
:10036000BF2FB11D5D968C91928D9F5F9F73928F71
:1003700090E008958FEF9FEF0895FC01918D828D9D
:10038000981731F0828DE80FF11D858D90E008956A
:100390008FEF9FEF0895FC01918D228D892F90E0C2
:1003A000805C9F4F821B91098F739927089581E785
:1003B00092E00E94CB0121E0892B09F420E0822FFA
:1003C000089580E090E0892B29F00E94D7018111E7
:1003D0000C9400000895FC01A48DA80FB92FB11D45
:1003E000A35ABF4F2C91848D90E001968F7399276B
:1003F000848FA689B7892C93A089B1898C91837049
:1004000080648C93938D848D981306C00288F38941
:10041000E02D80818F7D80830895EF92FF920F936E
:100420001F93CF93DF93EC0181E0888F9B8D8C8DA0
:1004300098131AC0E889F989808185FF15C09FB794
:10044000F894EE89FF896083E889F9898081837057
:10045000806480839FBF81E090E0DF91CF911F9106
:100460000F91FF90EF900895F62E0B8D10E00F5F27
:100470001F4F0F731127E02E8C8D8E110CC00FB6FD
:1004800007FCFACFE889F989808185FFF5CFCE0195
:100490000E94EB01F1CFEB8DEC0FFD2FF11DE35A24
:1004A000FF4FF0829FB7F8940B8FEA89FB89808118
:1004B0008062CFCFCF93DF93EC01888D8823B9F092
:1004C000AA89BB89E889F9898C9185FD03C080815F
:1004D00086FD0DC00FB607FCF7CF8C9185FFF2CFDC
:1004E000808185FFEDCFCE010E94EB01E9CFDF9146
:1004F000CF91089520911402260F3327331F213204
:100500003105ECF420913802FC0190E080E02430C9
:1005100069F082E00895A09114022191AC014C5041
:100520005E4FA40FB52FB11D2C930196861798F33B
:1005300080911402680F6093140280E0089581E0B6
:1005400008951092380281E080933A0210923902A5
:1005500061E082E10E94B50061E083E10E94B500A4
:10056000E9EBF0E080818E7F808380818D7F8083C6
:1005700088E48093B80085E48093BC000895CF930D
:10058000DF9391E09093F3018823B9F0C091B80014
:10059000D091BA008091BC008A7B8093BC0060E05F
:1005A00082E10E94B50060E083E10E94B5000E94F4
:1005B000A102D093BA00C093B800DF91CF91089503
:1005C0000895E091650280916402E81730F4F0E04C
:1005D000E253FE4F808190E008958FEF9FEF0895E2
:1005E00090916502809164022FEF3FEF981748F4D5
:1005F000E92FF0E0E253FE4F208130E09F5F9093BF
:100600006502C90108958091640290916502891B79
:10061000990B0895CF92DF92EF92FF920F931F9361
:10062000CF93DF937C01CB018A012091CD0122235E
:1006300089F0EB016B01C40ED51ECC15DD0569F008
:100640006991D701ED91FC910190F081E02DC701F6
:100650000995F3CF642F0E947A02C801DF91CF91F0
:100660001F910F91FF90EF90DF90CF900895CF935F
:10067000DF931F92CDB7DEB769832091CD0122238E
:10068000F9F020916202203258F021E030E0FC01C4
:100690003383228390E080E00F90DF91CF91089523
:1006A00080916302E82FF0E0E355FE4F998190833B
:1006B0008F5F809363028093620281E090E0ECCFD1
:1006C00061E0CE0101960E947A02F7CFCF92DF92CD
:1006D000EF92FF920F931F93CF93DF93FC01C4819E
:1006E00021E02093CD01C093AC01109263021092DF
:1006F00062028385682B8EE093E00E943703D091DD
:100700006202D13208F092C00E9414016B017C0198
:1007100080913802811165C082E08093380281E0C7
:1007200080933A028FEF8093370210925C02D0934D
:100730005B02ADEAB1E0EBE3F2E080E0D81385C004
:1007400010925D0280915D02CC0FC82BC0935D02B8
:1007500080913902813009F07CC0109239020E94E8
:1007600014016B017C0180915D028093BB0080913C
:10077000EF019091F001A091F101B091F201892B6C
:100780008A2B8B2B99F00E9414010091EF0110919C
:10079000F0012091F1013091F2016C197D098E096F
:1007A0009F090617170728073907E0F18091BC0059
:1007B00083FDD9CF85EC8093BC000E9414016B01AE
:1007C0007C0180913802823009F445C08091370263
:1007D0008F3F61F180913702803241F18091370281
:1007E00025C08091EF019091F001A091F101B091AD
:1007F000F201892B8A2B8B2B09F48ACF0E941401DA
:100800000091EF011091F0012091F1013091F2017E
:100810006C197D098E099F090617170728073907E4
:1008200008F076CF8091EE010E94BF021092630221
:10083000109262021092CD01DF91CF911F910F9122
:10084000FF90EF90DF90CF9008959D9191938F5FEF
:1008500075CF85EEB0CF8091EF019091F001A0911E
:10086000F101B091F201892B8A2B8B2B09F4A9CFCE
:100870000E9414010091EF011091F0012091F1010B
:100880003091F2016C197D098E099F09061717072F
:100890002807390708F095CFC5CF089590E080E08C
:1008A00008950F931F93CF938C01C62F0E94660368
:1008B0006C2F6460C8010E9466036C2F6B7FC801B7
:1008C0000E94660383EC90E00197F1F7CF911F91AE
:1008D0000F9108950F931F93CF93DF938C01D62F21
:1008E000C42F607F642B0E94510480E1D89FB00127
:1008F00011246C2BC801DF91CF911F910F910C94A3
:10090000510440E061E08AE193E00E946A048BE3D5
:100910009FE10197F1F70895CF93DF93CDB7DEB74D
:1009200028970FB6F894DEBF0FBECDBF98E0E0E089
:10093000F1E0DE01119601900D929A95E1F7909108
:100940002203981708F48FEF90E0880F991F21E099
:1009500030E02C0F3D1F820F931FFC016081606807
:1009600040E08AE193E028960FB6F894DEBF0FBE10
:10097000CDBFDF91CF910C946A0441E00E946A04DC
:1009800081E090E00895FB0101900020E9F73197A4
:10099000AF01461B570BDC01ED91FC910280F38106
:1009A000E02D09948F929F92AF92BF92EF92FF92A7
:1009B0000F931F93CF93DF93CDB7DEB7A1970FB6F9
:1009C000F894DEBF0FBECDBF7C01FA01CB0119A2A6
:1009D000223008F42AE08E010F5D1F4F822E912CE9
:1009E000B12CA12CBF01A50194010E946209F9015B
:1009F000CA016A300CF5605DD8016E938D01232B1E
:100A0000242B252B79F790E080E0109721F0BD0191
:100A1000C7010E94C304A1960FB6F894DEBF0FBEB3
:100A2000CDBFDF91CF911F910F91FF90EF90BF90BD
:100A3000AF909F908F900895695CDECFCF93DF9346
:100A4000BC0181E792E00E94C304EC0168E371E01D
:100A500081E792E00E94C3048C0F9D1FDF91CF912C
:100A6000089585ED8093BC008091EF019091F00195
:100A7000A091F101B091F2010796A11DB11D23E0F3
:100A8000B695A795979587952A95D1F72091BC00A3
:100A900024FD03C01092380208954091EF01509157
:100AA000F0016091F1017091F201452B462B472B2B
:100AB00069F30097A105B10541F02AE22A95F1F703
:100AC00000C00197A109B109E1CF8091EE010C941A
:100AD000BF021F920F920FB60F9211242F933F93D4
:100AE0008F939F93AF93BF938091690290916A0215
:100AF000A0916B02B0916C023091680223E0230F49
:100B00002D3758F50196A11DB11D209368028093E1
:100B1000690290936A02A0936B02B0936C02809179
:100B20006D0290916E02A0916F02B09170020196D9
:100B3000A11DB11D80936D0290936E02A0936F0270
:100B4000B0937002BF91AF919F918F913F912F9180
:100B50000F900FBE0F901F90189526E8230F029656
:100B6000A11DB11DD2CF1F920F920FB60F9211246B
:100B70002F933F934F935F936F937F938F939F93A5
:100B8000AF93BF93EF93FF9381E792E00E94EB0155
:100B9000FF91EF91BF91AF919F918F917F916F9155
:100BA0005F914F913F912F910F900FBE0F901F902B
:100BB00018951F920F920FB60F9211242F938F93B7
:100BC0009F93EF93FF93E0918102F09182028081E5
:100BD000E0918702F091880282FD1BC09081809194
:100BE0008A028F5F8F7320918B02821741F0E09110
:100BF0008A02F0E0EF58FD4F958F80938A02FF91B3
:100C0000EF919F918F912F910F900FBE0F901F909A
:100C100018958081F4CF1F920F920FB60F92112476
:100C20002F933F934F935F936F937F938F939F93F4
:100C3000AF93BF93EF93FF938091B900887F803685
:100C400009F44AC0F0F5883209F4A7C018F58031DC
:100C500009F49BC0B8F4882309F4F9C0883009F47A
:100C600094C0FF91EF91BF91AF919F918F917F9130
:100C70006F915F914F913F912F910F900FBE0F9009
:100C80001F901895883109F488C0803251F78093FD
:100C9000370214C0803409F49DC040F48033B9F3A6
:100CA0008833F9F68093370285ECB0C0803509F4BB
:100CB00085C0883509F496C0883499F60E943105BC
:100CC000D0CF883909F48CC038F5883729F050F432
:100CD000883611F0803729F683E08093380210922D
:100CE000360257C0883809F47BC0803919F0803843
:100CF00009F0B7CF80913602803208F071C0E091E0
:100D0000360281E08E0F809336028091BB00F0E0C6
:100D1000EA5EFD4F80833DC0803B39F0E0F4803ACD
:100D200009F479C0883A09F09CCF84E080933802B6
:100D30001092150210921402E0916002F09161028B
:100D400009958091140281110FC081E080931402F3
:100D50001092F40109C0803C09F4A6CF883C09F444
:100D6000A3CF883B09F07DCFE091150281E08E0F83
:100D700080931502F0E0EC50FE4F80818093BB0021
:100D8000909115028091140229C080915D02809398
:100D9000BB0085EC8093BC0064CF90915C02809195
:100DA0005B02981758F5E0915C0281E08E0F80930A
:100DB0005C02F0E0E55CFD4F8081E9CFE0915C02F0
:100DC00081E08E0F80935C028091BB00F0E0E55CD7
:100DD000FD4F808390915C0280915B029817C8F26E
:100DE00085E8D8CFE0915C0281E08E0F80935C02B1
:100DF0008091BB00F0E0E55CFD4F808380913A027A
:100E000081115CCF81E08093390284EA8093BC0039
:100E10001092380226CF85EC8093BC0010923802E5
:100E200080913602803230F4E0913602F0E0EA5EE2
:100E3000FD4F10826091360270E0E0915E02F09109
:100E40005F0286E192E00995109236020ACF109275
:100E5000370234CFE1E7F2E01382128288EE93E0AA
:100E6000A0E0B0E084839583A683B7832CE031E0D3
:100E70003183208325EC30E03587248724EC30E073
:100E80003787268720EC30E0318B208B21EC30E057
:100E9000338B228B22EC30E0358B248B26EC30E038
:100EA000378B268B118E128E138E148EEEE0F3E0AC
:100EB0001382128284839583A683B7838EE191E0A7
:100EC00091838083EAE1F3E01382128280E391E070
:100ED0009183808380E2848380E1818782E08287BE
:100EE00013860895789484B5826084BD84B581604A
:100EF00084BD85B5826085BD85B5816085BD8091E5
:100F00006E00816080936E0010928100809181005C
:100F10008260809381008091810081608093810054
:100F2000809180008160809380008091B100846016
:100F30008093B1008091B00081608093B000809177
:100F40007A00846080937A0080917A008260809336
:100F50007A0080917A00816080937A0080917A0093
:100F6000806880937A001092C10060E082E00E9465
:100F7000E30061E083E00E94E30061E084E00E941E
:100F8000E30061E085E00E94E300E0918102F091DE
:100F9000820282E08083E0917D02F0917E021082E5
:100FA000E0917F02F09180028FEC808310928902A1
:100FB000E0918502F091860286E08083E0918302D1
:100FC000F0918402808180618083E0918302F091BE
:100FD0008402808188608083E0918302F0918402A2
:100FE000808180688083E0918302F0918402808117
:100FF0008F7D80838BE391E00E941E051092650235
:101000001092640210926302109262020E94A10286
:101010008BE691E090936102809360028CE691E010
:1010200090935F0280935E0210921F0380912403CD
:10103000823018F098E090931F038093220362E3BC
:1010400070E080E090E00E943901609125038AE120
:1010500093E00E94660368EE73E080E090E00E94F7
:10106000390160E38AE193E00E945104CBE4D6E4C5
:10107000CE010197F1F760E38AE193E00E94510409
:101080002197F1F760E38AE193E00E94510483E540
:1010900092E00197F1F760E28AE193E00E94510447
:1010A00060911F03606240E08AE193E00E946A045D
:1010B00084E08093200340E06CE08AE193E00E94AA
:1010C0006A040E94810482E08093210340E066E08C
:1010D0008AE193E00E946A0440E062E08AE193E0E2
:1010E0000E946A048BE39FE10197F1F788E0809307
:1010F000250360E08AE193E00E94660380E00E949D
:101100008C0464E571E08AE193E00E94C30481E00D
:101110000E948C046EE571E08AE193E00E94C304B2
:1011200068EE73E080E090E00E9439010E94810443
:10113000C0EBD0E00CE910E098E8E92E90E0F92E41
:1011400020E0C22E20E0D22EFE018491F801A4906E
:10115000F701B490BB2009F444C081110E948C00B7
:10116000EB2DF0E0EE0FFF1FE859FF4FA591B49172
:101170008C91A822B1F18BE691E00E941E0560E0FF
:1011800083E00E94B50060E084E00E94B50060E06A
:1011900085E00E94B5000E94810480E00E948C04DA
:1011A00065E771E08AE193E00E94C30481E00E9458
:1011B0008C046FE771E08AE193E00E94C30468EE5B
:1011C00073E080E090E00E943901C114D10409F479
:1011D000BBCF0E94D701882309F4B6CF0E9400003C
:1011E000B3CF809166029091670201969093670257
:1011F0008093660285E891E00E941E058090660259
:1012000090906702092C000CAA08BB082AE0B501DF
:10121000A401B7FE0DC06DE281E792E00E940D02CD
:1012200044275527BA01481959096A097B092AE058
:1012300081E792E00E94D20468E371E081E792E0E6
:101240000E94C30461E083E00E94B50061E084E095
:101250000E94B50061E085E00E94B5000E94810413
:1012600080E00E948C046DE971E08AE193E00E94C5
:10127000C30481E00E948C0466E971E08AE193E096
:101280000E94C3048090660290906702092C000CB3
:10129000AA08BB082AE0B501A401B7FE0EC041E0D0
:1012A0006DE28AE193E00E946A0444275527BA015F
:1012B000481959096A097B092AE08AE193E00E94EA
:1012C000D2047DCFA1E21A2EAA1BBB1BFD010DC0CB
:1012D000AA1FBB1FEE1FFF1FA217B307E407F507E6
:1012E00020F0A21BB30BE40BF50B661F771F881FC2
:1012F000991F1A9469F760957095809590959B0158
:10130000AC01BD01CF010895EE0FFF1F0590F491D0
:10131000E02D0994F894FFCF000040001400540021
:10132000000000000D026D019A015A02CB01A901D3
:10133000BD010000000037030A034E04E00203036E
:10134000F002E10200000000BD046D014E044D04F6
:101350000D0A0049522053656E736F7220537973E2
:1013600074656D2053746172746564004952205332
:10137000454E534F520053595354454D2052454109
:101380004459004E6F204F626A656374004E4F20CF
:101390004F424A45435400464F554E44004F626AFF
:1013A0006563742044657465637465642E204974B4
:1013B000656D733A004974656D20446574656374A6
:0413C0006564000060
:107E0000112484B714BE81FFF0D085E080938100F7
:107E100082E08093C00088E18093C10086E0809377
:107E2000C20080E18093C4008EE0C9D0259A86E02C
:107E300020E33CEF91E0309385002093840096BBD3
:107E4000B09BFECF1D9AA8958150A9F7CC24DD24C4
:107E500088248394B5E0AB2EA1E19A2EF3E0BF2EE7
:107E6000A2D0813461F49FD0082FAFD0023811F036
:107E7000013811F484E001C083E08DD089C08234E0
:107E800011F484E103C0853419F485E0A6D080C0E4
:107E9000853579F488D0E82EFF2485D0082F10E0AE
:107EA000102F00270E291F29000F111F8ED06801E7
:107EB0006FC0863521F484E090D080E0DECF843638
:107EC00009F040C070D06FD0082F6DD080E0C81688
:107ED00080E7D80618F4F601B7BEE895C0E0D1E017
:107EE00062D089930C17E1F7F0E0CF16F0E7DF06D8
:107EF00018F0F601B7BEE89568D007B600FCFDCFD4
:107F0000A601A0E0B1E02C9130E011968C91119780
:107F100090E0982F8827822B932B1296FA010C0160
:107F200087BEE89511244E5F5F4FF1E0A038BF0790
:107F300051F7F601A7BEE89507B600FCFDCF97BE46
:107F4000E89526C08437B1F42ED02DD0F82E2BD052
:107F50003CD0F601EF2C8F010F5F1F4F84911BD097
:107F6000EA94F801C1F70894C11CD11CFA94CF0C13
:107F7000D11C0EC0853739F428D08EE10CD085E9AC
:107F80000AD08FE07ACF813511F488E018D01DD067
:107F900080E101D065CF982F8091C00085FFFCCF94
:107FA0009093C60008958091C00087FFFCCF809118
:107FB000C00084FD01C0A8958091C6000895E0E648
:107FC000F0E098E1908380830895EDDF803219F02E
:107FD00088E0F5DFFFCF84E1DECF1F93182FE3DFCA
:107FE0001150E9F7F2DF1F91089580E0E8DFEE27F6
:047FF000FF270994CA
:027FFE00040479
:00000001FF
