:020000040000FA
:100000000C9463000C948B000C948B000C948B006C
:100010000C948B000C948B000C948B000C948B0034
:100020000C948B000C948B000C948B000C942D087A
:100030000C948B000C948B000C948B000C948B0014
:100040000C946C060C948B000C94DC060C94B60695
:100050000C948B000C948B000C948B000C948B00F4
:100060000C940E070C948B00000000002400270065
:100070002A0000000000250028002B0000000000DE
:1000800023002600290004040404040404040202DA
:100090000202020203030303030301020408102007
:1000A0004080010204081020010204081020000012
:1000B0000008000201000003040700000000000027
:1000C0000000E9085B0D11241FBECFEFD8E0DEBFB2
:1000D000CDBF12E0A0E0B1E0E0E4F0E202C00590A4
:1000E0000D92AA33B107D9F724E0AAE3B2E001C028
:1000F0001D92AA35B207E1F710E0C2E6D0E004C0D5
:100100002197FE010E94120EC136D107C9F70E9445
:10011000DE090C9413100C9400008F929F92AF9202
:10012000BF92FF920F931F93CF93DF93F090D8036A
:100130002BE02F1508F44CC02091DA0308E512E0FB
:10014000021B110927FD1395000F111F000F111F2E
:100150002091D903C8E8D0E0C21BD10927FDD3956F
:10016000CC0FDD1FCC0FDD1F4E010D2E000CAA0899
:10017000BB089801012E000C440B550B28193909B6
:100180004A095B09DC010E94960D24EB30E040E057
:1001900050E00E946C0D820E931EA41EB51E8C169C
:1001A0009D062CF0E801801691060CF4E4012297DC
:1001B000CC0FDD1F2FB7F8948F2D90E0FC01EE0FD0
:1001C000FF1FE80FF91FE955FC4FD283C1832FBFF2
:1001D000DF91CF911F910F91FF90BF90AF909F90B3
:1001E0008F90089596E0899FD0011124A951BC4FAA
:1001F00090967C936E935F9791E091969C939197E4
:10020000E0915404F091550490915304992339F0EE
:10021000309751F0811108C0809103040994309700
:1002200019F05C968C91FACF0895CF92DF92EF92FD
:10023000FF920F931F9396E0899FF0011124E951DB
:10024000FC4F11A2278D30A12130310551F178F0FA
:100250002230310509F451C02330310509F452C070
:100260001F910F91FF90EF90DF90CF90089566233C
:10027000B9F361E070E00E94F2002FB7F89480912A
:10028000FA029091FB02A091FC02B091FD022FBFF7
:1002900080933F0490934004A0934104B0934204A0
:1002A000DFCF9FB7F894C090FA02D090FB02E090A5
:1002B000FC02F090FD029FBF00913F0410914004AA
:1002C0002091410430914204C01AD10AE20AF30A93
:1002D000009151041091520430E020E00C151D05EE
:1002E0002E053F0550F462E070E01F910F91FF90E2
:1002F000EF90DF90CF900C94F2006111B1CF63E0EA
:1003000070E0F3CF70E060E0F0CF833081F028F44C
:10031000813099F08230A9F008958730A9F08830B3
:10032000C9F08430B1F4809180008F7D03C080914A
:1003300080008F7780938000089584B58F7784BD87
:10034000089584B58F7DFBCF8091B0008F77809327
:10035000B00008958091B0008F7DF9CFCF93DF93E7
:10036000282F30E0F901E255FF4F8491F901E6565C
:10037000FF4FD491F901EA57FF4FC491CC23A1F06C
:1003800081110E948501EC2FF0E0EE0FFF1FE45871
:10039000FF4FA591B491EC91ED2381E090E009F439
:1003A00080E0DF91CF91089580E090E0FACF1F9335
:1003B000CF93DF93282F30E0F901E255FF4F84916E
:1003C000F901E656FF4FD491F901EA57FF4FC49166
:1003D000CC23A9F0162F81110E948501EC2FF0E0AB
:1003E000EE0FFF1FEE58FF4FA591B4918FB7F89411
:1003F000EC91111108C0D095DE23DC938FBFDF9103
:10040000CF911F910895DE2BF8CFCF93DF9390E02B
:10041000FC01E656FF4F24918A579F4FFC018491BF
:100420008823C9F090E0880F991FFC01E859FF4F1D
:10043000A591B491FC01EE58FF4FC591D491611183
:100440000DC09FB7F8948C91209582238C9388815E
:10045000282328839FBFDF91CF910895623051F404
:100460009FB7F8943C91822F809583238C93E881E9
:100470002E2BEFCF8FB7F894EC912E2B2C938FBFB0
:10048000EACF3FB7F8948091F6029091F702A091DD
:10049000F802B091F90226B5A89B05C02F3F19F0CC
:1004A0000196A11DB11D3FBFBA2FA92F982F8827F4
:1004B000BC01CD01620F711D811D911D42E0660FCF
:1004C000771F881F991F4A95D1F708958F929F92A1
:1004D000AF92BF92CF92DF92EF92FF924B015C01FD
:1004E0000E9441026B017C010E9441026C197D094E
:1004F0008E099F09683E734081059105A8F321E0AC
:10050000821A9108A108B10888EEC80E83E0D81EAF
:10051000E11CF11C81149104A104B10429F7FF909E
:10052000EF90DF90CF90BF90AF909F908F90089505
:10053000862F642F0C940502862F642F0C94D7010C
:10054000862F0C94AE0108950895AF92BF92CF927A
:10055000DF92EF92FF920F931F93CF93DF936C0183
:100560007B018B01040F151FEB015E01AE18BF0864
:10057000C017D10759F06991D601ED91FC91019016
:10058000F081E02DC6010995892B79F7C501DF912E
:10059000CF911F910F91FF90EF90DF90CF90BF9080
:1005A000AF900895FC01538D448D252F30E0842FAA
:1005B00090E0821B930B541710F0CF96089501978B
:1005C0000895FC01918D828D981761F0A28DAE0F78
:1005D000BF2FB11D5D968C91928D9F5F9F73928FFF
:1005E00090E008958FEF9FEF0895FC01918D828D2B
:1005F000981731F0828DE80FF11D858D90E00895F8
:100600008FEF9FEF0895FC01918D228D892F90E04F
:10061000805C9F4F821B91098F73992708958EEFFD
:1006200092E00E94030321E0892B09F420E0822F4D
:10063000089580E090E0892B29F00E940F0381113A
:100640000C9400000895FC01A48DA80FB92FB11DD2
:10065000A35ABF4F2C91848D90E001968F739927F8
:10066000848FA689B7892C93A089B1898C918370D6
:1006700080648C93938D848D981306C00288F389CF
:10068000E02D80818F7D80830895EF92FF920F93FC
:100690001F93CF93DF93EC0181E0888F9B8D8C8D2E
:1006A00098131AC0E889F989808185FF15C09FB722
:1006B000F894EE89FF896083E889F98980818370E5
:1006C000806480839FBF81E090E0DF91CF911F9194
:1006D0000F91FF90EF900895F62E0B8D10E00F5FB5
:1006E0001F4F0F731127E02E8C8D8E110CC00FB68B
:1006F00007FCFACFE889F989808185FFF5CFCE0123
:100700000E942303F1CFEB8DEC0FFD2FF11DE35A77
:10071000FF4FF0829FB7F8940B8FEA89FB898081A5
:100720008062CFCFCF93DF93EC01888D8823B9F01F
:10073000AA89BB89E889F9898C9185FD03C08081EC
:1007400086FD0DC00FB607FCF7CF8C9185FFF2CF69
:10075000808185FFEDCFCE010E942303E9CFDF9199
:10076000CF9108952091A302260F3327331F213202
:100770003105ECF42091C702FC0190E080E02430C8
:1007800069F082E00895A091A3022191AC014D5738
:100790005D4FA40FB52FB11D2C930196861798F3CA
:1007A0008091A302680F6093A30280E0089581E026
:1007B00008951092C70281E08093C9021092C80286
:1007C00061E082E10E94D70161E083E10E94D701EC
:1007D000E9EBF0E080818E7F808380818D7F808354
:1007E00088E48093B80085E48093BC000895CF939B
:1007F000DF9391E0909382028823B9F0C091B80012
:10080000D091BA008091BC008A7B8093BC0060E0EC
:1008100082E10E94D70160E083E10E94D7010E943B
:10082000D903D093BA00C093B800DF91CF91089557
:100830000895E091F4028091F302E81730F4F0E0BB
:10084000E35AFD4F808190E008958FEF9FEF089568
:100850009091F4028091F3022FEF3FEF981748F444
:10086000E92FF0E0E35AFD4F208130E09F5F909345
:10087000F402C90108958091F3029091F402891B5A
:10088000990B0895CF92DF92EF92FF920F931F93EF
:10089000CF93DF937C01CB018A0120915C0222235C
:1008A00089F0EB016B01C40ED51ECC15DD0569F096
:1008B0006991D701ED91FC910190F081E02DC70184
:1008C0000995F3CF642F0E94B203C801DF91CF9145
:1008D0001F910F91FF90EF90DF90CF900895CF93ED
:1008E000DF931F92CDB7DEB7698320915C0222238C
:1008F000F9F02091F102203258F021E030E0FC01C3
:100900003383228390E080E00F90DF91CF910895B0
:100910008091F202E82FF0E0E45CFD4F9981908332
:100920008F5F8093F2028093F10281E090E0ECCF40
:1009300061E0CE0101960E94B203F7CFCF92DF9221
:10094000EF92FF920F931F93CF93DF93FC01C4812B
:1009500021E020935C02C0933B021092F2021092BD
:10096000F1028385682B8BE993E00E946F04D0919C
:10097000F102D13208F092C00E9441026B017C0169
:100980008091C702811165C082E08093C70281E037
:100990008093C9028FEF8093C6021092EB02D0932E
:1009A000EA02ACE3B2E0EAECF2E080E0D81385C002
:1009B0001092EC028091EC02CC0FC82BC093EC0299
:1009C0008091C802813009F07CC01092C8020E9458
:1009D00041026B017C018091EC028093BB0080910D
:1009E0007E0290917F02A0918002B0918102892BBA
:1009F0008A2B8B2B99F00E94410200917E0210916C
:100A00007F0220918002309181026C197D098E094C
:100A10009F090617170728073907E0F18091BC00E6
:100A200083FDD9CF85EC8093BC000E9441026B010D
:100A30007C018091C702823009F445C08091C602D2
:100A40008F3F61F18091C602803241F18091C602F0
:100A500025C080917E0290917F02A0918002B0918A
:100A60008102892B8A2B8B2B09F48ACF0E944102A9
:100A700000917E0210917F022091800230918102CC
:100A80006C197D098E099F09061717072807390772
:100A900008F076CF80917D020E94F7031092F20257
:100AA0001092F10210925C02DF91CF911F910F9191
:100AB000FF90EF90DF90CF9008959D9191938F5F7D
:100AC00075CF85EEB0CF80917E0290917F02A0918C
:100AD0008002B0918102892B8A2B8B2B09F4A9CF3C
:100AE0000E94410200917E0210917F0220918002BB
:100AF000309181026C197D098E099F09061717072D
:100B00002807390708F095CFC5CF089590E080E019
:100B100008950F931F93CF938C01C62F0E949E04BC
:100B20006C2F6460C8010E949E046C2F6B7FC8010B
:100B30000E949E0483EC90E00197F1F7CF911F9102
:100B40000F9108950F931F93CF93DF938C01D62FAE
:100B5000C42F607F642B0E94890580E1D89FB0017B
:100B600011246C2BC801DF91CF911F910F910C9430
:100B7000890541E00E94A20581E090E00895FB0113
:100B800001900020E9F73197AF01461B570BDC01BC
:100B9000ED91FC910280F381E02D0994CF93DF93D6
:100BA000BC018EEF92E00E94BF05EC0168E571E0A8
:100BB0008EEF92E00E94BF058C0F9D1FDF91CF91B9
:100BC00008950F931F93CF93DF93EC018881998150
:100BD000009759F02A813B812617370730F081E0D2
:100BE000DF91CF911F910F9108958B016F5F7F4F20
:100BF0000E943D0F009759F0998388831B830A83D5
:100C00002C813D81232B59F7FC011082E8CF80E035
:100C1000E7CFEF92FF920F931F93CF93DF93EC01F7
:100C20007B018A01BA010E94E10528813981811185
:100C300014C02115310519F0C9010E94B40E1982A2
:100C400018821D821C821B821A82CE01DF91CF91F5
:100C50001F910F91FF90EF9008951D830C83B701B2
:100C6000C9010E940C10F1CF85ED8093BC008091EA
:100C70007E0290917F02A0918002B091810207963E
:100C8000A11DB11D23E0B695A795979587952A9547
:100C9000D1F72091BC0024FD03C01092C702089533
:100CA00040917E0250917F0260918002709181029A
:100CB000452B462B472B69F30097A105B10541F061
:100CC0002AE22A95F1F700C00197A109B109E1CF05
:100CD00080917D020C94F7031F920F920FB60F9232
:100CE00011242F933F938F939F93AF93BF93809142
:100CF000FA029091FB02A091FC02B091FD023091AA
:100D0000F50223E0230F2D3758F50196A11DB11DE3
:100D10002093F5028093FA029093FB02A093FC02C9
:100D2000B093FD028091F6029091F702A091F80233
:100D3000B091F9020196A11DB11D8093F602909326
:100D4000F702A093F802B093F902BF91AF919F917F
:100D50008F913F912F910F900FBE0F901F9018957C
:100D600026E8230F0296A11DB11DD2CF1F920F922C
:100D70000FB60F9211242F933F934F935F936F936E
:100D80007F938F939F93AF93BF93EF93FF938EEFD8
:100D900092E00E942303FF91EF91BF91AF919F9149
:100DA0008F917F916F915F914F913F912F910F9014
:100DB0000FBE0F901F9018951F920F920FB60F92B3
:100DC00011242F938F939F93EF93FF93E0910E0342
:100DD000F0910F038081E0911403F091150382FDDF
:100DE0001BC09081809117038F5F8F732091180330
:100DF000821741F0E0911703F0E0E250FD4F958F2C
:100E000080931703FF91EF919F918F912F910F90F6
:100E10000FBE0F901F9018958081F4CF1F920F92F4
:100E20000FB60F9211242F933F934F935F936F93BD
:100E30007F938F939F93AF93BF93EF93FF93809193
:100E4000B900887F803609F44AC0F0F5883209F489
:100E5000A7C018F5803109F49BC0B8F4882309F4C1
:100E6000F9C0883009F494C0FF91EF91BF91AF9120
:100E70009F918F917F916F915F914F913F912F91B2
:100E80000F900FBE0F901F901895883109F488C0FD
:100E9000803251F78093C60214C0803409F49DC09B
:100EA00040F48033B9F38833F9F68093C60285ECB9
:100EB000B0C0803509F485C0883509F496C08834FF
:100EC00099F60E943406D0CF883909F48CC038F5E1
:100ED000883729F050F4883611F0803729F683E0FE
:100EE0008093C7021092C50257C0883809F47BC0AE
:100EF000803919F0803809F0B7CF8091C50280326F
:100F000008F071C0E091C50281E08E0F8093C502A8
:100F10008091BB00F0E0EB55FD4F80833DC0803BEE
:100F200039F0E0F4803A09F479C0883A09F09CCFAE
:100F300084E08093C7021092A4021092A302E09171
:100F4000EF02F091F00209958091A30281110FC088
:100F500081E08093A3021092830209C0803C09F4CF
:100F6000A6CF883C09F4A3CF883B09F07DCFE09160
:100F7000A40281E08E0F8093A402F0E0ED57FD4FB4
:100F800080818093BB009091A4028091A30229C02C
:100F90008091EC028093BB0085EC8093BC0064CF11
:100FA0009091EB028091EA02981758F5E091EB02DC
:100FB00081E08E0F8093EB02F0E0E653FD4F8081DD
:100FC000E9CFE091EB0281E08E0F8093EB028091FC
:100FD000BB00F0E0E653FD4F80839091EB028091DF
:100FE000EA029817C8F285E8D8CFE091EB0281E0D9
:100FF0008E0F8093EB028091BB00F0E0E653FD4F33
:1010000080838091C90281115CCF81E08093C80206
:1010100084EA8093BC001092C70226CF85EC8093AF
:10102000BC001092C7028091C502803230F4E0917A
:10103000C502F0E0EB55FD4F10826091C50270E0F3
:10104000E091ED02F091EE0285EA92E009951092AE
:10105000C5020ACF1092C60234CF1F920F920FB66C
:101060000F9211242F933F934F935F936F937F932E
:101070008F939F93AF93BF93CF93DF93EF93FF93A0
:1010800080913A02C091CB03D0E087FF24C0109238
:1010900085001092840080913A028F5F80933A021B
:1010A00080913A02082E000C990B8C179D0724F4AE
:1010B00080913A028C30C4F1809184009091850037
:1010C000049680349C4908F47AC080918400909101
:1010D0008500049676C080913A02082E000C990B88
:1010E0008C179D07C4F6E0913A028E2FEE0F990BF4
:1010F000FC01EE0FFF1FE80FF91FE955FC4F80813F
:1011000086FFC9CFE0913A028E2FEE0F990BFC01BA
:10111000EE0FFF1FE80FF91FE955FC4F808160E0DB
:101120008F730E94D701B7CF209184003091850042
:10113000E0913A028E2FEE0F990BFC01EE0FFF1F8C
:10114000E80FF91FE955FC4F81819281820F931FAF
:101150009093890080938800E0913A028E2FEE0FE1
:10116000990BFC01EE0FFF1FE80FF91FE955FC4F2B
:10117000808186FF11C0E0913A028E2FEE0F990B0D
:10118000FC01EE0FFF1FE80FF91FE955FC4F8081AE
:1011900061E08F730E94D701FF91EF91DF91CF91B2
:1011A000BF91AF919F918F917F916F915F914F917F
:1011B0003F912F910F900FBE0F901F90189580E4D4
:1011C0009CE990938900809388008FEF80933A0286
:1011D000E3CF109201031092000388EE93E0A0E0A9
:1011E000B0E08093020390930303A0930403B093B1
:1011F000050322E231E03093FF022093FE0225EC4A
:1012000030E030930B0320930A0324EC30E030935A
:101210000D0320930C0320EC30E030930F03209358
:101220000E0321EC30E0309311032093100322ECE5
:1012300030E0309313032093120326EC30E0309318
:1012400015032093140310921703109218031092A1
:10125000190310921A0310929E0310929D0380931B
:101260009F039093A003A093A103B093A20384E3F0
:1012700091E090939C0380939B031092E90310925A
:10128000ED031092EC031092EE0382E591E090934F
:10129000E8038093E703E3E0F4E010821482138212
:1012A0001582369684E0EF33F807B9F784E091E0D1
:1012B00090934A048093490480E091E090934C0419
:1012C00080934B0484E080934D0480934E0488E027
:1012D00091E090934804809347048AE090E09093D3
:1012E000500480934F0484EF91E0909352048093D4
:1012F0005104109255041092540410924304109219
:101300004404109245041092460410925304109223
:10131000DE031092DD0386E491E09093DC0380937A
:10132000DB0380E28093DF0380E18093E40382E0CB
:101330008093E5031092E6038091CB038C30D0F5C7
:1013400091E0980F9093CB038093D80390E0FC0139
:10135000EE0FFF1FE80FF91FE955FC4F88EB9BE0EC
:10136000928381831092D3031092D2031092D503FB
:101370001092D4031092D7031092D60344E050E0A9
:101380006BE571E082ED93E00E9409061092CD03B7
:101390001092CC031092CF031092CE031092D1037F
:1013A0001092D00350E040E06AE571E08CEC93E0ED
:1013B0000C9409068FEF8093D803D4CFCF93DF939B
:1013C00000D0CDB7DEB7789484B5826084BD84B593
:1013D000816084BD85B5826085BD85B5816085BD30
:1013E00080916E00816080936E00109281008091E8
:1013F0008100826080938100809181008160809370
:101400008100809180008160809380008091B10094
:1014100084608093B1008091B00081608093B000BF
:1014200080917A00846080937A0080917A00826053
:1014300080937A0080917A00816080937A00809115
:101440007A00806880937A001092C100E0910E03C8
:10145000F0910F0382E08083E0910A03F0910B0387
:101460001082E0910C03F0910D038FEC80831092B9
:101470001603E0911203F091130386E08083E0915C
:101480001003F0911103808180618083E09110034B
:10149000F0911103808188608083E0911003F091C6
:1014A0001103808180688083E0911003F091110323
:1014B00080818F7D80838091D8038C3008F051C06B
:1014C00061E08AE00E9405028091D803282F30E075
:1014D000F901EE0FFF1FE20FF31FE955FC4F90815A
:1014E000907C9A6090831092D9031092DA032CE0DA
:1014F000622F0E94060E829FB001112430E020E08E
:10150000AB01420F531FFA01EE0FFF1FE40FF51F4F
:10151000E955FC4F908196FD16C02F5F3F4F2C3050
:10152000310571F781110FC01092800082E0809325
:1015300081001092850010928400B19A80916F0012
:10154000826080936F00E091D8038E2F90E0FC01C1
:10155000EE0FFF1FE80FF91FE955FC4F80818064F3
:10156000808390E080E00E948D0061E08BE00E942B
:10157000050280E691E00E94CE058DE791E00E9491
:10158000CE051092F4021092F3021092F202109221
:10159000F1020E94D90383EA92E09093F0028093D3
:1015A000EF0284EA92E09093EE028093ED021092B3
:1015B000E0038091E503823018F098E09093E00317
:1015C0008093E30362E370E080E090E00E946602B3
:1015D0006091E6038BED93E00E949E0468EE73E059
:1015E00080E090E00E94660260E38BED93E00E9451
:1015F00089050BE416E4C8010197F1F760E38BED70
:1016000093E00E948905C8010197F1F760E38BED33
:1016100093E00E94890583E592E00197F1F760E28B
:101620008BED93E00E9489056091E003606240E0E9
:101630008BED93E00E94A20584E08093E10340E0FB
:101640006CE08BED93E00E94A20540E061E08BED41
:1016500093E00E94A2050BE31FE1C8010197F1F797
:1016600082E08093E20340E066E08BED93E00E942D
:10167000A20540E062E08BED93E00E94A205C80164
:101680000197F1F788E08093E60360E08BED93E04B
:101690000E949E0440E060E88BED93E00E94A2056A
:1016A0006CE971E08BED93E00E94BF0568EB7BE095
:1016B00080E090E00E94660240E061E08BED93E004
:1016C0000E94A205C8010197F1F7412C512C32016B
:1016D000439440E0A42E40E0B42E51E050935304D4
:1016E0008FB7F8944091FA025091FB026091FC028E
:1016F0007091FD028FBF8091430490914404A091AA
:101700004504B0914604481B590B6A0B7B0B809132
:101710004F0490915004B0E0A0E084179507A6070D
:10172000B70708F020C110E080914D04181760F44D
:10173000E0914904F0914A04E10FF11D62E08081DB
:101740000E9405021F5FF0CF312C80914E043816A5
:1017500008F061C0E32CF12CE0914B04F0914C04B3
:10176000EE0DFF1D61E080810E940502E0914B04B7
:10177000F0914C04EE0DFF1D60E080810E94D701C6
:10178000D301C201032C04C0880F991FAA1FBB1FDD
:101790000A94D2F74C016C01C094D094212C809112
:1017A0004D04281608F5022D10E0E0914904F0914F
:1017B0004A04E00FF11F80810E94AE010C5F1F4FB1
:1017C000000F111FF801E951FC4F892B41F4808172
:1017D000918188299929918380832394E0CF808106
:1017E00091818C219D21F7CFE0914B04F0914C0425
:1017F000EE0DFF1D61E080810E94D70180914B04B6
:1018000090914C04E80EF91E60E0F70180810E947F
:10181000050233949ACF07EE13E07801F701878D24
:1018200090A1892B31F4148E8FEF9FEF968F858FC7
:1018300011A296E0E90EF11CE3E2EE16E4E0FE06EA
:1018400069F7912C80914D04981608F053C0812CB3
:10185000C92CD12CCC0CDD1CC60181519C4F6C01D4
:1018600020914E04821608F043C0F6016081718118
:10187000082C02C0769567950A94E2F7929E900133
:101880001124280D311DE7EEF3E080E0458D568DE3
:101890002417350709F4D4C08F5F36968A30B1F724
:1018A00060FF24C0E7EEF3E090E080E0448D41115A
:1018B00018C0E0914704F0914804E20FF31F408103
:1018C00056E0589FF001599FF00D1124E951FC4F4B
:1018D000448F368F258F10A2178E61E00E9415016C
:1018E00005C0019636968A30910501F78394B8CFEA
:1018F0009394A8CF80E0F80191A19111892F0A5FFC
:101900001F4FE016F106B9F79FB7F8944091FA021D
:101910005091FB026091FC027091FD029FBF4093C9
:101920004304509344046093450470934604882311
:10193000D1F0809108048823B1F080910604909141
:101940000704019781F48091030481110FC0A11451
:10195000B10409F4C2CE0E940F03882309F4BDCE5E
:101960000E940000BACE10925304F1CF833281F569
:101970002091D0033091D1038091D6039091D70369
:1019800028173907C1F48091CC039091CD03609161
:10199000D2037091D303009709F454C06115710507
:1019A00039F4232B09F45CC0FC01808190E055C020
:1019B0000E94031052C08AEF91E00E94CE058BE096
:1019C00092E00E94CE0561E08BE00E94D7016AC0E0
:1019D0008A3269F450E040E06AE571E08CEC93E013
:1019E0000E94090682E292E00E94CE05B0CF898370
:1019F0001A820091D0031091D1030F5F1F4FB801DD
:101A00008CEC93E00E94E105882399F02091CC03AF
:101A10003091CD038091D0039091D103BE016F5FCF
:101A20007F4F820F931F0E940C101093D1030093DD
:101A3000D00367E372E08EEF92E00E94BF0587CF8C
:101A400061704CCF6115710559F0232B49F0FB01F2
:101A5000808190E0919581959109892B09F0ABCF18
:101A60008CEA91E00E94CE058EEB91E00E94CE05BB
:101A700061E08BE00E94D70187E590E00E948D0035
:101A800068E873E180E090E00E94660290E080E008
:101A90000E948D008EEC91E00E94CE058BED91E0CE
:101AA0000E94CE0550E040E06AE571E08CEC93E0E6
:101AB0000E9409064CCF8091CC039091CD030097F2
:101AC00011F00E94B40E8091D2039091D30300973D
:101AD00011F00C94B40E0895052E97FB1EF400949B
:101AE0000E94830D57FD07D00E94D50D07FC03D03F
:101AF0004EF40C94830D50954095309521953F4FB1
:101B00004F4F5F4F089590958095709561957F4FE9
:101B10008F4F9F4F08950E94F70DA59F900DB49F82
:101B2000900DA49F800D911D11240895B7FF0C9472
:101B30008B0D0E948B0D821B930B08952F923F9269
:101B40004F925F926F927F928F929F92AF92BF92CD
:101B5000CF92DF92EF92FF920F931F93CF93DF9379
:101B6000CDB7DEB7CA1BDB0B0FB6F894DEBF0FBED6
:101B7000CDBF09942A88398848885F846E847D8423
:101B80008C849B84AA84B984C884DF80EE80FD8025
:101B90000C811B81AA81B981CE0FD11D0FB6F8949B
:101BA000DEBF0FBECDBFED010895A1E21A2EAA1B24
:101BB000BB1BFD010DC0AA1FBB1FEE1FFF1FA217FD
:101BC000B307E407F50720F0A21BB30BE40BF50BFA
:101BD000661F771F881F991F1A9469F76095709583
:101BE000809590959B01AC01BD01CF010895A29F06
:101BF000B001B39FC001A39F700D811D1124911DE1
:101C0000B29F700D811D1124911D0895991B79E0DB
:101C100004C0991F961708F0961B881F7A95C9F77C
:101C200080950895EE0FFF1F0590F491E02D099423
:101C30000F931F93CF93DF938230910510F482E0CE
:101C400090E0E0915804F091590430E020E0B0E0D9
:101C5000A0E0309799F42115310509F44AC0281BFA
:101C6000390B24303105D8F58A819B8161157105C6
:101C700089F1FB0193838283FE0111C04081518170
:101C80000281138148175907E0F04817590799F462
:101C9000109761F012960C93129713961C9332963C
:101CA000CF01DF91CF911F910F91089500935804B8
:101CB00010935904F4CF2115310551F04217530701
:101CC00038F0A901DB019A01BD01DF01F801C1CFA4
:101CD000EF01F9CF9093590480935804CDCFFE01C2
:101CE000E20FF31F819391932250310939832883A6
:101CF000D7CF2091560430915704232B41F42091E3
:101D00001A0130911B0130935704209356042091FF
:101D10001801309119012115310541F42DB73EB755
:101D200040911C0150911D01241B350BE09156047C
:101D3000F0915704E217F307A0F42E1B3F0B28176E
:101D4000390778F0AC014E5F5F4F2417350748F034
:101D50004E0F5F1F50935704409356048193919305
:101D60009FCFF0E0E0E09CCFCF93DF930097E9F0C6
:101D7000FC01329713821282A0915804B091590449
:101D8000ED0130E020E01097A1F420813181820F35
:101D9000931F20915604309157042817390709F0F2
:101DA00061C0F0935704E0935604DF91CF910895FA
:101DB000EA01CE17DF07E8F54A815B819E014115F4
:101DC0005105B1F7E901FB83EA8349915991C40FA9
:101DD000D51FEC17FD0761F4808191810296840F75
:101DE000951FE90199838883828193819B838A83EC
:101DF000F0E0E0E012968D919C9113970097B9F571
:101E00002D913C911197CD010296820F931F209145
:101E10005604309157042817390739F6309751F591
:101E20001092590410925804B0935704A09356048A
:101E3000BCCFD383C28340815181840F951FC817C3
:101E4000D90761F44E5F5F4F88819981480F591F10
:101E5000518340838A819B8193838283211531053D
:101E600009F0B0CFF0935904E09358049ECFFD01E0
:101E7000DC01C0CF13821282D7CFB0E0A0E0E3E450
:101E8000FFE00C94A00D8C01009751F4CB010E944F
:101E9000180E8C01C801CDB7DEB7E0E10C94BC0D83
:101EA000FC01E60FF71F9C0122503109E217F307EE
:101EB00008F49DC0D901CD91DC911197C617D707C1
:101EC00098F0C530D10530F3CE01049786179707F7
:101ED00008F3C61BD70B2297C193D1936D937C93C4
:101EE000CF010E94B40ED6CF5B01AC1ABD0A4C01E3
:101EF0008C0E9D1EA0915804B0915904512C412C78
:101F0000F12CE12C109731F58091560490915704F3
:101F10008815990509F05CC04616570608F058C0A8
:101F20008091180190911901009741F48DB79EB7E7
:101F300040911C0150911D01841B950BE817F90776
:101F400008F055C0F0935704E0935604F9017183EB
:101F50006083A0CF8D919C91119712966C901297EF
:101F600013967C901397A815B90559F56C0142E0BA
:101F7000C40ED11CCA14DB0420F1AC014A195B0960
:101F8000DA011296159780F0628273825183408342
:101F9000D9016D937C93E114F10471F0D70113968C
:101FA000FC93EE93129776CF22968C0F9D1FF9012A
:101FB00091838083F301EFCFF0935904E0935804A9
:101FC00069CF4816590608F42C017D01D3019ACF38
:101FD000CB010E94180E7C01009749F0AE01B801B8
:101FE0000E94FA0FC8010E94B40E870153CF10E07F
:101FF00000E050CFFB01DC0102C001900D92415086
:102000005040D8F70895FB01DC018D9101908019B3
:102010000110D9F3990B0895FB01DC0101900D9299
:102020000020E1F7089510E0C2E6D0E004C0FE0110
:102030000E94120E2196C336D107C9F7F894FFCF3C
:1020400005040302090807063132334134353642AC
:10205000373839432A30234400005A0480000000F6
:1020600000004503A502D20292030303E102F50238
:10207000000000006F044204860518043B04280495
:10208000190400000000B905A502860585050000B9
:10209000000098029C02A0020D0A00313233340085
:1020A0002D2D2D20444F4F52205345435552495416
:1020B000592053595354454D202D2D2D00506C65FA
:1020C00061736520456E7465722050617373776F1C
:1020D000726420746F204F70656E3A004B657970A2
:1020E0006164205365637572697479000A5B4143CA
:1020F00043455353204752414E5445445D004F7071
:10210000656E696E6720446F6F722E2E2E00446FCD
:102110006F72204C6F636B65642E000A456E7465A8
:10212000722050617373776F726420666F72206ED5
:1021300065787420757365723A000A5B41434345C4
:1021400053532044454E4945445D0057726F6E67B6
:1021500020636F64652E2054727920616761696E17
:102160003A000A436C65617265642E2054727920CE
:0A217000616761696E3A002A000001
:107E0000112484B714BE81FFF0D085E080938100F7
:107E100082E08093C00088E18093C10086E0809377
:107E2000C20080E18093C4008EE0C9D0259A86E02C
:107E300020E33CEF91E0309385002093840096BBD3
:107E4000B09BFECF1D9AA8958150A9F7CC24DD24C4
:107E500088248394B5E0AB2EA1E19A2EF3E0BF2EE7
:107E6000A2D0813461F49FD0082FAFD0023811F036
:107E7000013811F484E001C083E08DD089C08234E0
:107E800011F484E103C0853419F485E0A6D080C0E4
:107E9000853579F488D0E82EFF2485D0082F10E0AE
:107EA000102F00270E291F29000F111F8ED06801E7
:107EB0006FC0863521F484E090D080E0DECF843638
:107EC00009F040C070D06FD0082F6DD080E0C81688
:107ED00080E7D80618F4F601B7BEE895C0E0D1E017
:107EE00062D089930C17E1F7F0E0CF16F0E7DF06D8
:107EF00018F0F601B7BEE89568D007B600FCFDCFD4
:107F0000A601A0E0B1E02C9130E011968C91119780
:107F100090E0982F8827822B932B1296FA010C0160
:107F200087BEE89511244E5F5F4FF1E0A038BF0790
:107F300051F7F601A7BEE89507B600FCFDCF97BE46
:107F4000E89526C08437B1F42ED02DD0F82E2BD052
:107F50003CD0F601EF2C8F010F5F1F4F84911BD097
:107F6000EA94F801C1F70894C11CD11CFA94CF0C13
:107F7000D11C0EC0853739F428D08EE10CD085E9AC
:107F80000AD08FE07ACF813511F488E018D01DD067
:107F900080E101D065CF982F8091C00085FFFCCF94
:107FA0009093C60008958091C00087FFFCCF809118
:107FB000C00084FD01C0A8958091C6000895E0E648
:107FC000F0E098E1908380830895EDDF803219F02E
:107FD00088E0F5DFFFCF84E1DECF1F93182FE3DFCA
:107FE0001150E9F7F2DF1F91089580E0E8DFEE27F6
:047FF000FF270994CA
:027FFE00040479
:00000001FF
