:100000000C9463000C948B000C948B000C948B006C
:100010000C948B000C948B000C948B000C94530567
:100020000C948B000C948B000C948B000C948B0024
:100030000C948B000C948B000C948B000C948B0014
:100040000C9409050C948B000C94FB050C94D505BD
:100050000C948B000C948B000C948B000C948B00F4
:100060000C942D060C948B00020000000024002745
:10007000002A0000000000250028002B00000000DE
:1000800000230026002900040404040404040402DC
:100090000202020202030303030303010204081025
:1000A00020408001020408102001020408102000F2
:1000B0000000080002010000030407000000000027
:1000C000000000004C0711241FBECFEFD8E0DEBFB8
:1000D000CDBF11E0A0E0B1E0E8E0F4E102C005909E
:1000E0000D92A23CB107D9F723E0A2ECB1E001C028
:1000F0001D92AB34B207E1F710E0C3E6D0E004C0D4
:100100002197FE010E94FC09C236D107C9F70E945F
:1001100094070C94020A0C940000833081F028F4B8
:10012000813099F08230A9F008958730A9F08830A5
:10013000C9F08430B1F4809180008F7D03C080913C
:1001400080008F7780938000089584B58F7784BD79
:10015000089584B58F7DFBCF8091B0008F77809319
:10016000B00008958091B0008F7DF9CFCF93DF93D9
:10017000282F30E0F901E155FF4F8491F901E55650
:10018000FF4FD491F901E957FF4FC491CC23A1F05F
:1001900081110E948D00EC2FF0E0EE0FFF1FE3585D
:1001A000FF4FA591B491EC91ED2381E090E009F42B
:1001B00080E0DF91CF91089580E090E0FACF1F9327
:1001C000CF93DF93282F30E0F901E155FF4F849161
:1001D000F901E556FF4FD491F901E957FF4FC4915A
:1001E000CC23A9F0162F81110E948D00EC2FF0E096
:1001F000EE0FFF1FED58FF4FA591B4918FB7F89404
:10020000EC91111108C0D095DE23DC938FBFDF91F4
:10021000CF911F910895DE2BF8CFCF93DF9390E01D
:10022000FC01E556FF4F249189579F4FFC018491B3
:100230008823D1F090E0880F991FFC01E759FF4F08
:10024000A591B491FC01ED58FF4FC591D491623056
:1002500071F49FB7F8943C91822F809583238C93FF
:10026000E8812E2B28839FBFDF91CF9108958FB710
:10027000F894EC912E2B2C938FBFF6CF3FB7F894C8
:100280008091920290919302A0919402B091950274
:1002900026B5A89B05C02F3F19F00196A11DB11DE1
:1002A0003FBFBA2FA92F982F8827BC01CD01620F1D
:1002B000711D811D911D42E0660F771F881F991FD8
:1002C0004A95D1F708958F929F92AF92BF92CF92A5
:1002D000DF92EF92FF924B015C010E943E016B01A5
:1002E0007C010E943E016C197D098E099F09683EC0
:1002F000734081059105A8F321E0821A9108A108B5
:10030000B10888EEC80E83E0D81EE11CF11C8114F0
:100310009104A104B10429F7FF90EF90DF90CF90F2
:10032000BF90AF909F908F90089508950895AF92D9
:10033000BF92CF92DF92EF92FF920F931F93CF93D2
:10034000DF936C017B018B01040F151FEB015E0134
:10035000AE18BF08C017D10759F06991D601ED91C9
:10036000FC910190F081E02DC6010995892B79F768
:10037000C501DF91CF911F910F91FF90EF90DF901A
:10038000CF90BF90AF900895FC01538D448D252FE1
:1003900030E0842F90E0821B930B541710F0CF961F
:1003A000089501970895FC01918D828D981761F051
:1003B000A28DAE0FBF2FB11D5D968C91928D9F5F68
:1003C0009F73928F90E008958FEF9FEF0895FC0147
:1003D000918D828D981731F0828DE80FF11D858DFA
:1003E00090E008958FEF9FEF0895FC01918D228D8D
:1003F000892F90E0805C9F4F821B91098F73992712
:10040000089586E992E00E94F50121E0892B09F424
:1004100020E0822F089580E090E0892B29F00E944F
:10042000010281110C9400000895FC01A48DA80F15
:10043000B92FB11DA35ABF4F2C91848D90E0019626
:100440008F739927848FA689B7892C93A089B18946
:100450008C91837080648C93938D848D981306C0E7
:100460000288F389E02D80818F7D80830895EF924B
:10047000FF920F931F93CF93DF93EC0181E0888F5E
:100480009B8D8C8D98131AC0E889F989808185FF2E
:1004900015C09FB7F894EE89FF896083E889F989D0
:1004A00080818370806480839FBF81E090E0DF91D2
:1004B000CF911F910F91FF90EF900895F62E0B8D25
:1004C00010E00F5F1F4F0F731127E02E8C8D8E11E0
:1004D0000CC00FB607FCFACFE889F989808185FF47
:1004E000F5CFCE010E941502F1CFEB8DEC0FFD2F61
:1004F000F11DE35AFF4FF0829FB7F8940B8FEA8902
:10050000FB8980818062CFCFCF93DF93EC01888D10
:100510008823B9F0AA89BB89E889F9898C9185FD7E
:1005200003C0808186FD0DC00FB607FCF7CF8C910C
:1005300085FFF2CF808185FFEDCFCE010E941502AD
:10054000E9CFDF91CF91089520912A02260F33271A
:10055000331F21323105ECF420914E02FC0190E072
:1005600080E0243069F082E00895A0912A02219170
:10057000AC01465F5D4FA40FB52FB11D2C930196C2
:10058000861798F380912A02680F60932A0280E010
:10059000089581E0089510924E0281E08093500208
:1005A00010924F0261E082E10E94DF0061E083E18E
:1005B0000E94DF00E9EBF0E080818E7F8083808104
:1005C0008D7F808388E48093B80085E48093BC00AD
:1005D0000895CF93DF9391E0909309028823B9F0B7
:1005E000C091B800D091BA008091BC008A7B809302
:1005F000BC0060E082E10E94DF0060E083E10E94D5
:10060000DF000E94CB02D093BA00C093B800DF9104
:10061000CF9108950895E0917B0280917A02E817C6
:1006200030F4F0E0EC51FE4F808190E008958FEFC0
:100630009FEF089590917B0280917A022FEF3FEF18
:10064000981748F4E92FF0E0EC51FE4F208130E09C
:100650009F5F90937B02C901089580917A029091E7
:100660007B02891B990B0895CF92DF92EF92FF9244
:100670000F931F93CF93DF937C01CB018A012091CD
:10068000E301222389F0EB016B01C40ED51ECC15CA
:10069000DD0569F06991D701ED91FC910190F08140
:1006A000E02DC7010995F3CF642F0E94A402C80171
:1006B000DF91CF911F910F91FF90EF90DF90CF903E
:1006C0000895CF93DF931F92CDB7DEB76983209152
:1006D000E3012223F9F020917802203258F021E042
:1006E00030E0FC013383228390E080E00F90DF91C3
:1006F000CF91089580917902E82FF0E0ED53FE4FFD
:10070000998190838F5F809379028093780281E052
:1007100090E0ECCF61E0CE0101960E94A402F7CFF9
:10072000CF92DF92EF92FF920F931F93CF93DF93BD
:10073000FC01C48121E02093E301C093C201109227
:100740007902109278028385682B83E393E00E94FC
:100750006103D0917802D13208F092C00E943E012C
:100760006B017C0180914E02811165C082E0809313
:100770004E0281E0809350028FEF80934D021092E1
:100780007202D0937102A3ECB1E0E1E5F2E080E007
:10079000D81385C01092730280917302CC0FC82BBE
:1007A000C093730280914F02813009F07CC0109297
:1007B0004F020E943E016B017C0180917302809385
:1007C000BB008091050290910602A0910702B091B2
:1007D0000802892B8A2B8B2B99F00E943E010091F5
:1007E00005021091060220910702309108026C194F
:1007F0007D098E099F090617170728073907E0F1B9
:100800008091BC0083FDD9CF85EC8093BC000E9411
:100810003E016B017C0180914E02823009F445C09B
:1008200080914D028F3F61F180914D02803241F104
:1008300080914D0225C08091050290910602A09101
:100840000702B0910802892B8A2B8B2B09F48ACFDF
:100850000E943E01009105021091060220910702BC
:10086000309108026C197D098E099F090617170738
:100870002807390708F076CF809104020E94E90228
:1008800010927902109278021092E301DF91CF91D9
:100890001F910F91FF90EF90DF90CF9008959D9161
:1008A00091938F5F75CF85EEB0CF809105029091C7
:1008B0000602A0910702B0910802892B8A2B8B2B8C
:1008C00009F4A9CF0E943E01009105021091060291
:1008D00020910702309108026C197D098E099F0949
:1008E000061717072807390708F095CFC5CF0895D1
:1008F00090E080E00895FB0101900020E9F7319736
:10090000AF01461B570BDC01ED91FC910280F38196
:10091000E02D099485ED8093BC00809105029091B3
:100920000602A0910702B09108020796A11DB11D11
:1009300023E0B695A795979587952A95D1F72091AD
:10094000BC0024FD03C010924E02089540910502A0
:10095000509106026091070270910802452B462BC8
:10096000472B69F30097A105B10541F02AE22A95CA
:10097000F1F700C00197A109B109E1CF809104020C
:100980000C94E9020F931F93CF938C01C62F0E9402
:1009900090036C2F6460C8010E9490036C2F6B7FE2
:1009A000C8010E94900383EC90E00197F1F7CF918A
:1009B0001F910F9108950F931F93CF93DF938C0195
:1009C000D62FC42F607F642B0E94C20480E1D89F81
:1009D000B00111246C2BC801DF91CF911F910F91B1
:1009E0000C94C20440E061E08FE393E00E94DB04DA
:1009F0008BE39FE10197F1F7089540E060E88FE312
:100A000093E00C94DB0441E00E94DB0481E090E081
:100A100008951F920F920FB60F9211242F933F93B8
:100A20008F939F93AF93BF9380918E0290918F028B
:100A3000A0919002B091910230918D0223E0230F9A
:100A40002D3758F50196A11DB11D20938D0280937D
:100A50008E0290938F02A0939002B09391028091A6
:100A6000920290919302A0919402B0919502019606
:100A7000A11DB11D8093920290939302A0939402C2
:100A8000B0939502BF91AF919F918F913F912F911C
:100A90000F900FBE0F901F90189526E8230F029617
:100AA000A11DB11DD2CF1F920F920FB60F9211242C
:100AB0002F933F934F935F936F937F938F939F9366
:100AC000AF93BF93EF93FF93809181029091820245
:100AD000A0918302B0918402892B8A2B8B2BD1F1B8
:100AE00090917C02E0917D02F0917E0280818927C5
:100AF00080838091810290918202A0918302B091C3
:100B00008402181619061A061B069CF480918102AD
:100B100090918202A0918302B09184020197A10971
:100B2000B1098093810290938202A0938302B093D3
:100B30008402FF91EF91BF91AF919F918F917F912F
:100B40006F915F914F913F912F910F900FBE0F903A
:100B50001F90189580910001E8E6F0E0E4919FEF86
:100B600090930001E13051F030F0E23069F060E044
:100B70000E94DF00DECF10926E00F9CF90916F00DF
:100B80009D7F90936F00F3CF909170009D7F909325
:100B9000700091E09093B0009091B100987F9460C4
:100BA0009093B1001092B300E2CF1F920F920FB654
:100BB0000F9211242F933F934F935F936F937F93E3
:100BC0008F939F93AF93BF93EF93FF9386E992E048
:100BD0000E941502FF91EF91BF91AF919F918F916C
:100BE0007F916F915F914F913F912F910F900FBE29
:100BF0000F901F9018951F920F920FB60F9211240D
:100C00002F938F939F93EF93FF93E091A602F09120
:100C1000A7028081E091AC02F091AD0282FD1BC081
:100C200090818091AF028F5F8F732091B002821705
:100C300041F0E091AF02F0E0EA56FD4F958F8093CE
:100C4000AF02FF91EF919F918F912F910F900FBE67
:100C50000F901F9018958081F4CF1F920F920FB6BE
:100C60000F9211242F933F934F935F936F937F9332
:100C70008F939F93AF93BF93EF93FF938091B900AE
:100C8000887F803609F44AC0F0F5883209F4A7C09D
:100C900018F5803109F49BC0B8F4882309F4F9C031
:100CA000883009F494C0FF91EF91BF91AF919F916B
:100CB0008F917F916F915F914F913F912F910F9005
:100CC0000FBE0F901F901895883109F488C08032AC
:100CD00051F780934D0214C0803409F49DC040F454
:100CE0008033B9F38833F9F680934D0285ECB0C0B8
:100CF000803509F485C0883509F496C0883499F6A2
:100D00000E948A04D0CF883909F48CC038F588371E
:100D100029F050F4883611F0803729F683E080936B
:100D20004E0210924C0257C0883809F47BC08039BB
:100D300019F0803809F0B7CF80914C02803208F06A
:100D400071C0E0914C0281E08E0F80934C02809143
:100D5000BB00F0E0E45DFD4F80833DC0803B39F097
:100D6000E0F4803A09F479C0883A09F09CCF84E035
:100D700080934E0210922B0210922A02E09176028A
:100D8000F0917702099580912A0281110FC081E0CC
:100D900080932A0210920A0209C0803C09F4A6CF6F
:100DA000883C09F4A3CF883B09F07DCFE0912B026A
:100DB00081E08E0F80932B02F0E0E65FFD4F808193
:100DC0008093BB0090912B0280912A0229C08091D0
:100DD00073028093BB0085EC8093BC0064CF90913C
:100DE000720280917102981758F5E091720281E0C9
:100DF0008E0F80937202F0E0EF5AFD4F8081E9CFB1
:100E0000E091720281E08E0F809372028091BB00AC
:100E1000F0E0EF5AFD4F8083909172028091710251
:100E20009817C8F285E8D8CFE091720281E08E0F62
:100E3000809372028091BB00F0E0EF5AFD4F8083F7
:100E40008091500281115CCF81E080934F0284EA4F
:100E50008093BC0010924E0226CF85EC8093BC009C
:100E600010924E0280914C02803230F4E0914C029C
:100E7000F0E0E45DFD4F108260914C0270E0E09183
:100E80007402F09175028CE292E0099510924C0286
:100E90000ACF10924D0234CFE6E9F2E013821282BB
:100EA00088EE93E0A0E0B0E084839583A683B783C7
:100EB00025E031E03183208325EC30E0358724873D
:100EC00024EC30E03787268720EC30E0318B208B14
:100ED00021EC30E0338B228B22EC30E0358B248BFD
:100EE00026EC30E0378B268B118E128E138E148EEB
:100EF000E3E3F3E01382128284839583A683B783AE
:100F000087E191E091838083EFE3F3E01382128223
:100F100089E291E09183808380E2848380E181870C
:100F200082E0828713860895789484B5826084BDB8
:100F300084B5816084BD85B5826085BD85B58160DD
:100F400085BD80916E00816080936E00109281005B
:100F50008091810082608093810080918100816016
:100F600080938100809180008160809380008091D7
:100F7000B10084608093B1008091B0008160809363
:100F8000B00080917A00846080937A0080917A002A
:100F9000826080937A0080917A00816080937A00E9
:100FA00080917A00806880937A001092C100E0916D
:100FB000A602F091A70282E08083E091A202F09164
:100FC000A3021082E091A402F091A5028FEC80832D
:100FD0001092AE02E091AA02F091AB0286E080830B
:100FE000E091A802F091A902808180618083E09164
:100FF000A802F091A902808188608083E091A80214
:10100000F091A902808180688083E091A802F0912C
:10101000A90280818F7D808361E086E00E940D01BE
:1010200061E087E00E940D0162E084E00E940D0112
:1010300062E085E00E940D0161E088E00E940D0100
:1010400010927B0210927A0210927902109278022A
:101050000E94CB0285E991E090937702809376021B
:1010600086E991E090937502809374021092440394
:1010700080914903823018F098E090934403809364
:10108000470362E370E080E090E00E9463016091BA
:101090004A038FE393E00E94900368EE73E080E0E0
:1010A00090E00E94630160E38FE393E00E94C2043A
:1010B000CBE4D6E4CE010197F1F760E38FE393E050
:1010C0000E94C2042197F1F760E38FE393E00E944E
:1010D000C20483E592E00197F1F760E28FE393E0C9
:1010E0000E94C20460914403606240E08FE393E099
:1010F0000E94DB0484E08093450340E06CE08FE3D2
:1011000093E00E94DB040E94F20482E08093460395
:1011100040E066E08FE393E00E94DB0440E062E0A1
:101120008FE393E00E94DB048BE39FE10197F1F7EB
:1011300088E080934A0360E08FE393E00E9490038D
:101140000E94FD0461E371E08FE393E00E947B0461
:101150006CED75E080E090E00E9463010E94F20473
:1011600066E471E086E992E00E947B0449E2642E25
:1011700048E6742E58E6E52E50E0F52E6EE8262E51
:1011800060E0362E02EA10E078E5872E72E0972EB6
:10119000A12CB12C30E0432E30E0532E84E00E948D
:1011A000B6006C0185E00E94B600CD2841F1892B84
:1011B00031F164E671E086E992E00E947B040E94CE
:1011C000FD046DE771E08FE393E00E947B0461E032
:1011D00088E00E94DF0068EE73E080E090E00E940B
:1011E000630160E088E00E94DF0041145104B1F225
:1011F0000E940102882391F20E940000CBCF6EE88A
:1012000071E086E992E00E947B040E94F2040E9451
:10121000FD0463EA71E08FE393E00E947B0464EFD6
:1012200071E080E090E00E9463010E94F2040E945D
:10123000FD0465EB71E08FE393E00E947B048091F5
:101240000001873029F5F701C491C7FDBCC061E0FA
:1012500087E00E940D01CC2309F488C0C23009F058
:1012600099C08091B100887F85608093B1008FEC38
:101270008093B3008092810290928202A0928302B6
:10128000B0928402809170008260809370009BC055
:101290008F3F09F098C087E080930001F701C49167
:1012A000CF3F09F490C0C13019F150F0C23009F4B9
:1012B0003CC0C7FD88C061E087E00E940D01CECF31
:1012C00014BC15BC84B5826084BD85B5816085BDC4
:1012D000F1018491E82FF0E0EE0FFF1FED58FF4F72
:1012E00085919491F801849180938002C0E0AFCF02
:1012F000109280001092810080918100886080931C
:10130000810080918100816080938100F10184914E
:10131000E82FF0E0EE0FFF1FED58FF4F85919491FD
:10132000F801849180937F0292CF1092B0001092C6
:10133000B1008091B00082608093B0008091B100D4
:1013400081608093B100F1018491E82FF0E0EE0F0D
:10135000FF1FED58FF4F8591949190937E028093EB
:101360007D02F801849180937C0271CF85B5887FDE
:10137000846085BD87E687BD8092890290928A024B
:10138000A0928B02B0928C0280916E00826080935A
:101390006E0019C0C13041F580918100887F816065
:1013A000809381007092890060928800809285020B
:1013B00090928602A0928702B092880280916F007C
:1013C000826080936F0061E086E00E94DF0068EE3B
:1013D00073E080E090E00E94630160E087E00E949B
:1013E000DF0060E086E0FFCEC23021F0C111EBCF1C
:1013F00089E2C1CF89E23CCFEE0FFF1F0590F49147
:08140000E02D0994F894FFCFE0
:10140800FF0000000037029701C4018402F501D3F0
:1014180001E701000000006103340378040A032D8A
:10142800031A030B030000000003059701780477F3
:10143800045061726B696E6720436F6E74726F6CD3
:101448006C65722121005061726B696E6720436F71
:101458006E74726F6C6C65722053797374656D214C
:101468002121210043617220497320496E20436F76
:101478007272656374204C6F7421212100436F726E
:1014880072656374205061726B696E672100496EE2
:10149800636F7272656374205061726B696E672145
:1014A800212100496E636F72726563742050617206
:1014B8006B696E670054727920416761696E2021FB
:0214C800210001
:00000001FF
