:020000040000FA
:100000000C9463000C948B000C948B000C948B006C
:100010000C948B000C948B000C948B000C948B0034
:100020000C948B000C948B000C948B000C946C083B
:100030000C948B000C948B000C948B000C948B0014
:100040000C94AB060C948B000C941B070C94F506D7
:100050000C948B000C948B000C948B000C948B00F4
:100060000C944D070C948B00000000002400270026
:100070002A0000000000250028002B0000000000DE
:1000800023002600290004040404040404040202DA
:100090000202020203030303030301020408102007
:1000A0004080010204081020010204081020000012
:1000B0000008000201000003040700000000000027
:1000C00000002809360E11241FBECFEFD8E0DEBF96
:1000D000CDBF12E0A0E0B1E0E6EFF1E202C0059092
:1000E0000D92AA3AB107D9F724E0AAEAB2E001C01A
:1000F0001D92AA3CB207E1F710E0C2E6D0E004C0CE
:100100002197FE010E94ED0EC136D107C9F70E946A
:100110001D0A0C94EE100C9400008F929F92AF92E7
:10012000BF92FF920F931F93CF93DF93F0904804F9
:100130002BE02F1508F44CC020914A0408E512E08A
:10014000021B110927FD1395000F111F000F111F2E
:1001500020914904C8E8D0E0C21BD10927FDD395FE
:10016000CC0FDD1FCC0FDD1F4E010D2E000CAA0899
:10017000BB089801012E000C440B550B28193909B6
:100180004A095B09DC010E94710E24EB30E040E07B
:1001900050E00E94470E820E931EA41EB51E8C16C0
:1001A0009D062CF0E801801691060CF4E4012297DC
:1001B000CC0FDD1F2FB7F8948F2D90E0FC01EE0FD0
:1001C000FF1FE80FF91FE95EFB4FD283C1832FBFEA
:1001D000DF91CF911F910F91FF90BF90AF909F90B3
:1001E0008F90089596E0899FD0011124A95ABB4FA2
:1001F00090967C936E935F9791E091969C939197E4
:10020000E091C404F091C5049091C304992339F09E
:10021000309751F0811108C0809173040994309790
:1002200019F05C968C91FACF0895CF92DF92EF92FD
:10023000FF920F931F9396E0899FF0011124E95AD2
:10024000FB4F11A2278D30A12130310551F178F0FB
:100250002230310509F451C02330310509F452C070
:100260001F910F91FF90EF90DF90CF90089566233C
:10027000B9F361E070E00E94F2002FB7F89480912A
:100280006A0390916B03A0916C03B0916D032FBF33
:100290008093AF049093B004A093B104B093B204E0
:1002A000DFCF9FB7F894C0906A03D0906B03E090C3
:1002B0006C03F0906D039FBF0091AF041091B004E8
:1002C0002091B1043091B204C01AD10AE20AF30AB3
:1002D0000091C1041091C20430E020E00C151D050E
:1002E0002E053F0550F462E070E01F910F91FF90E2
:1002F000EF90DF90CF900C94F2006111B1CF63E0EA
:1003000070E0F3CF70E060E0F0CF833081F028F44C
:10031000813099F08230A9F008958730A9F08830B3
:10032000C9F08430B1F4809180008F7D03C080914A
:1003300080008F7780938000089584B58F7784BD87
:10034000089584B58F7DFBCF8091B0008F77809327
:10035000B00008958091B0008F7DF9CFCF93DF93E7
:10036000282F30E0F901E255FF4F8491F901E6565C
:10037000FF4FD491F901EA57FF4FC491CC23A1F06C
:1003800081110E948501EC2FF0E0EE0FFF1FE45871
:10039000FF4FA591B491EC91ED2381E090E009F439
:1003A00080E0DF91CF91089580E090E0FACF1F9335
:1003B000CF93DF93282F30E0F901E255FF4F84916E
:1003C000F901E656FF4FD491F901EA57FF4FC49166
:1003D000CC23A9F0162F81110E948501EC2FF0E0AB
:1003E000EE0FFF1FEE58FF4FA591B4918FB7F89411
:1003F000EC91111108C0D095DE23DC938FBFDF9103
:10040000CF911F910895DE2BF8CFCF93DF9390E02B
:10041000FC01E656FF4F24918A579F4FFC018491BF
:100420008823C9F090E0880F991FFC01E859FF4F1D
:10043000A591B491FC01EE58FF4FC591D491611183
:100440000DC09FB7F8948C91209582238C9388815E
:10045000282328839FBFDF91CF910895623051F404
:100460009FB7F8943C91822F809583238C93E881E9
:100470002E2BEFCF8FB7F894EC912E2B2C938FBFB0
:10048000EACF3FB7F8948091660390916703A091FB
:100490006803B091690326B5A89B05C02F3F19F0EA
:1004A0000196A11DB11D3FBFBA2FA92F982F8827F4
:1004B000BC01CD01620F711D811D911D42E0660FCF
:1004C000771F881F991F4A95D1F708958F929F92A1
:1004D000AF92BF92CF92DF92EF92FF924B015C01FD
:1004E0000E9441026B017C010E9441026C197D094E
:1004F0008E099F09683E734081059105A8F321E0AC
:10050000821A9108A108B10888EEC80E83E0D81EAF
:10051000E11CF11C81149104A104B10429F7FF909E
:10052000EF90DF90CF90BF90AF909F908F90089505
:10053000862F642F0C940502862F642F0C94D7010C
:10054000862F0C94AE0108950895AF92BF92CF927A
:10055000DF92EF92FF920F931F93CF93DF936C0183
:100560007B018B01040F151FEB015E01AE18BF0864
:10057000C017D10759F06991D601ED91FC91019016
:10058000F081E02DC6010995892B79F7C501DF912E
:10059000CF911F910F91FF90EF90DF90CF90BF9080
:1005A000AF900895FC01538D448D252F30E0842FAA
:1005B00090E0821B930B541710F0CF96089501978B
:1005C0000895FC01918D828D981761F0A28DAE0F78
:1005D000BF2FB11D5D968C91928D9F5F9F73928FFF
:1005E00090E008958FEF9FEF0895FC01918D828D2B
:1005F000981731F0828DE80FF11D858D90E00895F8
:100600008FEF9FEF0895FC01918D228D892F90E04F
:10061000805C9F4F821B91098F73992708958EE606
:1006200093E00E94030321E0892B09F420E0822F4C
:10063000089580E090E0892B29F00E940F0381113A
:100640000C9400000895FC01A48DA80FB92FB11DD2
:10065000A35ABF4F2C91848D90E001968F739927F8
:10066000848FA689B7892C93A089B1898C918370D6
:1006700080648C93938D848D981306C00288F389CF
:10068000E02D80818F7D80830895EF92FF920F93FC
:100690001F93CF93DF93EC0181E0888F9B8D8C8D2E
:1006A00098131AC0E889F989808185FF15C09FB722
:1006B000F894EE89FF896083E889F98980818370E5
:1006C000806480839FBF81E090E0DF91CF911F9194
:1006D0000F91FF90EF900895F62E0B8D10E00F5FB5
:1006E0001F4F0F731127E02E8C8D8E110CC00FB68B
:1006F00007FCFACFE889F989808185FFF5CFCE0123
:100700000E942303F1CFEB8DEC0FFD2FF11DE35A77
:10071000FF4FF0829FB7F8940B8FEA89FB898081A5
:100720008062CFCFCF93DF93EC01888D8823B9F01F
:10073000AA89BB89E889F9898C9185FD03C08081EC
:1007400086FD0DC00FB607FCF7CF8C9185FFF2CF69
:10075000808185FFEDCFCE010E942303E9CFDF9199
:10076000CF91089520911303260F3327331F213291
:100770003105ECF420913703FC0190E080E0243057
:1007800069F082E00895A09113032191AC014D50CE
:100790005D4FA40FB52FB11D2C930196861798F3CA
:1007A00080911303680F6093130380E0089581E044
:1007B00008951092370381E0809339031092380333
:1007C00061E082E10E94D70161E083E10E94D701EC
:1007D000E9EBF0E080818E7F808380818D7F808354
:1007E00088E48093B80085E48093BC000895CF939B
:1007F000DF9391E09093F2028823B9F0C091B800A2
:10080000D091BA008091BC008A7B8093BC0060E0EC
:1008100082E10E94D70160E083E10E94D7010E943B
:10082000D903D093BA00C093B800DF91CF91089557
:100830000895E091640380916303E81730F4F0E0D9
:10084000E353FD4F808190E008958FEF9FEF08956F
:1008500090916403809163032FEF3FEF981748F462
:10086000E92FF0E0E353FD4F208130E09F5F90934C
:100870006403C90108958091630390916403891B07
:10088000990B0895CF92DF92EF92FF920F931F93EF
:10089000CF93DF937C01CB018A012091CC022223EC
:1008A00089F0EB016B01C40ED51ECC15DD0569F096
:1008B0006991D701ED91FC910190F081E02DC70184
:1008C0000995F3CF642F0E94B203C801DF91CF9145
:1008D0001F910F91FF90EF90DF90CF900895CF93ED
:1008E000DF931F92CDB7DEB769832091CC0222231C
:1008F000F9F020916103203258F021E030E0FC0152
:100900003383228390E080E00F90DF91CF910895B0
:1009100080916203E82FF0E0E455FD4F99819083C8
:100920008F5F809362038093610381E090E0ECCF5E
:1009300061E0CE0101960E94B203F7CFCF92DF9221
:10094000EF92FF920F931F93CF93DF93FC01C4812B
:1009500021E02093CC02C093AB021092620310926C
:1009600061038385682B8BE094E00E946F04D09133
:100970006103D13208F092C00E9441026B017C01F8
:1009800080913703811165C082E08093370381E055
:10099000809339038FEF8093360310925B03D093DB
:1009A0005A03ACEAB2E0EAE3F3E080E0D81385C092
:1009B00010925C0380915C03CC0FC82BC0935C0346
:1009C00080913803813009F07CC0109238030E9476
:1009D00041026B017C0180915C038093BB0080919C
:1009E000EE029091EF02A091F002B091F102892BFA
:1009F0008A2B8B2B99F00E9441020091EE021091FC
:100A0000EF022091F0023091F1026C197D098E09FC
:100A10009F090617170728073907E0F18091BC00E6
:100A200083FDD9CF85EC8093BC000E9441026B010D
:100A30007C0180913703823009F445C080913603F0
:100A40008F3F61F180913603803241F1809136030E
:100A500025C08091EE029091EF02A091F002B0913A
:100A6000F102892B8A2B8B2B09F48ACF0E94410239
:100A70000091EE021091EF022091F0023091F1020C
:100A80006C197D098E099F09061717072807390772
:100A900008F076CF8091ED020E94F7031092620376
:100AA000109261031092CC02DF91CF911F910F91B0
:100AB000FF90EF90DF90CF9008959D9191938F5F7D
:100AC00075CF85EEB0CF8091EE029091EF02A091AC
:100AD000F002B091F102892B8A2B8B2B09F4A9CF5C
:100AE0000E9441020091EE021091EF022091F0026B
:100AF0003091F1026C197D098E099F0906171707BD
:100B00002807390708F095CFC5CF089590E080E019
:100B100008950F931F93CF938C01C62F0E949E04BC
:100B20006C2F6460C8010E949E046C2F6B7FC8010B
:100B30000E949E0483EC90E00197F1F7CF911F9102
:100B40000F9108950F931F93CF93DF938C01D62FAE
:100B5000C42F607F642B0E94890580E1D89FB0017B
:100B600011246C2BC801DF91CF911F910F910C9430
:100B7000890540E061E08BE494E00E94A2058BE3EC
:100B80009FE10197F1F70895CF93DF93CDB7DEB7DB
:100B900028970FB6F894DEBF0FBECDBF98E0E9E10D
:100BA000F1E0DE01119601900D929A95E1F7909196
:100BB0005304961710F46FEF690F262F30E0220FC1
:100BC000331F41E050E04C0F5D1F240F351FF9012A
:100BD0006081680F606840E08BE494E028960FB66F
:100BE000F894DEBF0FBECDBFDF91CF910C94A2056C
:100BF00041E00E94A20581E090E00895FB01019090
:100C00000020E9F73197AF01461B570BDC01ED914E
:100C1000FC910280F381E02D0994CF93DF93BC0116
:100C20008EE693E00E94FE05EC016BE571E08EE636
:100C300093E00E94FE058C0F9D1FDF91CF910895D8
:100C40000F931F93CF93DF93EC01888199810097D5
:100C500059F02A813B812617370730F081E0DF9178
:100C6000CF911F910F9108958B016F5F7F4F0E946D
:100C70001810009759F0998388831B830A832C816D
:100C80003D81232B59F7FC011082E8CF80E0E7CFAC
:100C9000EF92FF920F931F93CF93DF93EC017B01B1
:100CA0008A01BA010E94200628813981811114C06D
:100CB0002115310519F0C9010E948F0F1982188280
:100CC0001D821C821B821A82CE01DF91CF911F915F
:100CD0000F91FF90EF9008951D830C83B701C90118
:100CE0000E94E710F1CF85ED8093BC008091EE0269
:100CF0009091EF02A091F002B091F1020796A11D30
:100D0000B11D23E0B695A795979587952A95D1F7BC
:100D10002091BC0024FD03C0109237030895409138
:100D2000EE025091EF026091F0027091F102452BBA
:100D3000462B472B69F30097A105B10541F02AE244
:100D40002A95F1F700C00197A109B109E1CF80917F
:100D5000ED020C94F7031F920F920FB60F9211241D
:100D60002F933F938F939F93AF93BF9380916A0389
:100D700090916B03A0916C03B0916D03309165036A
:100D800023E0230F2D3758F50196A11DB11D2093A7
:100D9000650380936A0390936B03A0936C03B093F5
:100DA0006D038091660390916703A0916803B091F1
:100DB00069030196A11DB11D80936603909367039B
:100DC000A0936803B0936903BF91AF919F918F91F6
:100DD0003F912F910F900FBE0F901F90189526E80E
:100DE000230F0296A11DB11DD2CF1F920F920FB6F5
:100DF0000F9211242F933F934F935F936F937F93A1
:100E00008F939F93AF93BF93EF93FF938EE693E0FF
:100E10000E942303FF91EF91BF91AF919F918F911A
:100E20007F916F915F914F913F912F910F900FBEE6
:100E30000F901F9018951F920F920FB60F921124CA
:100E40002F938F939F93EF93FF93E0917E03F09105
:100E50007F038081E0918403F091850382FD1BC0B4
:100E60009081809187038F5F8F7320918803821711
:100E700041F0E0918703F0E0E259FC4F958F8093B9
:100E80008703FF91EF919F918F912F910F900FBE4C
:100E90000F901F9018958081F4CF1F920F920FB67C
:100EA0000F9211242F933F934F935F936F937F93F0
:100EB0008F939F93AF93BF93EF93FF938091B9006C
:100EC000887F803609F44AC0F0F5883209F4A7C05B
:100ED00018F5803109F49BC0B8F4882309F4F9C0EF
:100EE000883009F494C0FF91EF91BF91AF919F9129
:100EF0008F917F916F915F914F913F912F910F90C3
:100F00000FBE0F901F901895883109F488C0803269
:100F100051F78093360314C0803409F49DC040F427
:100F20008033B9F38833F9F68093360385ECB0C08B
:100F3000803509F485C0883509F496C0883499F65F
:100F40000E947306D0CF883909F48CC038F58837F1
:100F500029F050F4883611F0803729F683E0809329
:100F600037031092350357C0883809F47BC08039A5
:100F700019F0803809F0B7CF80913503803208F03E
:100F800071C0E091350381E08E0F8093350380912D
:100F9000BB00F0E0EB5EFC4F80833DC0803B39F04E
:100FA000E0F4803A09F479C0883A09F09CCF84E0F3
:100FB000809337031092140310921303E0915F03A0
:100FC000F091600309958091130381110FC081E0B6
:100FD000809313031092F30209C0803C09F4A6CF5A
:100FE000883C09F4A3CF883B09F07DCFE09114033E
:100FF00081E08E0F80931403F0E0ED50FD4F80816F
:101000008093BB00909114038091130329C08091B9
:101010005C038093BB0085EC8093BC0064CF90910F
:101020005B0380915A03981758F5E0915B0381E0C8
:101030008E0F80935B03F0E0E65CFC4F8081E9CF8C
:10104000E0915B0381E08E0F80935B038091BB0096
:10105000F0E0E65CFC4F808390915B0380915A0343
:101060009817C8F285E8D8CFE0915B0381E08E0F36
:1010700080935B038091BB00F0E0E65CFC4F8083D3
:101080008091390381115CCF81E08093380384EA39
:101090008093BC001092370326CF85EC8093BC0070
:1010A0001092370380913503803230F4E09135039C
:1010B000F0E0EB5EFC4F10826091350370E0E09150
:1010C0005D03F0915E0385E193E00995109235038D
:1010D0000ACF1092360334CF1F920F920FB60F92A1
:1010E00011242F933F934F935F936F937F938F932D
:1010F0009F93AF93BF93CF93DF93EF93FF93809131
:10110000AA02C0913B04D0E087FF24C01092850062
:10111000109284008091AA028F5F8093AA0280912E
:10112000AA02082E000C990B8C179D0724F48091BD
:10113000AA028C30C4F180918400909185000496BD
:1011400080349C4908F47AC0809184009091850095
:10115000049676C08091AA02082E000C990B8C1779
:101160009D07C4F6E091AA028E2FEE0F990BFC01A9
:10117000EE0FFF1FE80FF91FE95EFB4F808186FF2E
:10118000C9CFE091AA028E2FEE0F990BFC01EE0F52
:10119000FF1FE80FF91FE95EFB4F808160E08F734E
:1011A0000E94D701B7CF2091840030918500E09153
:1011B000AA028E2FEE0F990BFC01EE0FFF1FE80F16
:1011C000F91FE95EFB4F81819281820F931F9093FB
:1011D000890080938800E091AA028E2FEE0F990B70
:1011E000FC01EE0FFF1FE80FF91FE95EFB4F808146
:1011F00086FF11C0E091AA028E2FEE0F990BFC0121
:10120000EE0FFF1FE80FF91FE95EFB4F808161E0E1
:101210008F730E94D701FF91EF91DF91CF91BF9122
:10122000AF919F918F917F916F915F914F913F917E
:101230002F910F900FBE0F901F90189580E49CE99E
:1012400090938900809388008FEF8093AA02E3CF68
:10125000109271031092700388EE93E0A0E0B0E06A
:101260008093720390937303A0937403B0937503F8
:1012700025E231E030936F0320936E0325EC30E0DC
:1012800030937B0320937A0324EC30E030937D038A
:1012900020937C0320EC30E030937F0320937E0387
:1012A00021EC30E0309381032093800322EC30E086
:1012B000309383032093820326EC30E03093850340
:1012C000209384031092870310928803109289035D
:1012D00010928A0310920E0410920D0480930F0452
:1012E00090931004A0931104B093120487E391E04B
:1012F00090930C0480930B041092590410925D0497
:1013000010925C0410925E0485E591E0909358047D
:1013100080935704E3E7F4E010821482138215826D
:10132000369684E0EF3AF807B9F783E091E09093BE
:10133000BA048093B90480E091E09093BC04809358
:10134000BB0484E08093BD0493E09093BE0427E047
:1013500031E03093B8042093B7042AE030E03093B2
:10136000C0042093BF0424EF31E03093C2042093E3
:10137000C1041092C5041092C4041092B3041092D8
:10138000B4041092B5041092B6041092C3041092E3
:101390004E0410924D0429E431E030934C04209324
:1013A0004B0490E290934F0494E190935404809303
:1013B00055041092560480913B048C30D0F591E096
:1013C000980F90933B048093480490E0FC01EE0F4B
:1013D000FF1FE80FF91FE95EFB4F88EB9BE092834C
:1013E000818310924304109242041092450410929B
:1013F0004404109247041092460444E050E06EE525
:1014000071E082E494E00E94480610923D0410923C
:101410003C0410923F0410923E041092410410923A
:10142000400450E040E06DE571E08CE394E00C9402
:1014300048068FEF80934804D4CFCF93DF9300D03A
:10144000CDB7DEB7789484B5826084BD84B5816001
:1014500084BD85B5826085BD85B5816085BD80917F
:101460006E00816080936E001092810080918100F7
:1014700082608093810080918100816080938100EF
:10148000809180008160809380008091B1008460B1
:101490008093B1008091B00081608093B000809112
:1014A0007A00846080937A0080917A0082608093D1
:1014B0007A0080917A00816080937A0080917A002E
:1014C000806880937A001092C100E0917E03F091D1
:1014D0007F0382E08083E0917A03F0917B031082A6
:1014E000E0917C03F0917D038FEC80831092860362
:1014F000E0918203F091830386E08083E091800392
:10150000F0918103808180618083E0918003F0917C
:101510008103808188608083E0918003F091810362
:10152000808180688083E0918003F09181038081D5
:101530008F7D8083809148048C3008F051C061E039
:101540008AE00E94050280914804282F30E0F901CA
:10155000EE0FFF1FE20FF31FE95EFB4F9081907CBF
:101560009A6090831092490410924A042CE0622FF2
:101570000E94E10E829FB001112430E020E0AB0117
:10158000420F531FFA01EE0FFF1FE40FF51FE95E34
:10159000FB4F908196FD16C02F5F3F4F2C303105D9
:1015A00071F781110FC01092800082E0809381005A
:1015B0001092850010928400B19A80916F00826031
:1015C00080936F00E09148048E2F90E0FC01EE0FB5
:1015D000FF1FE80FF91FE95EFB4F80818064808365
:1015E00090E080E00E948D0061E08CE00E940502A6
:1015F00061E08DE00E94050261E08BE00E9405023F
:1016000083E691E00E940D0680E891E00E940D06BD
:1016100010926403109263031092620310926103AC
:101620000E94D90383EA92E09093600380935F0362
:1016300084EA92E090935E0380935D0310925004DD
:1016400080915504823018F098E090935004809374
:10165000530462E370E080E090E00E9466026091D3
:1016600056048BE494E00E949E0468EE73E080E0F0
:1016700090E00E94660260E38BE494E00E9489059A
:101680000BE416E4C8010197F1F760E38BE494E002
:101690000E948905C8010197F1F760E38BE494E0AB
:1016A0000E94890583E592E00197F1F760E28BE4FF
:1016B00094E00E94890560915004606240E08BE4F0
:1016C00094E00E94A20584E08093510440E06CE025
:1016D0008BE494E00E94A2050E94B90582E0809309
:1016E000520440E066E08BE494E00E94A20540E0F2
:1016F00062E08BE494E00E94A2058BE39FE10197F6
:10170000F1F788E08093560460E08BE494E00E9457
:101710009E0460E080E00E94C4056FE971E08BE404
:1017200094E00E94FE0568EB7BE080E090E00E9480
:1017300066020E94B905412C512C3201439440E0CD
:10174000A42E40E0B42E60E080E00E94C4056FEA61
:1017500071E08BE494E00E94FE0551E05093C304D5
:101760008FB7F89440916A0350916B0360916C03BA
:1017700070916D038FBF8091B3049091B404A091D8
:10178000B504B091B604481B590B6A0B7B0B8091D2
:10179000BF049091C004B0E0A0E084179507A607AD
:1017A000B70708F020C110E08091BD04181760F45D
:1017B000E091B904F091BA04E10FF11D62E080817B
:1017C0000E9405021F5FF0CF312C8091BE043816B5
:1017D00008F061C0E32CF12CE091BB04F091BC0453
:1017E000EE0DFF1D61E080810E940502E091BB04C7
:1017F000F091BC04EE0DFF1D60E080810E94D701D6
:10180000D301C201032C04C0880F991FAA1FBB1F5C
:101810000A94D2F74C016C01C094D094212C809191
:10182000BD04281608F5022D10E0E091B904F091EE
:10183000BA04E00FF11F80810E94AE010C5F1F4FC0
:10184000000F111FF801E95AFB4F892B41F48081E9
:10185000918188299929918380832394E0CF808185
:1018600091818C219D21F7CFE091BB04F091BC04C4
:10187000EE0DFF1D61E080810E94D7018091BB04C5
:101880009091BC04E80EF91E60E0F70180810E948F
:10189000050233949ACF07E514E07801F701878DAC
:1018A00090A1892B31F4148E8FEF9FEF968F858F47
:1018B00011A296E0E90EF11CE3E9EE16E4E0FE0663
:1018C00069F7912C8091BD04981608F053C0812CC3
:1018D000C92CD12CCC0CDD1CC601815A9B4F6C014C
:1018E0002091BE04821608F043C0F6016081718128
:1018F000082C02C0769567950A94E2F7929E9001B3
:101900001124280D311DE7E5F4E080E0458D568D6A
:101910002417350709F427C18F5F36968A30B1F74F
:1019200060FF24C0E7E5F4E090E080E0448D4111E1
:1019300018C0E091B704F091B804E20FF31F4081A2
:1019400056E0589FF001599FF00D1124E95AFB4FC2
:10195000448F368F258F10A2178E61E00E941501EB
:1019600005C0019636968A30910501F78394B8CF69
:101970009394A8CF80E0F80191A19111892F0A5F7B
:101980001F4FE016F106B9F79FB7F89440916A032C
:1019900050916B0360916C0370916D039FBF4093F6
:1019A000B3045093B4046093B5047093B6048823D1
:1019B000D1F0809178048823B1F0809176049091E1
:1019C0007704019781F48091730481110FC0A114F1
:1019D000B10409F4B8CE0E940F03882309F4B3CEF2
:1019E0000E940000B0CE1092C304F1CF833209F000
:1019F00072C020914004309141048091460490913E
:101A0000470428173907C1F480913C0490913D04A4
:101A10006091420470914304009709F4A6C06115D7
:101A2000710539F4232B09F4AEC0FC01808190E0EC
:101A3000A7C00E94DE10A4C088E392E00E940D06B9
:101A400089E492E00E940D068AE590E00E948D00F4
:101A500060ED77E080E090E00E94660290E080E038
:101A60000E948D0060ED77E080E090E00E946602C9
:101A700060E080E00E94C40560E672E08BE494E0E0
:101A80000E94FE0561E080E00E94C40565E772E007
:101A90008BE494E00E94FE0562E080E00E94C405B1
:101AA00064E872E08BE494E00E94FE0568E873E16C
:101AB00080E090E00E9466020E94B90561E08DE03E
:101AC0000E94D70160EA7FE080E090E00E94660219
:101AD00060E08DE0C0C08A3269F450E040E06DE51E
:101AE00071E08CE394E00E94480683E992E00E9452
:101AF0000D066DCF89831A82009140041091410434
:101B00000F5F1F4FB8018CE394E00E9420068823EA
:101B100099F020913C0430913D04809140049091D3
:101B20004104BE016F5F7F4F820F931F0E94E71039
:101B3000109341040093400468EA72E08EE693E05B
:101B40000E94FE0560E08EE00E94C40540914004C2
:101B50005091410460913C0470913D048BE494E009
:101B60000E94A50234CF6170F9CE6115710559F05C
:101B7000232B49F0FB01808190E09195819591099B
:101B8000892B09F059CF8BEB91E00E940D068DEC6B
:101B900091E00E940D0661E08BE00E94D70168EBA6
:101BA0007BE080E090E00E94660260E08BE00E94B3
:101BB000D70160E080E00E94C4056DED71E08BE428
:101BC00094E00E94FE0561E080E00E94C40560EFA1
:101BD00071E08BE494E00E94FE0562E080E00E94E8
:101BE000C4056EEF71E08BE494E00E94FE0568E8A6
:101BF00073E180E090E00E9466028AE590E00E9436
:101C00008D0060ED77E080E090E00E94660290E059
:101C100080E00E948D0060ED77E080E090E00E941F
:101C200066020E94B90590E080E00E948D008CE081
:101C300092E00E940D0689E192E00E940D0661E0AB
:101C40008CE00E94D70168EB7BE080E090E00E948E
:101C5000660260E08CE00E94D70150E040E06DE554
:101C600071E08CE394E00E944806B1CE80913C0480
:101C700090913D04009711F00E948F0F80914204D3
:101C800090914304009711F00C948F0F0895052E46
:101C900097FB1EF400940E945E0E57FD07D00E9431
:101CA000B00E07FC03D04EF40C945E0E5095409598
:101CB000309521953F4F4F4F5F4F089590958095F8
:101CC000709561957F4F8F4F9F4F08950E94D20E60
:101CD000A59F900DB49F900DA49F800D911D112480
:101CE0000895B7FF0C94660E0E94660E821B930B3C
:101CF00008952F923F924F925F926F927F928F92B0
:101D00009F92AF92BF92CF92DF92EF92FF920F938A
:101D10001F93CF93DF93CDB7DEB7CA1BDB0B0FB694
:101D2000F894DEBF0FBECDBF09942A883988488851
:101D30005F846E847D848C849B84AA84B984C884E7
:101D4000DF80EE80FD800C811B81AA81B981CE0FDE
:101D5000D11D0FB6F894DEBF0FBECDBFED010895C3
:101D6000A1E21A2EAA1BBB1BFD010DC0AA1FBB1F9F
:101D7000EE1FFF1FA217B307E407F50720F0A21B11
:101D8000B30BE40BF50B661F771F881F991F1A947E
:101D900069F760957095809590959B01AC01BD01A8
:101DA000CF010895A29FB001B39FC001A39F700D02
:101DB000811D1124911DB29F700D811D1124911D53
:101DC0000895991B79E004C0991F961708F0961B97
:101DD000881F7A95C9F780950895EE0FFF1F05902B
:101DE000F491E02D09940F931F93CF93DF938230EA
:101DF000910510F482E090E0E091C804F091C904EC
:101E000030E020E0B0E0A0E0309799F421153105F2
:101E100009F44AC0281B390B24303105D8F58A81D2
:101E20009B816115710589F1FB0193838283FE011A
:101E300011C0408151810281138148175907E0F098
:101E40004817590799F4109761F012960C9312975E
:101E500013961C933296CF01DF91CF911F910F9172
:101E600008950093C8041093C904F4CF21153105D7
:101E700051F04217530738F0A901DB019A01BD0167
:101E8000DF01F801C1CFEF01F9CF9093C90480932E
:101E9000C804CDCFFE01E20FF31F8193919322502E
:101EA000310939832883D7CF2091C6043091C704E4
:101EB000232B41F420911501309116013093C70472
:101EC0002093C6042091130130911401211531058E
:101ED00041F42DB73EB74091170150911801241BD2
:101EE000350BE091C604F091C704E217F307A0F4A4
:101EF0002E1B3F0B2817390778F0AC014E5F5F4F60
:101F00002417350748F04E0F5F1F5093C7044093C6
:101F1000C604819391939FCFF0E0E0E09CCFCF93F4
:101F2000DF930097E9F0FC01329713821282A091AF
:101F3000C804B091C904ED0130E020E01097A1F48D
:101F400020813181820F931F2091C6043091C704F4
:101F50002817390709F061C0F093C704E093C6045D
:101F6000DF91CF910895EA01CE17DF07E8F54A81A6
:101F70005B819E0141155105B1F7E901FB83EA83BD
:101F800049915991C40FD51FEC17FD0761F4808169
:101F900091810296840F951FE9019983888382813C
:101FA00093819B838A83F0E0E0E012968D919C916F
:101FB00013970097B9F52D913C911197CD01029699
:101FC000820F931F2091C6043091C7042817390748
:101FD00039F6309751F51092C9041092C804B093A5
:101FE000C704A093C604BCCFD383C2834081518170
:101FF000840F951FC817D90761F44E5F5F4F888122
:102000009981480F591F518340838A819B81938313
:1020100082832115310509F0B0CFF093C904E09314
:10202000C8049ECFFD01DC01C0CF13821282D7CF3E
:10203000B0E0A0E0EEE1F0E10C947B0E8C010097A3
:1020400051F4CB010E94F30E8C01C801CDB7DEB76D
:10205000E0E10C94970EFC01E60FF71F9C01225063
:102060003109E217F30708F49DC0D901CD91DC9145
:102070001197C617D70798F0C530D10530F3CE01B8
:1020800004978617970708F3C61BD70B2297C193AF
:10209000D1936D937C93CF010E948F0FD6CF5B01BC
:1020A000AC1ABD0A4C018C0E9D1EA091C804B091C3
:1020B000C904512C412CF12CE12C109731F5809161
:1020C000C6049091C7048815990509F05CC04616AE
:1020D000570608F058C080911301909114010097A1
:1020E00041F48DB79EB74091170150911801841BA0
:1020F000950BE817F90708F055C0F093C704E09373
:10210000C604F90171836083A0CF8D919C911197D2
:1021100012966C90129713967C901397A815B90598
:1021200059F56C0142E0C40ED11CCA14DB0420F145
:10213000AC014A195B09DA011296159780F06282A8
:10214000738251834083D9016D937C93E114F10430
:1021500071F0D7011396FC93EE93129776CF2296E7
:102160008C0F9D1FF90191838083F301EFCFF093D2
:10217000C904E093C80469CF4816590608F42C0135
:102180007D01D3019ACFCB010E94F30E7C01009711
:1021900049F0AE01B8010E94D510C8010E948F0F0E
:1021A000870153CF10E000E050CFFB01DC0102C0FB
:1021B00001900D9241505040D8F70895FB01DC0189
:1021C0008D91019080190110D9F3990B0895FB01AD
:1021D000DC0101900D920020E1F7089510E0C2E6C5
:1021E000D0E004C0FE010E94ED0E2196C336D10757
:1021F000C9F7F894FFCF080706050403023132330C
:102200003435363738392A30230000CA04800000BC
:1022100000400014005400000000004503A502D255
:102220000292030303E102F502000000006F044282
:1022300004860518043B042804190400000000F873
:1022400005A502860585050000000098029C02A0F5
:10225000020D0A0031323334002D2D2D20444F4F12
:1022600052205345435552495459205359535445CC
:102270004D202D2D2D00506C6561736520456E74C9
:1022800065722050617373776F726420746F204F92
:1022900070656E3A004B65797061642053656375B3
:1022A0007269747900456E74657220504153533AD7
:1022B000000A5B414343455353204752414E544526
:1022C000445D004F70656E696E6720446F6F722EBB
:1022D0002E2E0050617373776F72643A436F72727F
:1022E000656374202100446F6F72205374617465BC
:1022F0003A4F6E004C616D702053746174653A4FB3
:102300006E00446F6F72204C6F636B65642E000A21
:10231000456E7465722050617373776F72642066C6
:102320006F72206E65787420757365723A000A5B6F
:102330004143434553532044454E4945445D00576E
:10234000726F6E6720636F64652E2054727920610E
:102350006761696E3A0050617373776F72643A49CE
:102360006E636F7272656374202100446F6F722018
:1023700053746174653A4F6666004C616D7020530A
:10238000746174653A4F6666000A436C65617265F4
:10239000642E2054727920616761696E3A002A00C8
:107E0000112484B714BE81FFF0D085E080938100F7
:107E100082E08093C00088E18093C10086E0809377
:107E2000C20080E18093C4008EE0C9D0259A86E02C
:107E300020E33CEF91E0309385002093840096BBD3
:107E4000B09BFECF1D9AA8958150A9F7CC24DD24C4
:107E500088248394B5E0AB2EA1E19A2EF3E0BF2EE7
:107E6000A2D0813461F49FD0082FAFD0023811F036
:107E7000013811F484E001C083E08DD089C08234E0
:107E800011F484E103C0853419F485E0A6D080C0E4
:107E9000853579F488D0E82EFF2485D0082F10E0AE
:107EA000102F00270E291F29000F111F8ED06801E7
:107EB0006FC0863521F484E090D080E0DECF843638
:107EC00009F040C070D06FD0082F6DD080E0C81688
:107ED00080E7D80618F4F601B7BEE895C0E0D1E017
:107EE00062D089930C17E1F7F0E0CF16F0E7DF06D8
:107EF00018F0F601B7BEE89568D007B600FCFDCFD4
:107F0000A601A0E0B1E02C9130E011968C91119780
:107F100090E0982F8827822B932B1296FA010C0160
:107F200087BEE89511244E5F5F4FF1E0A038BF0790
:107F300051F7F601A7BEE89507B600FCFDCF97BE46
:107F4000E89526C08437B1F42ED02DD0F82E2BD052
:107F50003CD0F601EF2C8F010F5F1F4F84911BD097
:107F6000EA94F801C1F70894C11CD11CFA94CF0C13
:107F7000D11C0EC0853739F428D08EE10CD085E9AC
:107F80000AD08FE07ACF813511F488E018D01DD067
:107F900080E101D065CF982F8091C00085FFFCCF94
:107FA0009093C60008958091C00087FFFCCF809118
:107FB000C00084FD01C0A8958091C6000895E0E648
:107FC000F0E098E1908380830895EDDF803219F02E
:107FD00088E0F5DFFFCF84E1DECF1F93182FE3DFCA
:107FE0001150E9F7F2DF1F91089580E0E8DFEE27F6
:047FF000FF270994CA
:027FFE00040479
:00000001FF
