:100000000C945D000C9485000C9485000C94850084
:100010000C9485000C9485000C9485000C9485004C
:100020000C9485000C9485000C9485000C9485003C
:100030000C9485000C9485000C9485000C9485002C
:100040000C9429030C9485000C9485000C94850075
:100050000C9485000C9485000C9485000C9485000C
:100060000C9473030C94850000000008000201004A
:100070000003040700000000000000000000000072
:10008000250028002B0000000000240027002A0083
:10009000040404040404040402020202020203032E
:1000A0000303030301020408102040800102040836
:1000B00010200102040810208E0411241FBECFEF6F
:1000C000D8E0DEBFCDBF11E0A0E0B1E0EAECFAE09D
:1000D00002C005900D92A432B107D9F721E0A4E245
:1000E000B1E001C01D92A03BB207E1F710E0CDE501
:1000F000D0E004C02197FE010E945D05CC35D107F8
:10010000C9F70E94AC040C9463050C94000090E0C5
:10011000FC01EC55FF4F249180579F4FFC018491C7
:10012000882399F090E0880F991FFC01EA57FF4F50
:10013000A591B491FC01E458FF4F859194918FB73C
:10014000F894EC91E22BEC938FBF0895AF92BF929D
:10015000CF92DF92EF92FF920F931F93CF93DF9393
:100160006C017B018B01040F151FEB015E01AE18C2
:10017000BF08C017D10759F06991D601ED91FC91E4
:100180000190F081E02DC6010995892B79F7C50111
:10019000DF91CF911F910F91FF90EF90DF90CF9063
:1001A000BF90AF90089590E0FC01E859FF4F249173
:1001B000FC01EC55FF4F3491FC01E057FF4FE491F7
:1001C000EE23C9F0222339F0233001F1A8F42130C5
:1001D00019F1223029F1F0E0EE0FFF1FE458FF4F34
:1001E000A591B4918FB7F894EC91611126C0309528
:1001F0003E233C938FBF08952730A9F02830C9F0E3
:10020000243049F7809180008F7D03C08091800069
:100210008F7780938000DFCF84B58F7784BDDBCF6D
:1002200084B58F7DFBCF8091B0008F778093B00035
:10023000D2CF8091B0008F7DF9CF3E2BDACF3FB780
:10024000F8948091940190919501A0919601B091BC
:10025000970126B5A89B05C02F3F19F00196A11D57
:10026000B11D3FBFBA2FA92F982F8827BC01CD0100
:10027000620F711D811D911D42E0660F771F881F5F
:10028000991F4A95D1F708958F929F92AF92BF928E
:10029000CF92DF92EF92FF924B015C010E941F010F
:1002A0006B017C010E941F016C197D098E099F0959
:1002B000683E734081059105A8F321E0821A9108F8
:1002C000A108B10888EEC80E83E0D81EE11CF11C1D
:1002D00081149104A104B10429F7FF90EF90DF90FD
:1002E000CF90BF90AF909F908F90089585ED8093B1
:1002F000BC008091BC0084FDFCCF10926901089580
:1003000020914501260F3327331F21323105ECF4AC
:1003100020916901FC0190E080E0243069F082E0E6
:100320000895A09145012191AC014B5D5E4FA40F52
:10033000B52FB11D2C930196861798F38091450136
:10034000680F6093450180E0089581E00895089565
:100350008FEF9FEF08958FEF9FEF08958091240115
:1003600090E09195819591090895CF93DF93CB010A
:10037000EA01642F0E948001CE01DF91CF910895A0
:10038000CF93DF931F92CDB7DEB7698361E0CE01D3
:1003900001960E94800181E090E00F90DF91CF9163
:1003A0000895089590E080E00895FC0101900020F8
:1003B000E9F73197AF01481B590BBC0188E991E07F
:1003C0000C94A600CF93DF93EC0160E08E810E9435
:1003D000D30061E08E810E94D30060E08E810E9494
:1003E000D3008BE891E00197F1F7DF91CF91089569
:1003F000CF92DF92EF92FF920F931F93CF93DF93F1
:100400006C017C0187E0E80EF11CD0E0C0E0062F13
:1004100010E0B8010C2E02C0759567950A94E2F7BA
:100420006170F70181917F010E94D3002196C43051
:10043000D10579F7C601DF91CF911F910F91FF9000
:10044000EF90DF90CF900C94E201CF92DF92EF9289
:10045000FF920F931F93CF93DF93EC01F62E642F3F
:100460008C810E94D3008D818F3F19F060E00E9443
:10047000D3000F2D10E08F8584FF25C06E0187E02B
:10048000C80ED11CF12CE12CB8010E2C02C07595C0
:1004900067950A94E2F76170F60181916F010E94FD
:1004A000D300FFEFEF1AFF0A88E0E816F10461F7C6
:1004B000CE01DF91CF911F910F91FF90EF90DF90D0
:1004C000CF900C94E201B80184E0759567958A9508
:1004D000E1F7CE010E94F8016F2DCE01DF91CF919F
:1004E0001F910F91FF90EF90DF90CF900C94F80147
:1004F00040E0682F88E991E00C94250281E00E9499
:1005000078028BE39FE10197F1F70895CF93DF9392
:10051000823029F49091A70198609093A70180936D
:10052000AB011092AC0180E48093AD0180E1809337
:10053000AE0180E58093AF0180919C010E9487000D
:1005400080919D018F3F11F00E94870080919E0154
:100550000E948700C8E9D1E09E012859314080916E
:10056000A70184FD0AC084E090E02196281739078E
:100570003CF48E810E948700EFCF88E090E0F5CFB9
:100580008BE39DE00197F1F760E080919C010E9470
:10059000D30060E080919E010E94D30080919D0174
:1005A0008F3F19F060E00E94D3008091A70184FD85
:1005B00034C063E088E991E00E94F801CBE4D6E41E
:1005C000CE010197F1F763E088E991E00E94F8011C
:1005D0002197F1F763E088E991E00E94F80183E553
:1005E00092E00197F1F762E088E991E00E94F8015A
:1005F0008091A70180620E94780284E08093A80124
:100600008CE00E9478020E947E0282E08093A90121
:1006100086E0DF91CF910C94780280620E9478028C
:100620008BE496E40197F1F78091A70180620E9424
:10063000780283E592E00197F1F78091A70180624B
:100640000E947802D5CF41E00E94250281E090E02F
:1006500008951F920F920FB60F9211242F933F937C
:100660008F939F93AF93BF9380919001909191014D
:10067000A0919201B091930130918F0123E0230F5B
:100680002D3758F50196A11DB11D20938F01809340
:10069000900190939101A0939201B0939301809166
:1006A000940190919501A0919601B09197010196C6
:1006B000A11DB11D8093940190939501A093960183
:1006C000B0939701BF91AF919F918F913F912F91DF
:1006D0000F900FBE0F901F90189526E8230F0296DB
:1006E000A11DB11DD2CF1F920F920FB60F921124F0
:1006F0002F933F934F935F936F937F938F939F932A
:10070000AF93BF93EF93FF938091B900887F8036BA
:1007100009F44AC0F0F5883209F4A5C018F5803113
:1007200009F499C0B8F4882309F4F5C0883009F4B5
:1007300092C0FF91EF91BF91AF919F918F917F9167
:100740006F915F914F913F912F910F900FBE0F903E
:100750001F901895883109F486C0803251F7809334
:10076000680114C0803409F49BC040F48033B9F3AD
:100770008833F9F68093680185ECAEC0803509F4C2
:1007800083C0883509F494C0883499F60E947601B4
:10079000D0CF883909F48AC038F5883729F050F469
:1007A000883611F0803729F683E080936901109232
:1007B000670155C0883809F479C0803919F080384C
:1007C00009F0B7CF80916701803208F06FC0E091E7
:1007D000670181E08E0F809367018091BB00F0E09C
:1007E000E95BFE4F80833BC0803B39F0D0F4803A18
:1007F00009F477C0883A09F09CCF84E080936901BE
:100800001092460110924501F0E0E0E009958091D8
:10081000450181110FC081E08093450110922501AF
:1008200009C0803C09F4A8CF883C09F4A5CF883BD7
:1008300009F07FCFE091460181E08E0F8093460161
:10084000F0E0EB5DFE4F80818093BB00909146010C
:100850008091450129C080918E018093BB0085EC79
:100860008093BC0066CF90918D0180918C01981788
:1008700058F5E0918D0181E08E0F80938D01F0E0BD
:10088000E459FE4F8081E9CFE0918D0181E08E0F28
:1008900080938D018091BB00F0E0E459FE4F80838E
:1008A00090918D0180918C019817C8F285E8D8CF7E
:1008B000E0918D0181E08E0F80938D018091BB00CE
:1008C000F0E0E459FE4F808380916B0181115ECF8F
:1008D00081E080936A0184EA8093BC0010926901F0
:1008E00028CF85EC8093BC0010926901809167014C
:1008F000803230F4E0916701F0E0E95BFE4F108256
:100900006091670170E087E491E0F0E0E0E0099534
:10091000109267010ECF1092680138CFE8E9F1E03C
:100920001382128284E091E0918380838CE084833F
:100930008FEF85838BE0868385E0878384E08087E3
:1009400083E0818782E08287138614861586168667
:10095000178681E00C948602789484B5826084BD09
:1009600084B5816084BD85B5826085BD85B58160B3
:1009700085BD80916E00816080936E001092810031
:1009800080918100826080938100809181008160EC
:1009900080938100809180008160809380008091AD
:1009A000B10084608093B1008091B0008160809339
:1009B000B00080917A00846080937A0080917A0000
:1009C000826080937A0080917A00816080937A00BF
:1009D00080917A00806880937A001092C1008AE04A
:1009E0000E94870082E00E948602E1E08091AB01D4
:1009F0008111E0E0E195F0E0E856FE4F84898068DF
:100A00000E9478028CE091E00E94D50168E873E1D1
:100A100080E090E00E9444010E947E02C0E0D0E0AD
:100A200061E08AE00E94D30060ED77E080E090E032
:100A30000E944401E1E08091AB018111E0E0E19589
:100A4000F0E0E856FE4F848980680E94780282E1D7
:100A500091E00E94D50160ED77E080E090E00E9497
:100A600044010E947E0260E08AE00E94D30060EDB3
:100A700077E080E090E00E944401E091AB01E23039
:100A8000D0F4E150F0E0E856FE4F848980680E947F
:100A900078028AE191E00E94D50160ED77E080E084
:100AA00090E00E9444010E947E02209709F4B8CF92
:100AB0000E940000B5CFE1E0E5CFEE0FFF1F0590EB
:0A0AC000F491E02D0994F894FFCFA3
:100ACA00000000002303A600D201D10152656C6127
:100ADA0079004C414D50204F4E004C414D50204F13
:040AEA00464600007C
:00000001FF
