:100000000C945C000C9479000C9479000C947900A9
:100010000C9479000C9479000C9479000C9479007C
:100020000C9479000C9479000C9479000C9479006C
:100030000C9479000C9479000C9479000C9479005C
:100040000C9421010C9479000C9479000C947900A3
:100050000C9479000C9479000C9479000C9479003C
:100060000C9479000C947900000000002400270013
:100070002A0000000000250028002B0004040404CE
:100080000404040402020202020203030303030342
:10009000010204081020408001020408102001021F
:1000A00004081020000000080002010000030407FB
:1000B000000000000000000011241FBECFEFD8E0B8
:1000C000DEBFCDBF11E0A0E0B1E0ECEFF3E002C095
:1000D00005900D92A231B107D9F721E0A2E1B1E07C
:1000E00001C01D92AB31B207E1F70E946B010C9485
:1000F000FC010C94000090E0FC01EC55FF4F2491B2
:10010000FC01E057FF4F3491FC01E458FF4FE491AC
:10011000EE23C9F0222339F0233001F1A8F4213075
:1001200019F1223029F1F0E0EE0FFF1FEE58FF4FDA
:10013000A591B4918FB7F894EC91611126C03095D8
:100140003E233C938FBF08952730A9F02830C9F093
:10015000243049F7809180008F7D03C0809180001A
:100160008F7780938000DFCF84B58F7784BDDBCF1E
:1001700084B58F7DFBCF8091B0008F778093B000E6
:10018000D2CF8091B0008F7DF9CF3E2BDACF3FB731
:10019000F8948091170190911801A0911901B091E4
:1001A0001A0126B5A89B05C02F3F19F00196A11D85
:1001B000B11D3FBFBA2FA92F982F8827BC01CD01B1
:1001C000620F711D811D911D42E0660F771F881F10
:1001D000991F4A95D1F708958F929F92AF92BF923F
:1001E000CF92DF92EF92FF920E94C7004B015C0119
:1001F00088ECC82ED12CE12CF12C0E94C700681984
:1002000079098A099B09683E734081059105A8F325
:1002100021E0C21AD108E108F10888EE880E83E0D7
:10022000981EA11CB11CC114D104E104F10429F7EA
:10023000FF90EF90DF90CF90BF90AF909F908F9006
:1002400008951F920F920FB60F9211242F933F9390
:100250008F939F93AF93BF9380911301909114015B
:10026000A0911501B09116013091120123E0230FE6
:100270002D3758F50196A11DB11D209312018093D1
:10028000130190931401A0931501B093160180916E
:10029000170190911801A0911901B0911A010196CE
:1002A000A11DB11D8093170190931801A09319010E
:1002B000B0931A01BF91AF919F918F913F912F9170
:1002C0000F900FBE0F901F90189526E8230F0296EF
:1002D000A11DB11DD2CF789484B5826084BD84B550
:1002E000816084BD85B5826085BD85B5816085BD31
:1002F00080916E00816080936E00109281008091E9
:100300008100826080938100809181008160809370
:100310008100809180008160809380008091B10095
:1003200084608093B1008091B00081608093B000C0
:1003300080917A00846080937A0080917A00826054
:1003400080937A0080917A00816080937A00809116
:100350007A00806880937A001092C10020E131E039
:10036000C0E0D1E0899199919927FC01E057FF4FB6
:10037000449184589F4FFC018491882399F090E028
:10038000880F991FFC01E859FF4FA591B491FC011A
:10039000EE58FF4F859194918FB7F894EC91E42B30
:1003A000EC938FBF2C173D07E9F680E0E82E80E044
:1003B000F82E00E011E0F80180810E5F1F4F61E030
:1003C0000E947B00F1E004311F07A9F70E94EC00B6
:1003D00000E011E0F80180810E5F1F4F60E00E9495
:1003E0007B000C171D07B1F70E94EC00E114F1042B
:0C03F00001F30E940000DDCFF894FFCF65
:1003FC0008000800080008000800080008000800B1
:02040C000800E6
:00000001FF
