:020000040000FA
:100000000C9462000C948A000C948A000C948A0070
:100010000C948A000C948A000C948A000C948A0038
:100020000C948A000C948A000C948A000C9430077B
:100030000C948A000C948A000C948A000C948A0018
:100040000C948E060C948A000C94FE060C94D80630
:100050000C948A000C948A000C948A000C948A00F8
:100060000C94EC070C948A00000000002400270088
:100070002A0000000000250028002B0000000000DE
:1000800023002600290004040404040404040202DA
:100090000202020203030303030301020408102007
:1000A0004080010204081020010204081020000012
:1000B0000008000201000003040700000000000027
:1000C00000000B0911241FBECFEFD8E0DEBFCDBF6B
:1000D00011E0A0E0B1E0EEEDF8E102C005900D9274
:1000E000A03CB107D9F723E0A0ECB1E001C01D921C
:1000F000A636B207E1F710E0C2E6D0E004C02197CF
:10010000FE010E94670CC136D107C9F70E94A909F8
:100110000C946D0C0C940000833081F028F4813035
:1001200099F08230A9F008958730A9F08830C9F09D
:100130008430B1F4809180008F7D03C08091800075
:100140008F7780938000089584B58F7784BD08955C
:1001500084B58F7DFBCF8091B0008F778093B00006
:1001600008958091B0008F7DF9CFCF93DF93282F32
:1001700030E0F901E255FF4F8491F901E656FF4F57
:10018000D491F901EA57FF4FC491CC23A1F081111A
:100190000E948C00EC2FF0E0EE0FFF1FE458FF4FA1
:1001A000A591B491EC91ED2381E090E009F480E019
:1001B000DF91CF91089580E090E0FACF1F93CF9325
:1001C000DF93282F30E0F901E255FF4F8491F901C8
:1001D000E656FF4FD491F901EA57FF4FC491CC2363
:1001E000A9F0162F81110E948C00EC2FF0E0EE0F89
:1001F000FF1FEE58FF4FA591B4918FB7F894EC9183
:10020000111108C0D095DE23DC938FBFDF91CF9111
:100210001F910895DE2BF8CFCF93DF9390E0FC0180
:10022000E656FF4F24918A579F4FFC018491882303
:10023000D1F090E0880F991FFC01E859FF4FA5917C
:10024000B491FC01EE58FF4FC591D49161110EC0DD
:100250009FB7F8948C91E22FE0958E238C932881A0
:10026000E223E8839FBFDF91CF9108958FB7F89481
:10027000EC91E22BEC938FBFF6CF3FB7F8948091CF
:10028000820290918302A0918402B091850226B5EA
:10029000A89B05C02F3F19F00196A11DB11D3FBFBE
:1002A000BA2FA92F982F8827BC01CD01620F711D8D
:1002B000811D911D42E0660F771F881F991F4A9587
:1002C000D1F708958F929F92AF92BF92CF92DF9213
:1002D000EF92FF924B015C010E943D016B017C019A
:1002E0000E943D016C197D098E099F09683E73408B
:1002F00081059105A8F321E0821A9108A108B108AF
:1003000088EEC80E83E0D81EE11CF11C8114910414
:10031000A104B10429F7FF90EF90DF90CF90BF9038
:10032000AF909F908F90089508950895AF92BF92D7
:10033000CF92DF92EF92FF920F931F93CF93DF93B1
:100340006C017B018B01040F151FEB015E01AE18E0
:10035000BF08C017D10759F06991D601ED91FC9102
:100360000190F081E02DC6010995892B79F7C5012F
:10037000DF91CF911F910F91FF90EF90DF90CF9081
:10038000BF90AF900895FC01538D448D252F30E030
:10039000842F90E0821B930B541710F0CF96089592
:1003A00001970895FC01918D828D981761F0A28DBF
:1003B000AE0FBF2FB11D5D968C91928D9F5F9F7385
:1003C000928F90E008958FEF9FEF0895FC01918D3B
:1003D000828D981731F0828DE80FF11D858D90E0A8
:1003E00008958FEF9FEF0895FC01918D228D892F45
:1003F00090E0805C9F4F821B91098F73992708952D
:1004000086E892E00E94F40121E0892B09F420E0C3
:10041000822F089580E090E0892B29F00E9400024D
:1004200081110C9400000895FC01A48DA80FB92F30
:10043000B11DA35ABF4F2C91848D90E001968F730C
:100440009927848FA689B7892C93A089B1898C912B
:10045000837080648C93938D848D981306C002887A
:10046000F389E02D80818F7D80830895EF92FF9244
:100470000F931F93CF93DF93EC0181E0888F9B8DC7
:100480008C8D98131AC0E889F989808185FF15C081
:100490009FB7F894EE89FF896083E889F9898081A4
:1004A0008370806480839FBF81E090E0DF91CF9173
:1004B0001F910F91FF90EF900895F62E0B8D10E095
:1004C0000F5F1F4F0F731127E02E8C8D8E110CC004
:1004D0000FB607FCFACFE889F989808185FFF5CF4F
:1004E000CE010E941402F1CFEB8DEC0FFD2FF11D18
:1004F000E35AFF4FF0829FB7F8940B8FEA89FB898C
:1005000080818062CFCFCF93DF93EC01888D8823E9
:10051000B9F0AA89BB89E889F9898C9185FD03C066
:10052000808186FD0DC00FB607FCF7CF8C9185FF4B
:10053000F2CF808185FFEDCFCE010E941402E9CF7A
:10054000DF91CF9108958F929F92AF92BF92FF92C9
:100550000F931F93CF93DF93FC01F0808BE08F15F7
:1005600008F44AC0828108E512E0081B110987FDE2
:100570001395000F111F000F111F8181C8E8D0E0F3
:10058000C81BD10987FDD395CC0FDD1FCC0FDD1F14
:100590004E010D2E000CAA08BB089801012E000C7C
:1005A000440B550B281939094A095B09DB010E94E4
:1005B000220C24EB30E040E050E00E94F80B820E69
:1005C000931EA41EB51E8C169D062CF0E801801605
:1005D00091060CF4E4012297CC0FDD1F2FB7F8949D
:1005E0008F2D90E0FC01EE0FFF1FE80FF91FE15D7A
:1005F000FC4FD283C1832FBFDF91CF911F910F9109
:10060000FF90BF90AF909F908F9008951F93CF93CE
:10061000DF93EC01162F88818C3008F04EC061E02A
:10062000812F0E940C018881282F30E0F901EE0F04
:10063000FF1FE20FF31FE15DFC4F1F736081607CC1
:10064000612B608319821A822CE0622F0E945B0C5E
:10065000829FB001112430E020E0AB01420F531F14
:10066000FA01EE0FFF1FE40FF51FE15DFC4F9081D3
:1006700096FD16C02F5F3F4F2C30310571F7811169
:100680000FC01092800082E080938100109285005C
:1006900010928400B19A80916F00826080936F0005
:1006A000E8818E2F90E0FC01EE0FFF1FE80FF91F8D
:1006B000E15DFC4F8081806480838881DF91CF91F0
:1006C0001F91089520912802260F3327331F2132CE
:1006D0003105ECF420914C02FC0190E080E02430E4
:1006E00069F082E00895A09128022191AC01485F51
:1006F0005D4FA40FB52FB11D2C930196861798F36B
:1007000080912802680F6093280280E0089581E0BC
:10071000089510924C0281E080934E0210924D0297
:1007200061E082E10E94DE0061E083E10E94DE0080
:10073000E9EBF0E080818E7F808380818D7F8083F4
:1007400088E48093B80085E48093BC000895CF933B
:10075000DF9391E0909307028823B9F0C091B8002D
:10076000D091BA008091BC008A7B8093BC0060E08D
:1007700082E10E94DE0060E083E10E94DE000E94D0
:100780008903D093BA00C093B800DF91CF91089548
:100790000895E0917A0280917902E81730F4F0E050
:1007A000EE51FE4F808190E008958FEF9FEF089506
:1007B00090917A02809179022FEF3FEF981748F4D9
:1007C000E92FF0E0EE51FE4F208130E09F5F9093E3
:1007D0007A02C90108958091790290917A02891B69
:1007E000990B0895CF92DF92EF92FF920F931F9390
:1007F000CF93DF937C01CB018A012091E101222379
:1008000089F0EB016B01C40ED51ECC15DD0569F036
:100810006991D701ED91FC910190F081E02DC70124
:100820000995F3CF642F0E946203C801DF91CF9135
:100830001F910F91FF90EF90DF90CF900895CF938D
:10084000DF931F92CDB7DEB769832091E1012223A8
:10085000F9F020917702203258F021E030E0FC01DD
:100860003383228390E080E00F90DF91CF91089551
:1008700080917802E82FF0E0EF53FE4F998190834A
:100880008F5F809378028093770281E090E0ECCFD5
:1008900061E0CE0101960E946203F7CFCF92DF9212
:1008A000EF92FF920F931F93CF93DF93FC01C481CC
:1008B00021E02093E101C093C001109278021092D0
:1008C00077028385682B83E293E00E941F04D09116
:1008D0007702D13208F092C00E943D016B017C0189
:1008E00080914C02811165C082E080934C0281E0CE
:1008F00080934E028FEF80934B0210927002D09340
:100900006F02A1ECB1E0EFE4F2E080E0D81385C023
:100910001092710280917102CC0FC82BC0937102AA
:1009200080914D02813009F07CC010924D020E94EE
:100930003D016B017C01809171028093BB0080912D
:10094000030290910402A0910502B0910602892B46
:100950008A2B8B2B99F00E943D010091030210918C
:10096000040220910502309106026C197D098E095E
:100970009F090617170728073907E0F18091BC0087
:1009800083FDD9CF85EC8093BC000E943D016B01B3
:100990007C0180914C02823009F445C080914B0269
:1009A0008F3F61F180914B02803241F180914B0287
:1009B00025C08091030290910402A0910502B0919C
:1009C0000602892B8A2B8B2B09F48ACF0E943D01CA
:1009D0000091030210910402209105023091060259
:1009E0006C197D098E099F09061717072807390713
:1009F00008F076CF809102020E94A703109278023D
:100A0000109277021092E101DF91CF911F910F9127
:100A1000FF90EF90DF90CF9008959D9191938F5F1D
:100A200075CF85EEB0CF8091030290910402A09122
:100A30000502B0910602892B8A2B8B2B09F4A9CFD2
:100A40000E943D01009103021091040220910502D1
:100A5000309106026C197D098E099F090617170748
:100A60002807390708F095CFC5CF089590E080E0BA
:100A700008950F931F93CF938C01C62F0E944E04AD
:100A80006C2F6460C8010E944E046C2F6B7FC801FC
:100A90000E944E0483EC90E00197F1F7CF911F91F3
:100AA0000F9108950F931F93CF93DF938C01D62F4F
:100AB000C42F607F642B0E94390580E1D89FB0016C
:100AC00011246C2BC801DF91CF911F910F910C94D1
:100AD000390540E061E08AE593E00E9452058BE32E
:100AE0009FE10197F1F70895CF93DF93CDB7DEB77C
:100AF00028970FB6F894DEBF0FBECDBF98E0E2E0B6
:100B0000F1E0DE01119601900D929A95E1F7909136
:100B10006203981708F48FEF90E0880F991F21E087
:100B200030E02C0F3D1F820F931FFC016081606835
:100B300040E08AE593E028960FB6F894DEBF0FBE3A
:100B4000CDBFDF91CF910C94520541E00E94520538
:100B500081E090E00895FB0101900020E9F73197D2
:100B6000AF01461B570BDC01ED91FC910280F38134
:100B7000E02D0994CF93DF93D0E0C0E0009731F0EF
:100B8000BC0186E892E00E94AB05EC016AE371E0EB
:100B900086E892E00E94AB058C0F9D1FDF91CF91FC
:100BA00008954F925F926F927F92AF92BF92CF92D1
:100BB000DF92EF92FF920F931F93CF93DF93CDB706
:100BC000DEB7A1970FB6F894DEBF0FBECDBF5C01B4
:100BD0006A017B01F7FE47C0DC01ED91FC910190B9
:100BE000F081E02D6DE209958C0122273327A901C0
:100BF0002C193D094E095F0919A2FE01B1967F012A
:100C00009AE0492E512C612C712CCA01B901A30123
:100C100092010E942A0C605DD7016E937D0121151F
:100C200031054105510589F790E080E0109721F0EA
:100C3000BD01C5010E94AB05800F911FA1960FB6A3
:100C4000F894DEBF0FBECDBFDF91CF911F910F9102
:100C5000FF90EF90DF90CF90BF90AF907F906F901C
:100C60005F904F900895AB01960119A28E010F5D20
:100C70001F4F8AE0C82ED12CE12CF12CCA01B901FA
:100C8000A70196010E942A0C605DF80162938F0112
:100C9000211531054105510589F790E080E0309735
:100CA00069F2BF01C5010E94AB05C8CF85ED8093F5
:100CB000BC008091030290910402A0910502B091C2
:100CC00006020796A11DB11D23E0B695A79597953D
:100CD00087952A95D1F72091BC0024FD03C010927E
:100CE0004C02089540910302509104026091050264
:100CF00070910602452B462B472B69F30097A105FF
:100D0000B10541F02AE22A95F1F700C00197A10947
:100D1000B109E1CF809102020C94A7031F920F92B8
:100D20000FB60F9211242F933F938F939F93AF93FE
:100D3000BF9380917E0290917F02A0918002B0913A
:100D4000810230917D0223E0230F2D3758F5019663
:100D5000A11DB11D20937D0280937E0290937F029E
:100D6000A0938002B09381028091820290918302CD
:100D7000A0918402B09185020196A11DB11D8093BE
:100D8000820290938302A0938402B0938502BF9164
:100D9000AF919F918F913F912F910F900FBE0F9028
:100DA0001F90189526E8230F0296A11DB11DD2CFE2
:100DB0001F920F920FB60F9211242F933F934F93D0
:100DC0005F936F937F938F939F93AF93BF93EF93B3
:100DD000FF9386E892E00E941402FF91EF91BF9189
:100DE000AF919F918F917F916F915F914F913F91C3
:100DF0002F910F900FBE0F901F9018951F920F927A
:100E00000FB60F9211242F938F939F93EF93FF931D
:100E1000E0919602F09197028081E0919C02F0911E
:100E20009D0282FD1BC0908180919F028F5F8F7316
:100E30002091A002821741F0E0919F02F0E0EA5772
:100E4000FD4F958F80939F02FF91EF919F918F911E
:100E50002F910F900FBE0F901F9018958081F4CFA7
:100E60001F920F920FB60F9211242F933F934F931F
:100E70005F936F937F938F939F93AF93BF93CF9322
:100E8000DF93EF93FF9380917202C0915303D0E000
:100E900087FF24C010928500109284008091720216
:100EA0008F5F8093720280917202082E000C990B62
:100EB0008C179D0724F4809172028C30C4F18091CC
:100EC000840090918500049680349C4908F47AC08F
:100ED0008091840090918500049676C08091720282
:100EE000082E000C990B8C179D07C4F6E091720236
:100EF0008E2FEE0F990BFC01EE0FFF1FE80FF91F6D
:100F0000E15DFC4F808186FFC9CFE09172028E2F98
:100F1000EE0F990BFC01EE0FFF1FE80FF91FE15DCB
:100F2000FC4F808160E08F730E94DE00B7CF20917C
:100F3000840030918500E09172028E2FEE0F990BA4
:100F4000FC01EE0FFF1FE80FF91FE15DFC4F8181EF
:100F50009281820F931F9093890080938800E09183
:100F600072028E2FEE0F990BFC01EE0FFF1FE80FA0
:100F7000F91FE15DFC4F808186FF11C0E091720294
:100F80008E2FEE0F990BFC01EE0FFF1FE80FF91FDC
:100F9000E15DFC4F808161E08F730E94DE00FF9174
:100FA000EF91DF91CF91BF91AF919F918F917F9101
:100FB0006F915F914F913F912F910F900FBE0F90C6
:100FC0001F90189580E49CE9909389008093880095
:100FD0008FEF80937202E3CF1F920F920FB60F92A2
:100FE00011242F933F934F935F936F937F938F932E
:100FF0009F93AF93BF93EF93FF938091B900887F46
:10100000803609F44AC0F0F5883209F4A7C018F513
:10101000803109F49BC0B8F4882309F4F9C0883002
:1010200009F494C0FF91EF91BF91AF919F918F917F
:101030007F916F915F914F913F912F910F900FBED4
:101040000F901F901895883109F488C0803251F7AD
:1010500080934B0214C0803409F49DC040F4803367
:10106000B9F38833F9F680934B0285ECB0C0803534
:1010700009F485C0883509F496C0883499F60E9431
:101080005606D0CF883909F48CC038F5883729F056
:1010900050F4883611F0803729F683E080934C02B3
:1010A00010924A0257C0883809F47BC0803919F081
:1010B000803809F0B7CF80914A02803208F071C0C1
:1010C000E0914A0281E08E0F80934A028091BB003A
:1010D000F0E0E65DFD4F80833DC0803B39F0E0F4F9
:1010E000803A09F479C0883A09F09CCF84E0809373
:1010F0004C021092290210922802E0917502F091A0
:10110000760209958091280281110FC081E08093B9
:1011100028021092080209C0803C09F4A6CF883C3E
:1011200009F4A3CF883B09F07DCFE091290281E04B
:101130008E0F80932902F0E0E85FFD4F808180935D
:10114000BB00909129028091280229C080917102F0
:101150008093BB0085EC8093BC0064CF90917002BB
:1011600080916F02981758F5E091700281E08E0F20
:1011700080937002F0E0E15BFD4F8081E9CFE09168
:10118000700281E08E0F809370028091BB00F0E0CE
:10119000E15BFD4F80839091700280916F02981700
:1011A000C8F285E8D8CFE091700281E08E0F80937D
:1011B00070028091BB00F0E0E15BFD4F8083809185
:1011C0004E0281115CCF81E080934D0284EA8093CE
:1011D000BC0010924C0226CF85EC8093BC0010928C
:1011E0004C0280914A02803230F4E0914A02F0E0F1
:1011F000E65DFD4F108260914A0270E0E09173025B
:10120000F09174028AE292E0099510924A020ACFA4
:1012100010924B0234CF109289021092880288EE0D
:1012200093E0A0E0B0E080938A0290938B02A093B9
:101230008C02B0938D022EE031E030938702209330
:10124000860225EC30E0309393022093920224EC46
:1012500030E0309395022093940220EC30E03093FC
:1012600097022093960221EC30E03093990220936C
:10127000980222EC30E030939B0220939A0226ECF5
:1012800030E030939D0220939C0210929F021092B6
:10129000A0021092A1021092A202109226031092B4
:1012A00025038093270390932803A0932903B093E9
:1012B0002A0380E291E09093240380932303109209
:1012C0005D0310925C0382E391E090935B03809353
:1012D0005A0380E280935E0380E18093630382E09F
:1012E0008093640310926503809153038C3048F51A
:1012F00091E0980F909353038093570390E0FC0183
:10130000EE0FFF1FE80FF91FE15DFC4F88EB9BE03C
:1013100092838183809153038C30B8F491E0980FCD
:10132000909353038093540390E0FC01EE0FFF1F52
:10133000E80FF91FE15DFC4F88EB9BE0928381830E
:1013400008958FEF80935703E5CF8FEF8093540379
:101350000895789484B5826084BD84B5816084BD2D
:1013600085B5826085BD85B5816085BD80916E0043
:10137000816080936E001092810080918100826074
:1013800080938100809181008160809381008091B1
:1013900080008160809380008091B10084608093A0
:1013A000B1008091B00081608093B00080917A009C
:1013B000846080937A0080917A00826080937A00C2
:1013C00080917A00816080937A0080917A008068B1
:1013D00080937A001092C100E0919602F0919702FA
:1013E00082E08083E0919202F09193021082E0917A
:1013F0009402F09195028FEC808310929E02E0910E
:101400009A02F0919B0286E08083E0919802F0912D
:101410009902808180618083E0919802F091990225
:10142000808188608083E0919802F09199028081A8
:1014300080688083E0919802F091990280818F7D8D
:10144000808368E070E087E593E00E94060370E027
:1014500060E087E593E00E94A30269E070E084E524
:1014600093E00E94060370E060E084E593E00E9450
:10147000A30210927A0210927902109278021092CE
:1014800077020E94890384E991E090937602809329
:10149000750285E991E09093740280937302109233
:1014A0005F0380916403823018F098E090935F03AB
:1014B0008093620362E370E080E090E00E9462014A
:1014C000609165038AE593E00E944E0468EE73E044
:1014D00080E090E00E94620160E38AE593E00E9470
:1014E0003905CBE4D6E4CE010197F1F760E38AE554
:1014F00093E00E9439052197F1F760E38AE593E0D4
:101500000E94390583E592E00197F1F760E28AE5F0
:1015100093E00E94390560915F03606240E08AE5D4
:1015200093E00E94520584E08093600340E06CE009
:101530008AE593E00E9452050E94690582E080934B
:10154000610340E066E08AE593E00E94520540E0D6
:1015500062E08AE593E00E9452058BE39FE10197E8
:10156000F1F788E08093650360E08AE593E00E94EC
:101570004E0480E00E9474056DE371E08AE593E01B
:101580000E94AB056CED75E080E090E00E94620186
:101590000E94690561E086E00E940C0161E087E03D
:1015A0000E940C0160E084E00E940C0160E085E094
:1015B0000E940C018FE491E00E94BA05C5E0D0E0E2
:1015C00000E010E084E00E94B500FF24F39400974F
:1015D00009F4F12C892B09F070C080910001882357
:1015E00009F46BC080917B0290917C02863091055A
:1015F0000CF0EEC0019690937C0280937B026BE628
:1016000071E086E892E00E94AB0540917B02509128
:101610007C02052E000C660B770B86E892E00E9498
:10162000D1056AE371E086E892E00E94AB05809103
:101630007B0290917C029E01281B390BC9018D57BA
:101640009E4F0E94BA0561E086E00E94DE006AE5D6
:1016500070E087E593E00E94A3020E94690580E0A4
:101660000E94740565E971E08AE593E00E94AB058C
:1016700081E00E94740565E771E08AE593E00E94CD
:10168000AB0540917B0250917C02052E000C660B4D
:10169000770B8AE593E00E94D10560ED77E080E06A
:1016A00090E00E94620160E086E00E94DE0070E04F
:1016B00060E087E593E00E94A302F092000185E0DC
:1016C0000E94B500FF24F394009709F4F12C892BB4
:1016D00009F070C080910101882309F46BC08091EA
:1016E0007B0290917C02181619060CF053C00197EA
:1016F00090937C0280937B026BE671E086E892E037
:101700000E94AB0540917B0250917C02052E000C9B
:10171000660B770B86E892E00E94D1056AE371E0E0
:1017200086E892E00E94AB0580917B0290917C025A
:101730009E01281B390BC9018D579E4F0E94BA0587
:1017400061E087E00E94DE006AE570E084E593E0F6
:101750000E94A3020E94690580E00E94740565E969
:1017600071E08AE593E00E94AB0581E00E94740578
:1017700065E771E08AE593E00E94AB0540917B024A
:1017800050917C02052E000C660B770B8AE593E0E6
:101790000E94D10560ED77E080E090E00E94620158
:1017A00060E086E00E94DE0070E060E084E593E0A7
:1017B0000E94A302F09201010115110509F402CF64
:1017C0000E940002882309F4FDCE0E940000FACE98
:1017D00082EA91E00E94BA050E94690580E00E94B9
:1017E000740566EB71E08AE593E00E94AB0555CF86
:1017F000052E97FB1EF400940E940F0C57FD07D096
:101800000E942A0C07FC03D04EF40C940F0C509548
:101810004095309521953F4F4F4F5F4F08959095DC
:101820008095709561957F4F8F4F9F4F08950E94CF
:101830004C0CA59F900DB49F900DA49F800D911D01
:1018400011240895B7FF0C94170C0E94170C821BEB
:10185000930B0895A1E21A2EAA1BBB1BFD010DC01C
:10186000AA1FBB1FEE1FFF1FA217B307E407F50750
:1018700020F0A21BB30BE40BF50B661F771F881F2C
:10188000991F1A9469F760957095809590959B01C2
:10189000AC01BD01CF010895A29FB001B39FC0016B
:1018A000A39F700D811D1124911DB29F700D811D8C
:1018B0001124911D0895991B79E004C0991F961772
:1018C00008F0961B881F7A95C9F780950895EE0F4A
:1018D000FF1F0590F491E02D0994F894FFCF0101CA
:1018E0000000400014005400000000003602960181
:1018F000C3018302F401D201E601000000001F04CD
:10190000F2033605C803EB03D803C9030000000047
:10191000A5059601360535050D0A00536D617274F3
:10192000205061726B696E672053595300536D618B
:101930007274205061726B696E672053797374659D
:101940006D20526561647921004E756D626572206B
:101950006F66204361727320496E736964653A2033
:101960000053706163657320617661696C61626CBC
:10197000653A004361722064657465637465640050
:101980004E6F2053706163657320417661696C61AD
:0E199000626C65004C6F742046756C6C210013
:107E0000112484B714BE81FFF0D085E080938100F7
:107E100082E08093C00088E18093C10086E0809377
:107E2000C20080E18093C4008EE0C9D0259A86E02C
:107E300020E33CEF91E0309385002093840096BBD3
:107E4000B09BFECF1D9AA8958150A9F7CC24DD24C4
:107E500088248394B5E0AB2EA1E19A2EF3E0BF2EE7
:107E6000A2D0813461F49FD0082FAFD0023811F036
:107E7000013811F484E001C083E08DD089C08234E0
:107E800011F484E103C0853419F485E0A6D080C0E4
:107E9000853579F488D0E82EFF2485D0082F10E0AE
:107EA000102F00270E291F29000F111F8ED06801E7
:107EB0006FC0863521F484E090D080E0DECF843638
:107EC00009F040C070D06FD0082F6DD080E0C81688
:107ED00080E7D80618F4F601B7BEE895C0E0D1E017
:107EE00062D089930C17E1F7F0E0CF16F0E7DF06D8
:107EF00018F0F601B7BEE89568D007B600FCFDCFD4
:107F0000A601A0E0B1E02C9130E011968C91119780
:107F100090E0982F8827822B932B1296FA010C0160
:107F200087BEE89511244E5F5F4FF1E0A038BF0790
:107F300051F7F601A7BEE89507B600FCFDCF97BE46
:107F4000E89526C08437B1F42ED02DD0F82E2BD052
:107F50003CD0F601EF2C8F010F5F1F4F84911BD097
:107F6000EA94F801C1F70894C11CD11CFA94CF0C13
:107F7000D11C0EC0853739F428D08EE10CD085E9AC
:107F80000AD08FE07ACF813511F488E018D01DD067
:107F900080E101D065CF982F8091C00085FFFCCF94
:107FA0009093C60008958091C00087FFFCCF809118
:107FB000C00084FD01C0A8958091C6000895E0E648
:107FC000F0E098E1908380830895EDDF803219F02E
:107FD00088E0F5DFFFCF84E1DECF1F93182FE3DFCA
:107FE0001150E9F7F2DF1F91089580E0E8DFEE27F6
:047FF000FF270994CA
:027FFE00040479
:00000001FF
