:100000000C9463000C948B000C948B000C948B006C
:100010000C948B000C948B000C948B000C94A10519
:100020000C948B000C948B000C948B000C948B0024
:100030000C948B000C948B000C948B000C948B0014
:100040000C9457050C948B000C9449060C942306D1
:100050000C948B000C948B000C948B000C948B00F4
:100060000C947B060C948B000000000023002600FB
:1000700029000200000000240027002A00000000E0
:1000800000250028002B00040404040404040402D6
:100090000202020202030303030303010204081025
:1000A00020408001020408102001020408102000F2
:1000B0000000080002010000030407000000000027
:1000C000000000009A0711241FBECFEFD8E0DEBF6A
:1000D000CDBF11E0A0E0B1E0E6EDF5E102C0059092
:1000E0000D92A43AB107D9F723E0A4EAB1E001C028
:1000F0001D92AF32B207E1F710E0C3E6D0E004C0D2
:100100002197FE010E94E30AC236D107C9F70E9477
:10011000E2070C94E90A0C940000833081F028F483
:10012000813099F08230A9F008958730A9F08830A5
:10013000C9F08430B1F4809180008F7D03C080913C
:1001400080008F7780938000089584B58F7784BD79
:10015000089584B58F7DFBCF8091B0008F77809319
:10016000B00008958091B0008F7DF9CF1F93CF9399
:10017000DF93282F30E0F901E155FF4F8491F90119
:10018000E556FF4FD491F901E957FF4FC491CC23B5
:10019000A9F0162F81110E948D00EC2FF0E0EE0FD8
:1001A000FF1FE358FF4FA591B4918FB7F894EC91DE
:1001B000111108C0D095DE23DC938FBFDF91CF9162
:1001C0001F910895DE2BF8CFCF93DF9390E0FC01D1
:1001D000E556FF4F249189579F4FFC018491882356
:1001E000D1F090E0880F991FFC01ED58FF4FA591C9
:1001F000B491FC01E358FF4FC591D49161110EC039
:100200009FB7F8948C91E22FE0958E238C932881F0
:10021000E223E8839FBFDF91CF9108958FB7F894D1
:10022000EC91E22BEC938FBFF6CF3FB7F89480911F
:10023000760290917702A0917802B091790226B56A
:10024000A89B05C02F3F19F00196A11DB11D3FBF0E
:10025000BA2FA92F982F8827BC01CD01620F711DDD
:10026000811D911D42E0660F771F881F991F4A95D7
:10027000D1F708958F929F92AF92BF92CF92DF9263
:10028000EF92FF924B015C010E9415016B017C0112
:100290000E9415016C197D098E099F09683E734003
:1002A00081059105A8F321E0821A9108A108B108FF
:1002B00088EEC80E83E0D81EE11CF11C8114910465
:1002C000A104B10429F7FF90EF90DF90CF90BF9089
:1002D000AF909F908F90089508950895AF92BF9228
:1002E000CF92DF92EF92FF920F931F93CF93DF9302
:1002F0006C017B018B01040F151FEB015E01AE1831
:10030000BF08C017D10759F06991D601ED91FC9152
:100310000190F081E02DC6010995892B79F7C5017F
:10032000DF91CF911F910F91FF90EF90DF90CF90D1
:10033000BF90AF900895FC01538D448D252F30E080
:10034000842F90E0821B930B541710F0CF960895E2
:1003500001970895FC01918D828D981761F0A28D0F
:10036000AE0FBF2FB11D5D968C91928D9F5F9F73D5
:10037000928F90E008958FEF9FEF0895FC01918D8B
:10038000828D981731F0828DE80FF11D858D90E0F8
:1003900008958FEF9FEF0895FC01918D228D892F95
:1003A00090E0805C9F4F821B91098F73992708957D
:1003B0008AE792E00E94CC0121E0892B09F420E039
:1003C000822F089580E090E0892B29F00E94D801C7
:1003D00081110C9400000895FC01A48DA80FB92F81
:1003E000B11DA35ABF4F2C91848D90E001968F735D
:1003F0009927848FA689B7892C93A089B1898C917C
:10040000837080648C93938D848D981306C00288CA
:10041000F389E02D80818F7D80830895EF92FF9294
:100420000F931F93CF93DF93EC0181E0888F9B8D17
:100430008C8D98131AC0E889F989808185FF15C0D1
:100440009FB7F894EE89FF896083E889F9898081F4
:100450008370806480839FBF81E090E0DF91CF91C3
:100460001F910F91FF90EF900895F62E0B8D10E0E5
:100470000F5F1F4F0F731127E02E8C8D8E110CC054
:100480000FB607FCFACFE889F989808185FFF5CF9F
:10049000CE010E94EC01F1CFEB8DEC0FFD2FF11D91
:1004A000E35AFF4FF0829FB7F8940B8FEA89FB89DC
:1004B00080818062CFCFCF93DF93EC01888D88233A
:1004C000B9F0AA89BB89E889F9898C9185FD03C0B7
:1004D000808186FD0DC00FB607FCF7CF8C9185FF9C
:1004E000F2CF808185FFEDCFCE010E94EC01E9CFF4
:1004F000DF91CF91089520910C02260F3327331FEF
:1005000021323105ECF420913002FC0190E080E0D2
:10051000243069F082E00895A0910C022191AC0191
:1005200044515E4FA40FB52FB11D2C930196861731
:1005300098F380910C02680F60930C0280E008959C
:1005400081E008951092300281E08093320210928F
:10055000310261E082E10E94B60061E083E10E9425
:10056000B600E9EBF0E080818E7F808380818D7F13
:10057000808388E48093B80085E48093BC0008956C
:10058000CF93DF9391E09093EB018823B9F0C09172
:10059000B800D091BA008091BC008A7B8093BC00E7
:1005A00060E082E10E94B60060E083E10E94B60054
:1005B0000E94A202D093BA00C093B800DF91CF91FD
:1005C00008950895E0915D0280915C02E81730F48F
:1005D000F0E0EA53FE4F808190E008958FEF9FEFA7
:1005E000089590915D0280915C022FEF3FEF981784
:1005F00048F4E92FF0E0EA53FE4F208130E09F5F9E
:1006000090935D02C901089580915C0290915D0212
:10061000891B990B0895CF92DF92EF92FF920F936F
:100620001F93CF93DF937C01CB018A012091C501F9
:10063000222389F0EB016B01C40ED51ECC15DD051C
:1006400069F06991D701ED91FC910190F081E02D65
:10065000C7010995F3CF642F0E947B02C801DF9187
:10066000CF911F910F91FF90EF90DF90CF90089561
:10067000CF93DF931F92CDB7DEB769832091C50179
:100680002223F9F020915A02203258F021E030E084
:10069000FC013383228390E080E00F90DF91CF91C3
:1006A000089580915B02E82FF0E0EB55FE4F9981B1
:1006B00090838F5F80935B0280935A0281E090E089
:1006C000ECCF61E0CE0101960E947B02F7CFCF9282
:1006D000DF92EF92FF920F931F93CF93DF93FC0172
:1006E000C48121E02093C501C093A40110925B0254
:1006F00010925A028385682B87E193E00E943803A9
:10070000D0915A02D13208F092C00E9415016B01BB
:100710007C0180913002811165C082E080933002BB
:1007200081E0809332028FEF80932F021092540267
:10073000D0935302A5EAB1E0E3E3F2E080E0D813FE
:1007400085C01092550280915502CC0FC82BC093E2
:10075000550280913102813009F07CC01092310243
:100760000E9415016B017C01809155028093BB00B2
:100770008091E7019091E801A091E901B091EA012F
:10078000892B8A2B8B2B99F00E9415010091E70190
:100790001091E8012091E9013091EA016C197D097D
:1007A0008E099F090617170728073907E0F180917E
:1007B000BC0083FDD9CF85EC8093BC000E9415015D
:1007C0006B017C0180913002823009F445C0809138
:1007D0002F028F3F61F180912F02803241F1809191
:1007E0002F0225C08091E7019091E801A091E901D5
:1007F000B091EA01892B8A2B8B2B09F48ACF0E94B6
:1008000015010091E7011091E8012091E901309173
:10081000EA016C197D098E099F0906171707280739
:10082000390708F076CF8091E6010E94C00210924D
:100830005B0210925A021092C501DF91CF911F9175
:100840000F91FF90EF90DF90CF9008959D9191933D
:100850008F5F75CF85EEB0CF8091E7019091E80171
:10086000A091E901B091EA01892B8A2B8B2B09F425
:10087000A9CF0E9415010091E7011091E801209194
:10088000E9013091EA016C197D098E099F0906176B
:1008900017072807390708F095CFC5CF089590E0CE
:1008A00080E008950F931F93CF938C01C62F0E9471
:1008B00067036C2F6460C8010E9467036C2F6B7F15
:1008C000C8010E94670383EC90E00197F1F7CF9194
:1008D0001F910F9108950F931F93CF93DF938C0176
:1008E000D62FC42F607F642B0E94520480E1D89FD2
:1008F000B00111246C2BC801DF91CF911F910F9192
:100900000C94520440E061E083E293E00E946B04A7
:100910008BE39FE10197F1F70895CF93DF93CDB774
:10092000DEB728970FB6F894DEBF0FBECDBF98E0B4
:10093000E2E0F1E0DE01119601900D929A95E1F767
:1009400090912B03981708F48FEF90E0880F991F70
:1009500021E030E02C0F3D1F820F931FFC016081CE
:10096000606840E083E293E028960FB6F894DEBF1B
:100970000FBECDBFDF91CF910C946B0441E00E947C
:100980006B0481E090E00895FB0101900020E9F7FD
:100990003197AF01461B570BDC01ED91FC910280B2
:1009A000F381E02D09948F929F92AF92BF92EF92C4
:1009B000FF920F931F93CF93DF93CDB7DEB7A1972D
:1009C0000FB6F894DEBF0FBECDBF7C01FA01CB019C
:1009D00019A2223008F42AE08E010F5D1F4F822EEB
:1009E000912CB12CA12CBF01A50194010E94C10A38
:1009F000F901CA016A300CF5605DD8016E938D0172
:100A0000232B242B252B79F790E080E0109721F001
:100A1000BD01C7010E94C404A1960FB6F894DEBFC1
:100A20000FBECDBFDF91CF911F910F91FF90EF903F
:100A3000BF90AF909F908F900895695CDECF85ED59
:100A40008093BC008091E7019091E801A091E901B9
:100A5000B091EA010796A11DB11D23E0B695A795B7
:100A6000979587952A95D1F72091BC0024FD03C066
:100A70001092300208954091E7015091E801609191
:100A8000E9017091EA01452B462B472B69F300974A
:100A9000A105B10541F02AE22A95F1F700C00197BE
:100AA000A109B109E1CF8091E6010C94C0021F9227
:100AB0000F920FB60F9211242F933F938F939F9312
:100AC000AF93BF938091720290917302A0917402D0
:100AD000B09175023091710223E0230F2D3758F544
:100AE0000196A11DB11D2093710280937202909313
:100AF0007302A0937402B093750280917602909174
:100B00007702A0917802B09179020196A11DB11DE2
:100B10008093760290937702A0937802B093790243
:100B2000BF91AF919F918F913F912F910F900FBEE9
:100B30000F901F90189526E8230F0296A11DB11D56
:100B4000D2CF1F920F920FB60F9211242F933F9383
:100B50004F935F936F937F938F939F93AF93BF93C5
:100B6000EF93FF938091630290916402A0916502DC
:100B7000B0916602892B8A2B8B2BD1F190915E026A
:100B8000E0915F02F09160028081892780838091EB
:100B9000630290916402A0916502B09166021816FA
:100BA00019061A061B069CF4809163029091640258
:100BB000A0916502B09166020197A109B1098093E5
:100BC000630290936402A0936502B0936602FF9162
:100BD000EF91BF91AF919F918F917F916F915F91B5
:100BE0004F913F912F910F900FBE0F901F9018952E
:100BF00080910001E2E7F0E0E4919FEF9093000123
:100C0000E13051F030F0E23069F060E00E94B6006F
:100C1000DECF10926E00F9CF90916F009D7F909380
:100C20006F00F3CF909170009D7F9093700091E0E2
:100C30009093B0009091B100987F94609093B10030
:100C40001092B300E2CF1F920F920FB60F921124B1
:100C50002F933F934F935F936F937F938F939F93C4
:100C6000AF93BF93EF93FF938AE792E00E94EC016A
:100C7000FF91EF91BF91AF919F918F917F916F9174
:100C80005F914F913F912F910F900FBE0F901F904A
:100C900018951F920F920FB60F9211242F938F93D6
:100CA0009F93EF93FF93E0918A02F0918B028081F2
:100CB000E0919002F091910282FD1BC090818091A1
:100CC00093028F5F8F7320919402821741F0E0911D
:100CD0009302F0E0E658FD4F958F80939302FF91C9
:100CE000EF919F918F912F910F900FBE0F901F90BA
:100CF00018958081F4CF1F920F920FB60F92112496
:100D00002F933F934F935F936F937F938F939F9313
:100D1000AF93BF93EF93FF938091B900887F8036A4
:100D200009F44AC0F0F5883209F4A7C018F58031FB
:100D300009F49BC0B8F4882309F4F9C0883009F499
:100D400094C0FF91EF91BF91AF919F918F917F914F
:100D50006F915F914F913F912F910F900FBE0F9028
:100D60001F901895883109F488C0803251F780931C
:100D70002F0214C0803409F49DC040F48033B9F3CD
:100D80008833F9F680932F0285ECB0C0803509F4E2
:100D900085C0883509F496C0883499F60E941F05ED
:100DA000D0CF883909F48CC038F5883729F050F451
:100DB000883611F0803729F683E080933002109254
:100DC0002E0257C0883809F47BC0803919F080386A
:100DD00009F0B7CF80912E02803208F071C0E09107
:100DE0002E0281E08E0F80932E028091BB00F0E0F6
:100DF000E25FFD4F80833DC0803B39F0E0F4803AF4
:100E000009F479C0883A09F09CCF84E080933002DD
:100E100010920D0210920C02E0915802F0915902CA
:100E2000099580910C0281110FC081E080930C0222
:100E30001092EC0109C0803C09F4A6CF883C09F46B
:100E4000A3CF883B09F07DCFE0910D0281E08E0FAA
:100E500080930D02F0E0E451FE4F80818093BB004F
:100E600090910D0280910C0229C0809155028093CF
:100E7000BB0085EC8093BC0064CF909154028091BC
:100E80005302981758F5E091540281E08E0F809339
:100E90005402F0E0ED5CFD4F8081E9CFE091540217
:100EA00081E08E0F809354028091BB00F0E0ED5CF6
:100EB000FD4F808390915402809153029817C8F29D
:100EC00085E8D8CFE091540281E08E0F80935402E0
:100ED0008091BB00F0E0ED5CFD4F80838091320299
:100EE00081115CCF81E08093310284EA8093BC0061
:100EF0001092300226CF85EC8093BC001092300215
:100F000080912E02803230F4E0912E02F0E0E25F18
:100F1000FD4F108260912E0270E0E0915602F09138
:100F200057028EE092E0099510922E020ACF10929D
:100F30002F0234CFEAE7F2E01382128288EE93E0C8
:100F4000A0E0B0E084839583A683B7832EE031E0F0
:100F50003183208325EC30E03587248724EC30E092
:100F60003787268720EC30E0318B208B21EC30E076
:100F7000338B228B22EC30E0358B248B26EC30E057
:100F8000378B268B118E128E138E148EE7E1F3E0D1
:100F90001382128284839583A683B78380E291E0D3
:100FA00091838083E3E2F3E01382128282E391E093
:100FB0009183808380E2848380E1818782E08287DD
:100FC00013860895789484B5826084BD84B5816069
:100FD00084BD85B5826085BD85B5816085BD809104
:100FE0006E00816080936E0010928100809181007C
:100FF0008260809381008091810081608093810074
:10100000809180008160809380008091B100846035
:101010008093B1008091B00081608093B000809196
:101020007A00846080937A0080917A008260809355
:101030007A0080917A00816080937A0080917A00B2
:10104000806880937A001092C10060E082E00E9484
:10105000E40061E083E00E94E40061E084E00E943B
:10106000E40061E085E00E94E400E0918A02F091F2
:101070008B0282E08083E0918602F09187021082E9
:10108000E0918802F09189028FEC808310929202A5
:10109000E0918E02F0918F0286E08083E0918C02D5
:1010A000F0918D02808180618083E0918C02F091CB
:1010B0008D02808188608083E0918C02F0918D02A6
:1010C000808180688083E0918C02F0918D02808124
:1010D0008F7D80836AE371E08AE792E00E94C40416
:1010E00063E571E08AE792E00E94C40410925D0219
:1010F00010925C0210925B0210925A020E94A202AD
:101100008CE691E090935902809358028DE691E02D
:1011100090935702809356021092280380912D03DA
:10112000823018F098E09093280380932B0362E3B9
:1011300070E080E090E00E943A0160912E0383E22B
:1011400093E00E94670368EE73E080E090E00E9405
:101150003A0160E383E293E00E945204CBE4D6E4D8
:10116000CE010197F1F760E383E293E00E9452041D
:101170002197F1F760E383E293E00E94520483E554
:1011800092E00197F1F760E283E293E00E9452045B
:1011900060912803606240E083E293E00E946B0468
:1011A00084E08093290340E06CE083E293E00E94B6
:1011B0006B040E94820482E080932A0340E066E090
:1011C00083E293E00E946B0440E062E083E293E0FC
:1011D0000E946B048BE39FE10197F1F788E0809315
:1011E0002E0360E083E293E00E94670380E00E94A8
:1011F0008D0466E571E083E293E00E94C40481E01F
:101200000E948D0460E671E083E293E00E94C404D2
:1012100068EE73E080E090E00E943A010E94820450
:1012200059E2852E58E6952E62E7A62E60E0B62E8E
:101230000FE910E044244A94542C320140E0242E5B
:1012400040E0342EE1EBF0E08491EDE9F0E0E49051
:10125000E9E8F0E0F490F1103CC0809101018823AE
:1012600009F479C180916F02909170020196909378
:10127000700280936F0261E083E00E94B60080916B
:101280000001843009F060C0F501C491C7FDFBC0C6
:1012900061E084E00E94E400CC2309F4C6C0C230BF
:1012A00009F0D7C08091B100887F85608093B1003C
:1012B0008FEC8093B300409263025092640260927C
:1012C0006502709266028091700082608093700067
:1012D000DAC081110E948D00EF2DF0E0EE0FFF1FAC
:1012E000E859FF4FA591B4919C9180910101E922A9
:1012F00009F4B3CF81112FC160E083E00E94B600F2
:1013000060E084E00E94B60060E085E00E94B600E4
:101310000E94820480E00E948D0464E971E083E20F
:1013200093E00E94C40481E00E948D046EE971E0A4
:1013300083E293E00E94C40462E370E080E090E006
:101340000E943A0181E007C18F3F09F09CC084E010
:1013500080930001F501C491CF3F09F494C0C130DE
:1013600021F150F0C23009F43EC0C7FD8CC061E0ED
:1013700084E00E94E40093CF14BC15BC84B5826065
:1013800084BD85B5816085BDEBE8F0E08491E82FF0
:10139000F0E0EE0FFF1FE358FF4F85919491F801A5
:1013A000849180936202C0E073CF1092800010920B
:1013B000810080918100886080938100809181000C
:1013C000816080938100EBE8F0E08491E82FF0E009
:1013D000EE0FFF1FE358FF4F85919491F801849120
:1013E0008093610255CF1092B0001092B1008091AD
:1013F000B00082608093B0008091B10081608093E2
:10140000B100EBE8F0E08491E82FF0E0EE0FFF1F71
:10141000E358FF4F859194919093600280935F020F
:10142000F801849180935E0233CF85B5887F846014
:1014300085BD87E687BD40926B0250926C02609238
:101440006D0270926E0280916E00826080936E00D9
:101450001AC0C13009F08DC080918100887F816001
:101460008093810090928900809288004092670268
:10147000509268026092690270926A0280916F00D5
:10148000826080936F0061E085E00E94B6006DE6A7
:1014900071E08AE792E00E94C404C0906F02D0908D
:1014A00070020D2C000CEE08FF082AE0B701A6011F
:1014B000F7FE0DC06DE28AE792E00E940E0244271B
:1014C0005527BA014C195D096E097F092AE08AE7A0
:1014D00092E00E94D30463E571E08AE792E00E9403
:1014E000C4040E94820480E00E948D0466E871E0DA
:1014F00083E293E00E94C40481E00E948D046EE7C1
:1015000071E083E293E00E94C404C0906F02D09027
:1015100070020D2C000CEE08FF082AE0B701A601AE
:10152000F7FE0EC041E06DE283E293E00E946B049F
:1015300044275527BA014C195D096E097F092AE035
:1015400083E293E00E94D30468EC70E080E090E0D6
:101550000E943A0180E0809301012114310409F4D2
:1015600071CE0E94D801882309F468CE0E94000041
:1015700065CEC23021F0C11186CF89E25BCF89E20E
:1015800098CEA1E21A2EAA1BBB1BFD010DC0AA1FFB
:10159000BB1FEE1FFF1FA217B307E407F50720F0DC
:1015A000A21BB30BE40BF50B661F771F881F991F57
:1015B0001A9469F760957095809590959B01AC01A0
:1015C000BD01CF010895EE0FFF1F0590F491E02DAE
:0615D0000994F894FFCF1E
:1015D600FF010000400014005400000000000E024D
:1015E6006E019B015B02CC01AA01BE010000000056
:1015F60038030B034F04E1020403F102E202000088
:101606000000BE046E014F044E0449522053656E1D
:10161600736F722053797374656D2053746172749D
:101626006564000D0A0049522053454E534F52003F
:1016360053595354454D205245414459004F626A0F
:101646006563742044657465637465642E2049740B
:10165600656D733A20004974656D20446574656351
:10166600746564004E4F204F424A45435400464F2E
:04167600554E440089
:00000001FF
