:020000040000FA
:100000000C9462000C948A000C948A000C948A0070
:100010000C948A000C948A000C948A000C948A0038
:100020000C948A000C948A000C948A000C948A0028
:100030000C948A000C948A000C948A000C948A0018
:100040000C94C9050C948A000C9439060C94130680
:100050000C948A000C948A000C948A000C948A00F8
:100060000C946B060C948A0000000000240027000A
:100070002A0000000000250028002B0000000000DE
:1000800023002600290004040404040404040202DA
:100090000202020203030303030301020408102007
:1000A0004080010204081020010204081020000012
:1000B0000008000201000003040700000000000027
:1000C00000008A0711241FBECFEFD8E0DEBFCDBFEE
:1000D00011E0A0E0B1E0EEE4F9E102C005900D927C
:1000E000AC36B107D9F722E0ACE6B1E001C01D9211
:1000F000A53FB207E1F710E0C2E6D0E004C02197C7
:10010000FE010E947A0BC136D107C9F70E94E407AD
:100110000C94A50C0C940000833081F028F48130FD
:1001200099F08230A9F008958730A9F08830C9F09D
:100130008430B1F4809180008F7D03C08091800075
:100140008F7780938000089584B58F7784BD08955C
:1001500084B58F7DFBCF8091B0008F778093B00006
:1001600008958091B0008F7DF9CFCF93DF93282F32
:1001700030E0F901E255FF4F8491F901E656FF4F57
:10018000D491F901EA57FF4FC491CC23A1F081111A
:100190000E948C00EC2FF0E0EE0FFF1FE458FF4FA1
:1001A000A591B491EC91ED2381E090E009F480E019
:1001B000DF91CF91089580E090E0FACF1F93CF9325
:1001C000DF93282F30E0F901E255FF4F8491F901C8
:1001D000E656FF4FD491F901EA57FF4FC491CC2363
:1001E000A9F0162F81110E948C00EC2FF0E0EE0F89
:1001F000FF1FEE58FF4FA591B4918FB7F894EC9183
:10020000111108C0D095DE23DC938FBFDF91CF9111
:100210001F910895DE2BF8CF3FB7F89480912B0201
:1002200090912C02A0912D02B0912E0226B5A89B90
:1002300005C02F3F19F00196A11DB11D3FBFBA2F78
:10024000A92F982F8827BC01CD01620F711D811D38
:10025000911D42E0660F771F881F991F4A95D1F7BD
:1002600008958F929F92AF92BF92CF92DF92EF92BA
:10027000FF926B017C010E940C014B015C01C114D7
:10028000D104E104F104B9F00E940C016819790964
:100290008A099B09683E73408105910580F321E03E
:1002A000C21AD108E108F10888EE880E83E0981E92
:1002B000A11CB11CE4CFFF90EF90DF90CF90BF90D6
:1002C000AF909F908F90089508950895AF92BF9238
:1002D000CF92DF92EF92FF920F931F93CF93DF9312
:1002E0006C017B018B01040F151FEB015E01AE1841
:1002F000BF08C017D10759F06991D601ED91FC9163
:100300000190F081E02DC6010995892B79F7C5018F
:10031000DF91CF911F910F91FF90EF90DF90CF90E1
:10032000BF90AF900895FC01538D448D252F30E090
:10033000842F90E0821B930B541710F0CF960895F2
:1003400001970895FC01918D828D981761F0A28D1F
:10035000AE0FBF2FB11D5D968C91928D9F5F9F73E5
:10036000928F90E008958FEF9FEF0895FC01918D9B
:10037000828D981731F0828DE80FF11D858D90E008
:1003800008958FEF9FEF0895FC01918D228D892FA5
:1003900090E0805C9F4F821B91098F73992708958D
:1003A0008FE292E00E94C40121E0892B09F420E051
:1003B000822F089580E090E0892B29F00E94D001DF
:1003C00081110C9400000895FC01A48DA80FB92F91
:1003D000B11DA35ABF4F2C91848D90E001968F736D
:1003E0009927848FA689B7892C93A089B1898C918C
:1003F000837080648C93938D848D981306C00288DB
:10040000F389E02D80818F7D80830895EF92FF92A4
:100410000F931F93CF93DF93EC0181E0888F9B8D27
:100420008C8D98131AC0E889F989808185FF15C0E1
:100430009FB7F894EE89FF896083E889F989808104
:100440008370806480839FBF81E090E0DF91CF91D3
:100450001F910F91FF90EF900895F62E0B8D10E0F5
:100460000F5F1F4F0F731127E02E8C8D8E110CC064
:100470000FB607FCFACFE889F989808185FFF5CFAF
:10048000CE010E94E401F1CFEB8DEC0FFD2FF11DA9
:10049000E35AFF4FF0829FB7F8940B8FEA89FB89EC
:1004A00080818062CFCFCF93DF93EC01888D88234A
:1004B000B9F0AA89BB89E889F9898C9185FD03C0C7
:1004C000808186FD0DC00FB607FCF7CF8C9185FFAC
:1004D000F2CF808185FFEDCFCE010E94E401E9CF0C
:1004E000DF91CF91089508952091AD01260F332714
:1004F000331F21323105ECF42091F601FC0190E02C
:1005000080E0243069F082E00895A091AD0121914E
:10051000AC0143575E4FA40FB52FB11D2C9301962C
:10052000861798F38091AD01680F6093AD0180E06C
:10053000089581E008951092F60181E08093F5011D
:100540001092D00161E082E10E94DE0061E083E16F
:100550000E94DE00E9EBF0E080818E7F8083808165
:100560008D7F808388E48093B80085E48093BC000D
:100570000895CF93DF9391E090938C018823B9F095
:10058000C091B800D091BA008091BC008A7B809362
:10059000BC0060E082E10E94DE0060E083E10E9436
:1005A000DE000E949B02D093BA00C093B800DF9196
:1005B000CF9108950895E091250280912402E817D3
:1005C00030F4F0E0E459FE4F808190E008958FEF21
:1005D0009FEF089590912502809124022FEF3FEF25
:1005E000981748F4E92FF0E0E459FE4F208130E0FD
:1005F0009F5F90932502C9010895809124029091F4
:100600002502891B990B0895CF92DF92EF92FF92FA
:100610000F931F93CF93DF937C01CB018A0120912D
:10062000FC01222389F0EB016B01C40ED51ECC1511
:10063000DD0569F06991D701ED91FC910190F081A0
:10064000E02DC7010995F3CF642F0E947402C80101
:10065000DF91CF911F910F91FF90EF90DF90CF909E
:100660000895CF93DF931F92CDB7DEB769832091B2
:10067000FC012223F9F020912202203258F021E0DF
:1006800030E0FC013383228390E080E00F90DF9123
:10069000CF91089580912302E82FF0E0E350FE4FC0
:1006A000998190838F5F809323028093220281E05F
:1006B00090E0ECCF61E0CE0101960E947402F7CF8A
:1006C000CF92DF92EF92FF920F931F93CF93DF931E
:1006D000FC01C48121E02093FC01C0931D02109213
:1006E0002302109222028385682B8CEC92E00E94F8
:1006F0003103D0912202D13208F092C00E940C0145
:100700006B017C018091F601811165C082E08093CC
:10071000F60181E08093F5018FEF8093F401109250
:10072000F301D093F201ADEFB1E0E2EDF1E080E052
:10073000D81385C01092D1018091D101CC0FC82B64
:10074000C093D1018091D001813009F07CC010921A
:10075000D0010E940C016B017C018091D10180933A
:10076000BB008091F8019091F901A091FA01B0913C
:10077000FB01892B8A2B8B2B99F00E940C01009195
:10078000F8011091F9012091FA013091FB016C19E7
:100790007D098E099F090617170728073907E0F119
:1007A0008091BC0083FDD9CF85EC8093BC000E9472
:1007B0000C016B017C018091F601823009F445C087
:1007C0008091F4018F3F61F18091F401803241F119
:1007D0008091F40125C08091F8019091F901A091D8
:1007E000FA01B091FB01892B8A2B8B2B09F48ACF5C
:1007F0000E940C010091F8011091F9012091FA0179
:100800003091FB016C197D098E099F0906171707A6
:100810002807390708F076CF8091F7010E94B902C6
:1008200010922302109222021092FC01DF91CF91CC
:100830001F910F91FF90EF90DF90CF9008959D91C1
:1008400091938F5F75CF85EEB0CF8091F801909135
:10085000F901A091FA01B091FB01892B8A2B8B2B16
:1008600009F4A9CF0E940C010091F8011091F9013F
:100870002091FA013091FB016C197D098E099F09C5
:10088000061717072807390708F095CFC5CF90E05E
:1008900080E008950895FF920F931F93CF93DF9305
:1008A000F82E062FC7E0D0E010E061E0802F0E9414
:1008B000DE008F2D0E94B5000C2E01C0880F0A9417
:1008C000EAF7182B60E0802F0E94DE00219768F77E
:1008D000812FDF91CF911F910F91FF900895EF929B
:1008E000FF920F931F93CF93DF938091E7020E94B3
:1008F000B500892B31F060E070E0CB010E9431013E
:10090000F4CFDFB7F8946091E6028091E7020E948D
:100910004B04082F6091E6028091E7020E944B048D
:10092000C82F6091E6028091E7020E944B04182FC5
:10093000F12CE12C8091E8028E151F0479F070F003
:1009400061E08091E6020E94DE0060E08091E602B4
:100950000E94DE008FEFE81AF80AECCFDFBF6C2FA1
:1009600070E090E080E0982F872F762F6627802B0D
:10097000612B000F000B10E030E020E0302F222729
:1009800011270027602B712B822B932BDF91CF91A6
:100990001F910F91FF90EF9008950F931F93CF93A6
:1009A0008C01C62F0E9460036C2F6460C8010E94F6
:1009B00060036C2F6B7FC8010E94600383EC90E0A2
:1009C0000197F1F7CF911F910F9108950F931F9306
:1009D000CF93DF938C01D62FC42F607F642B0E94AE
:1009E000CD0480E1D89FB00111246C2BC801DF91A8
:1009F000CF911F910F910C94CD04CF93DF93CDB77E
:100A0000DEB728970FB6F894DEBF0FBECDBF98E0D3
:100A1000E6E0F1E0DE01119601900D929A95E1F782
:100A20009091E002981708F48FEF90E0880F991FDB
:100A300021E030E02C0F3D1F820F931FFC016081ED
:100A4000606840E088ED92E028960FB6F894DEBF2B
:100A50000FBECDBFDF91CF910C94E60441E00E9420
:100A6000E60481E090E00895FB0101900020E9F7A1
:100A70003197AF01461B570BDC01ED91FC910280D1
:100A8000F381E02D09948F929F92AF92BF92EF92E3
:100A9000FF920F931F93CF93DF93CDB7DEB7A1974C
:100AA0000FB6F894DEBF0FBECDBF7C01FA01CB01BB
:100AB00019A2223008F42AE08E010F5D1F4F822E0A
:100AC000912CB12CA12CBF01A50194010E94390BDE
:100AD000F901CA016A300CF5605DD8016E938D0191
:100AE000232B242B252B79F790E080E0109721F021
:100AF000BD01C7010E943405A1960FB6F894DEBF70
:100B00000FBECDBFDF91CF911F910F91FF90EF905E
:100B1000BF90AF909F908F900895695CDECF85ED78
:100B20008093BC008091F8019091F901A091FA01A5
:100B3000B091FB010796A11DB11D23E0B695A795C5
:100B4000979587952A95D1F72091BC0024FD03C085
:100B50001092F60108954091F8015091F9016091C9
:100B6000FA017091FB01452B462B472B69F3009747
:100B7000A105B10541F02AE22A95F1F700C00197DD
:100B8000A109B109E1CF8091F7010C94B9020C944D
:100B90001C0C1F920F920FB60F9211242F933F93AC
:100BA0008F939F93AF93BF938091270290912802D8
:100BB000A0912902B0912A023091260223E0230F4E
:100BC0002D3758F50196A11DB11D20932602809363
:100BD000270290932802A0932902B0932A028091C1
:100BE0002B0290912C02A0912D02B0912E02019621
:100BF000A11DB11D80932B0290932C02A0932D0276
:100C0000B0932E02BF91AF919F918F913F912F9101
:100C10000F900FBE0F901F90189526E8230F029695
:100C2000A11DB11DD2CF1F920F920FB60F921124AA
:100C30002F933F934F935F936F937F938F939F93E4
:100C4000AF93BF93EF93FF938FE292E00E94E40192
:100C5000FF91EF91BF91AF919F918F917F916F9194
:100C60005F914F913F912F910F900FBE0F901F906A
:100C700018951F920F920FB60F9211242F938F93F6
:100C80009F93EF93FF93E0913F02F09140028081A8
:100C9000E0914502F091460282FD1BC09081809157
:100CA00048028F5F8F7320914902821741F0E091D3
:100CB0004802F0E0E15DFD4F958F80934802FF917F
:100CC000EF919F918F912F910F900FBE0F901F90DA
:100CD00018958081F4CF1F920F920FB60F921124B6
:100CE0002F933F934F935F936F937F938F939F9334
:100CF000AF93BF93EF93FF938091B900887F8036C5
:100D000009F44AC0F0F5883209F4A7C018F580311B
:100D100009F49BC0B8F4882309F4F9C0883009F4B9
:100D200094C0FF91EF91BF91AF919F918F917F916F
:100D30006F915F914F913F912F910F900FBE0F9048
:100D40001F901895883109F488C0803251F780933C
:100D5000F40114C0803409F49DC040F48033B9F329
:100D60008833F9F68093F40185ECB0C0803509F43E
:100D700085C0883509F496C0883499F60E948F059D
:100D8000D0CF883909F48CC038F5883729F050F471
:100D9000883611F0803729F683E08093F6011092AF
:100DA000CF0157C0883809F47BC0803919F08038EA
:100DB00009F0B7CF8091CF01803208F071C0E09187
:100DC000CF0181E08E0F8093CF018091BB00F0E0D6
:100DD000E155FE4F80833DC0803B39F0E0F4803A1E
:100DE00009F479C0883A09F09CCF84E08093F60139
:100DF0001092AE011092AD01E0912002F09121021B
:100E000009958091AD0181110FC081E08093AD0102
:100E100010928D0109C0803C09F4A6CF883C09F4EA
:100E2000A3CF883B09F07DCFE091AE0181E08E0F2A
:100E30008093AE01F0E0E357FE4F80818093BB00CA
:100E40009091AE018091AD0129C08091D101809334
:100E5000BB0085EC8093BC0064CF9091F30180913E
:100E6000F201981758F5E091F30181E08E0F80931D
:100E7000F301F0E0EE52FE4F8081E9CFE091F30103
:100E800081E08E0F8093F3018091BB00F0E0EE5281
:100E9000FE4F80839091F3018091F2019817C8F280
:100EA00085E8D8CFE091F30181E08E0F8093F301C4
:100EB0008091BB00F0E0EE52FE4F80838091F501FF
:100EC00081115CCF81E08093D00184EA8093BC00E3
:100ED0001092F60126CF85EC8093BC001092F601AB
:100EE0008091CF01803230F4E091CF01F0E0E15504
:100EF000FE4F10826091CF0170E0E0911E02F091F0
:100F00001F028FEA91E009951092CF010ACF10924B
:100F1000F40134CFEFE2F2E01382128288EE93E024
:100F2000A0E0B0E084839583A683B78322E131E01B
:100F30003183208325EC30E03587248724EC30E0B2
:100F40003787268720EC30E0318B208B21EC30E096
:100F5000338B228B22EC30E0358B248B26EC30E077
:100F6000378B268B118E128E138E148EECECF2E0E2
:100F70001382128284839583A683B78384E291E0EF
:100F800091838083E4EEF2E082E491E091838083B8
:100F9000158216821782108680E090E0A0E8BFE3F9
:100FA00081879287A387B487E8EDF2E013821282EB
:100FB00086E391E09183808380E2848380E181876E
:100FC00082E0828713860895789484B5826084BD18
:100FD00084B5816084BD85B5826085BD85B581603D
:100FE00085BD80916E00816080936E0010928100BB
:100FF0008091810082608093810080918100816076
:101000008093810080918000816080938000809136
:10101000B10084608093B1008091B00081608093C2
:10102000B00080917A00846080937A0080917A0089
:10103000826080937A0080917A00816080937A0048
:1010400080917A00806880937A001092C100E091CC
:101050003F02F091400292E09083E0913B02F091D8
:101060003C021082E0913D02F0913E028FEC8083C1
:1010700010924702E0914302F091440286E080839F
:10108000E0914102F0914202808180618083E09191
:101090004102F0914202808188608083E0914102A8
:1010A000F0914202808180688083E0914102F0915A
:1010B000420280818F7D80839093E60283E080935B
:1010C000E702ECE9F0E02491E8E8F0E0849188237D
:1010D00099F090E0880F991FFC01E859FF4FA59106
:1010E000B491FC01EE58FF4F859194918FB7F8941D
:1010F000EC91E22BEC938FBF8091E70290E0FC0132
:10110000E656FF4F24918A579F4FFC018491882314
:10111000C1F090E0880F991FFC01E859FF4FC5917D
:10112000D491FC01EE58FF4FA591B4919FB7F8946C
:101130003881822F809583238883EC91E22BEC9376
:101140009FBF81E08093E80280E090E4A2EDB3E4E9
:101150008093ED029093EE02A093EF02B093F00221
:10116000CAE0C12CD12C76010E946F04C60ED71E96
:10117000E81EF91E60E070E0CB010E943101C15011
:1011800099F7C701B6012AE030E040E050E00E9444
:101190005B0BCA01B9010E94AD0A0E94750A6093F7
:1011A000E9027093EA028093EB029093EC021092B2
:1011B00025021092240210922302109222020E9411
:1011C0009B0284E691E0909321028093200285E6C1
:1011D00091E090931F0280931E021092DD02809195
:1011E000E202823018F098E09093DD028093E002F2
:1011F00062E370E080E090E00E9431016091E302E0
:1012000088ED92E00E94600368EE73E080E090E079
:101210000E94310160E388ED92E00E94CD04CBE4AE
:10122000D6E4CE010197F1F760E388ED92E00E94E9
:10123000CD042197F1F760E388ED92E00E94CD04A0
:1012400083E592E00197F1F760E288ED92E00E9479
:10125000CD046091DD02606240E088ED92E00E9482
:10126000E60484E08093DE0240E06CE088ED92E0EA
:101270000E94E60440E061E088ED92E00E94E6040E
:10128000CBE3DFE1CE010197F1F782E08093DF024B
:1012900040E066E088ED92E00E94E60440E062E013
:1012A00088ED92E00E94E604CE010197F1F788E014
:1012B0008093E30260E088ED92E00E94600380E0AA
:1012C0000E94FD0466E471E088ED92E00E9434051E
:1012D00060ED77E080E090E00E94310140E061E065
:1012E00088ED92E00E94E6042197F1F7C0E0D0E09B
:1012F0000E946F046B017C0160E070E0CB010E94F2
:1013000031018091E9029091EA02A091EB02B09143
:10131000EC02A7019601281B390B4A0B5B0BCA0193
:10132000B9010E94AD0A2091ED023091EE02409188
:10133000EF025091F0020E94030A0E94750A6B01AD
:101340007C0164E571E08FE292E00E9434052AE0BE
:10135000B701A601F7FE0DC06DE28FE292E00E9498
:10136000060244275527BA014C195D096E097F0909
:101370002AE08FE292E00E94430569E671E08FE285
:1013800092E00E9434056DE571E08FE292E00E94E8
:10139000340580E00E94FD0460E671E088ED92E093
:1013A0000E94340581E00E94FD042AE0B701A601F5
:1013B000F7FE0EC041E06DE288ED92E00E94E60487
:1013C00044275527BA014C195D096E097F092AE0A7
:1013D00088ED92E00E94430568E671E088ED92E0B6
:1013E0000E94340564EF71E080E090E00E943101DA
:1013F000209709F47DCF0E94D001882309F478CF8B
:101400000E94000075CF0E94170A0C94FF0A0E94E8
:10141000F80A58F00E94F10A40F029F45F3F29F0E1
:101420000C94E80A51110C94330B0C94EE0A0E94B0
:10143000100B68F39923B1F3552391F3951B550BCA
:10144000BB27AA2762177307840738F09F5F5F4F97
:10145000220F331F441FAA1FA9F335D00E2E3AF0D6
:10146000E0E832D091505040E695001CCAF72BD0EE
:10147000FE2F29D0660F771F881FBB1F261737073F
:101480004807AB07B0E809F0BB0B802DBF01FF2771
:1014900093585F4F3AF09E3F510578F00C94E80A5C
:1014A0000C94330B5F3FE4F3983ED4F38695779525
:1014B0006795B795F7959F5FC9F7880F911D96952A
:1014C000879597F90895E1E0660F771F881FBB1F86
:1014D000621773078407BA0720F0621B730B840B33
:1014E000BA0BEE1F88F7E09508950E947C0A689475
:1014F000B1110C94330B08950E94180B88F09F577C
:1015000098F0B92F9927B751B0F0E1F0660F771F27
:10151000881F991F1AF0BA95C9F714C0B13091F01D
:101520000E94320BB1E008950C94320B672F782F94
:101530008827B85F39F0B93FCCF3869577956795E2
:10154000B395D9F73EF490958095709561957F4F4E
:101550008F4F9F4F0895E89409C097FB3EF49095F4
:101560008095709561957F4F8F4F9F4F9923A9F07C
:10157000F92F96E9BB279395F6958795779567950B
:10158000B795F111F8CFFAF4BB0F11F460FF1BC04F
:101590006F5F7F4F8F4F9F4F16C0882311F096E9E2
:1015A00011C0772321F09EE8872F762F05C0662390
:1015B00071F096E8862F70E060E02AF09A95660F49
:1015C000771F881FDAF7880F9695879597F9089502
:1015D00097F99F6780E870E060E008959FEF80ECE6
:1015E000089500240A941616170618060906089589
:1015F00000240A9412161306140605060895092EEF
:101600000394000C11F4882352F0BB0F40F4BF2B5D
:1016100011F460FF04C06F5F7F4F8F4F9F4F08959D
:1016200057FD9058440F551F59F05F3F71F0479593
:10163000880F97FB991F61F09F3F79F08795089578
:10164000121613061406551FF2CF4695F1DF08C097
:10165000161617061806991FF1CF869571056105B4
:1016600008940895E894BB2766277727CB0197F95C
:101670000895A1E21A2EAA1BBB1BFD010DC0AA1FD3
:10168000BB1FEE1FFF1FA217B307E407F50720F0EB
:10169000A21BB30BE40BF50B661F771F881F991F66
:1016A0001A9469F760957095809590959B01AC01AF
:1016B000BD01CF010895052E97FB1EF400940E94F2
:1016C000720B57FD07D00E94390B07FC03D04EF474
:1016D0000C94720B50954095309521953F4F4F4F8C
:1016E0005F4F089590958095709561957F4F8F4FCE
:1016F0009F4F0895EE0FFF1F0590F491E02D099480
:101700000F931F93CF93DF938230910510F482E003
:1017100090E0E091F302F091F40230E020E0B0E0DC
:10172000A0E0309799F42115310509F44AC0281B2F
:10173000390B24303105D8F58A819B8161157105FB
:1017400089F1FB0193838283FE0111C040815181A5
:101750000281138148175907E0F04817590799F497
:10176000109761F012960C93129713961C93329671
:10177000CF01DF91CF911F910F9108950093F30254
:101780001093F402F4CF2115310551F0421753079D
:1017900038F0A901DB019A01BD01DF01F801C1CFD9
:1017A000EF01F9CF9093F4028093F302CDCFFE01C5
:1017B000E20FF31F819391932250310939832883DB
:1017C000D7CF2091F1023091F202232B41F42091E6
:1017D0000201309103013093F2022093F102209133
:1017E0000001309101012115310541F42DB73EB7BB
:1017F0004091040150910501241B350BE091F10249
:10180000F091F202E217F307A0F42E1B3F0B28170A
:10181000390778F0AC014E5F5F4F2417350748F069
:101820004E0F5F1F5093F2024093F1028193919308
:101830009FCFF0E0E0E09CCFCF93DF930097E9F0FB
:10184000FC01329713821282A091F302B091F4024C
:10185000ED0130E020E01097A1F420813181820F6A
:10186000931F2091F1023091F2022817390709F0F5
:1018700061C0F093F202E093F102DF91CF910895FD
:10188000EA01CE17DF07E8F54A815B819E01411529
:101890005105B1F7E901FB83EA8349915991C40FDE
:1018A000D51FEC17FD0761F4808191810296840FAA
:1018B000951FE90199838883828193819B838A8321
:1018C000F0E0E0E012968D919C9113970097B9F5A6
:1018D0002D913C911197CD010296820F931F20917B
:1018E000F1023091F2022817390739F6309751F595
:1018F0001092F4021092F302B093F202A093F1025C
:10190000BCCFD383C28340815181840F951FC817F8
:10191000D90761F44E5F5F4F88819981480F591F45
:10192000518340838A819B81938382832115310572
:1019300009F0B0CFF093F402E093F3029ECFFD01E3
:10194000DC01C0CF13821282D7CFF894FFCF000002
:10195000F502800000004000140054000000000068
:101960000602660193015302C401A201B601000000
:101970000000310304034704DA02FD02EA02DB023D
:10198000000000002E0566014704730200000000FD
:101990004A04C7054469676974616C205363616CCC
:1019A00065005765696768743A20000D0A0057653D
:0A19B000696768743A0020670000C0
:107E0000112484B714BE81FFF0D085E080938100F7
:107E100082E08093C00088E18093C10086E0809377
:107E2000C20080E18093C4008EE0C9D0259A86E02C
:107E300020E33CEF91E0309385002093840096BBD3
:107E4000B09BFECF1D9AA8958150A9F7CC24DD24C4
:107E500088248394B5E0AB2EA1E19A2EF3E0BF2EE7
:107E6000A2D0813461F49FD0082FAFD0023811F036
:107E7000013811F484E001C083E08DD089C08234E0
:107E800011F484E103C0853419F485E0A6D080C0E4
:107E9000853579F488D0E82EFF2485D0082F10E0AE
:107EA000102F00270E291F29000F111F8ED06801E7
:107EB0006FC0863521F484E090D080E0DECF843638
:107EC00009F040C070D06FD0082F6DD080E0C81688
:107ED00080E7D80618F4F601B7BEE895C0E0D1E017
:107EE00062D089930C17E1F7F0E0CF16F0E7DF06D8
:107EF00018F0F601B7BEE89568D007B600FCFDCFD4
:107F0000A601A0E0B1E02C9130E011968C91119780
:107F100090E0982F8827822B932B1296FA010C0160
:107F200087BEE89511244E5F5F4FF1E0A038BF0790
:107F300051F7F601A7BEE89507B600FCFDCF97BE46
:107F4000E89526C08437B1F42ED02DD0F82E2BD052
:107F50003CD0F601EF2C8F010F5F1F4F84911BD097
:107F6000EA94F801C1F70894C11CD11CFA94CF0C13
:107F7000D11C0EC0853739F428D08EE10CD085E9AC
:107F80000AD08FE07ACF813511F488E018D01DD067
:107F900080E101D065CF982F8091C00085FFFCCF94
:107FA0009093C60008958091C00087FFFCCF809118
:107FB000C00084FD01C0A8958091C6000895E0E648
:107FC000F0E098E1908380830895EDDF803219F02E
:107FD00088E0F5DFFFCF84E1DECF1F93182FE3DFCA
:107FE0001150E9F7F2DF1F91089580E0E8DFEE27F6
:047FF000FF270994CA
:027FFE00040479
:00000001FF
