:100000000C9462000C948A000C948A000C948A0070
:100010000C948A000C948A000C948A000C948A0038
:100020000C948A000C948A000C948A000C948A0028
:100030000C948A000C948A000C948A000C948A0018
:100040000C9494040C948A000C9404050C94DE0423
:100050000C948A000C948A000C948A000C948A00F8
:100060000C9436050C948A00000000002400270040
:100070002A000000000023002600290000000000E4
:10008000250028002B0004040404040404040202D4
:100090000202020203030303030301020408102007
:1000A0004080010204081020010204081020000012
:1000B0000008000201000003040700000000000027
:1000C0000000550611241FBECFEFD8E0DEBFCDBF24
:1000D00011E0A0E0B1E0E6E5F0E102C005900D928C
:1000E000AA34B107D9F722E0AAE4B1E001C01D9219
:1000F000A23CB207E1F710E0C2E6D0E004C02197CD
:10010000FE010E942308C136D107C9F70E949D064F
:100110000C9429080C940000833081F028F481307D
:1001200099F08230A9F008958730A9F08830C9F09D
:100130008430B1F4809180008F7D03C08091800075
:100140008F7780938000089584B58F7784BD08955C
:1001500084B58F7DFBCF8091B0008F778093B00006
:1001600008958091B0008F7DF9CF1F93CF93DF93D7
:10017000282F30E0F901E255FF4F8491F901E6564E
:10018000FF4FD491F901EA57FF4FC491CC23A9F056
:10019000162F81110E948C00EC2FF0E0EE0FFF1F54
:1001A000E458FF4FA591B4918FB7F894EC911111D9
:1001B00008C0D095DE23DC938FBFDF91CF911F91D4
:1001C0000895DE2BF8CF3FB7F89480910902909103
:1001D0000A02A0910B02B0910C0226B5A89B05C0A3
:1001E0002F3F19F00196A11DB11D3FBFBA2FA92FB6
:1001F000982F8827BC01CD01620F711D811D911DB3
:1002000042E0660F771F881F991F4A95D1F708951E
:100210008F929F92AF92BF92CF92DF92EF92FF9216
:100220004B015C010E94E3006B017C010E94E30032
:100230006C197D098E099F09683E734081059105FF
:10024000A8F321E0821A9108A108B10888EEC80E2F
:1002500083E0D81EE11CF11C81149104A104B104B7
:1002600029F7FF90EF90DF90CF90BF90AF909F90D5
:100270008F90089508950895AF92BF92CF92DF9224
:10028000EF92FF920F931F93CF93DF936C017B014B
:100290008B01040F151FEB015E01AE18BF08C017DC
:1002A000D10759F06991D601ED91FC910190F0814F
:1002B000E02DC6010995892B79F7C501DF91CF9112
:1002C0001F910F91FF90EF90DF90CF90BF90AF9074
:1002D0000895FC01538D448D252F30E0842F90E04C
:1002E000821B930B541710F0CF9608950197089531
:1002F000FC01918D828D981761F0A28DAE0FBF2FFA
:10030000B11D5D968C91928D9F5F9F73928F90E04F
:1003100008958FEF9FEF0895FC01918D828D9817BE
:1003200031F0828DE80FF11D858D90E008958FEFFB
:100330009FEF0895FC01918D228D892F90E0805CC4
:100340009F4F821B91098F73992708958DE092E04A
:100350000E949A0121E0892B09F420E0822F089560
:1003600080E090E0892B29F00E94A60181110C9475
:1003700000000895FC01A48DA80FB92FB11DA35A48
:10038000BF4F2C91848D90E001968F739927848FB5
:10039000A689B7892C93A089B1898C9183708064D8
:1003A0008C93938D848D981306C00288F389E02D79
:1003B00080818F7D80830895EF92FF920F931F932A
:1003C000CF93DF93EC0181E0888F9B8D8C8D981308
:1003D0001AC0E889F989808185FF15C09FB7F89414
:1003E000EE89FF896083E889F98980818370806460
:1003F00080839FBF81E090E0DF91CF911F910F91AB
:10040000FF90EF900895F62E0B8D10E00F5F1F4FB9
:100410000F731127E02E8C8D8E110CC00FB607FCC8
:10042000FACFE889F989808185FFF5CFCE010E9456
:10043000BA01F1CFEB8DEC0FFD2FF11DE35AFF4F09
:10044000F0829FB7F8940B8FEA89FB8980818062E4
:10045000CFCFCF93DF93EC01888D8823B9F0AA89A1
:10046000BB89E889F9898C9185FD03C0808186FD6F
:100470000DC00FB607FCF7CF8C9185FFF2CF8081BE
:1004800085FFEDCFCE010E94BA01E9CFDF91CF9178
:1004900008952091B201260F3327331F21323105F1
:1004A000ECF42091D601FC0190E080E0243069F06A
:1004B00082E00895A091B2012191AC014E565E4FA9
:1004C000A40FB52FB11D2C930196861798F3809138
:1004D000B201680F6093B20180E0089581E0089551
:1004E0001092D60181E08093D8011092D70161E08B
:1004F00082E10E94B50061E083E10E94B500E9EB72
:10050000F0E080818E7F808380818D7F808388E48E
:100510008093B80085E48093BC000895CF93DF9367
:1005200091E0909391018823B9F0C091B800D091E7
:10053000BA008091BC008A7B8093BC0060E082E1BD
:100540000E94B50060E083E10E94B5000E94700245
:10055000D093BA00C093B800DF91CF910895089569
:10056000E091030280910202E81730F4F0E0E459D0
:10057000FE4F808190E008958FEF9FEF0895909156
:100580000302809102022FEF3FEF981748F4E92F02
:10059000F0E0E459FE4F208130E09F5F909303022A
:1005A000C90108958091020290910302891B990B61
:1005B0000895CF92DF92EF92FF920F931F93CF9304
:1005C000DF937C01CB018A0120916B01222389F00A
:1005D000EB016B01C40ED51ECC15DD0569F06991E8
:1005E000D701ED91FC910190F081E02DC7010995B3
:1005F000F3CF642F0E944902C801DF91CF911F9170
:100600000F91FF90EF90DF90CF900895CF93DF93FD
:100610001F92CDB7DEB7698320916B012223F9F0D9
:1006200020910002203258F021E030E0FC013383B9
:10063000228390E080E00F90DF91CF910895809128
:100640000102E82FF0E0E55BFE4F998190838F5F18
:10065000809301028093000281E090E0ECCF61E0A2
:10066000CE0101960E944902F7CFCF92DF92EF921E
:10067000FF920F931F93CF93DF93FC01C48121E07E
:1006800020936B01C0934A01109201021092000264
:100690008385682B8AEA92E00E940603D0910002CB
:1006A000D13208F092C00E94E3006B017C0180917E
:1006B000D601811165C082E08093D60181E08093EC
:1006C000D8018FEF8093D5011092FA01D093F901F0
:1006D000ABE4B1E0E9EDF1E080E0D81385C0109221
:1006E000FB018091FB01CC0FC82BC093FB018091D3
:1006F000D701813009F07CC01092D7010E94E3003D
:100700006B017C018091FB018093BB0080918D0186
:1007100090918E01A0918F01B0919001892B8A2B2D
:100720008B2B99F00E94E30000918D0110918E01B6
:1007300020918F01309190016C197D098E099F09DC
:100740000617170728073907E0F18091BC0083FDE1
:10075000D9CF85EC8093BC000E94E3006B017C0143
:100760008091D601823009F445C08091D5018F3F38
:1007700061F18091D501803241F18091D50125C090
:1007800080918D0190918E01A0918F01B091900187
:10079000892B8A2B8B2B09F48ACF0E94E3000091CE
:1007A0008D0110918E0120918F01309190016C1973
:1007B0007D098E099F09061717072807390708F0D2
:1007C00076CF80918C010E948E02109201021092CD
:1007D000000210926B01DF91CF911F910F91FF905A
:1007E000EF90DF90CF9008959D9191938F5F75CF9B
:1007F00085EEB0CF80918D0190918E01A0918F01F7
:10080000B0919001892B8A2B8B2B09F4A9CF0E94E0
:10081000E30000918D0110918E0120918F013091A4
:1008200090016C197D098E099F0906171707280783
:10083000390708F095CFC5CF089590E080E008957E
:1008400085ED8093BC0080918D0190918E01A091E7
:100850008F01B09190010796A11DB11D23E0B695BF
:10086000A795979587952A95D1F72091BC0024FDEF
:1008700003C01092D601089540918D0150918E01D0
:1008800060918F0170919001452B462B472B69F3A6
:100890000097A105B10541F02AE22A95F1F700C0C1
:1008A0000197A109B109E1CF80918C010C948E02CE
:1008B0000F931F93CF938C01C62F0E9435036C2F8B
:1008C0006460C8010E9435036C2F6B7FC8010E94D1
:1008D000350383EC90E00197F1F7CF911F910F91D1
:1008E00008950F931F93CF93DF938C01D62FC42FBE
:1008F000607F642B0E94580480E1D89FB0011124CE
:100900006C2BC801DF91CF911F910F910C9458046B
:1009100040E060E886EB92E00C94710441E00E94B4
:10092000710481E090E008951F920F920FB60F922C
:1009300011242F933F938F939F93AF93BF938091F5
:10094000050290910602A0910702B0910802309131
:10095000040223E0230F2D3758F50196A11DB11D88
:10096000209304028093050290930602A09307024D
:10097000B09308028091090290910A02A0910B02A3
:10098000B0910C020196A11DB11D809309029093B4
:100990000A02A0930B02B0930C02BF91AF919F91FA
:1009A0008F913F912F910F900FBE0F901F90189530
:1009B00026E8230F0296A11DB11DD2CF1F920F92E0
:1009C0000FB60F9211242F933F934F935F936F9322
:1009D0007F938F939F93AF93BF93EF93FF938DE09C
:1009E00092E00E94BA01FF91EF91BF91AF919F9168
:1009F0008F917F916F915F914F913F912F910F90C8
:100A00000FBE0F901F9018951F920F920FB60F9266
:100A100011242F938F939F93EF93FF93E0911D02E7
:100A2000F0911E028081E0912302F091240282FD68
:100A30001BC09081809126028F5F8F7320912702C7
:100A4000821741F0E0912602F0E0E35FFD4F958FC1
:100A500080932602FF91EF919F918F912F910F909C
:100A60000FBE0F901F9018958081F4CF1F920F92A8
:100A70000FB60F9211242F933F934F935F936F9371
:100A80007F938F939F93AF93BF93EF93FF93809147
:100A9000B900887F803609F44AC0F0F5883209F43D
:100AA000A7C018F5803109F49BC0B8F4882309F475
:100AB000F9C0883009F494C0FF91EF91BF91AF91D4
:100AC0009F918F917F916F915F914F913F912F9166
:100AD0000F900FBE0F901F901895883109F488C0B1
:100AE000803251F78093D50114C0803409F49DC041
:100AF00040F48033B9F38833F9F68093D50185EC5F
:100B0000B0C0803509F485C0883509F496C08834B2
:100B100099F60E942004D0CF883909F48CC038F5AA
:100B2000883729F050F4883611F0803729F683E0B1
:100B30008093D6011092D40157C0883809F47BC045
:100B4000803919F0803809F0B7CF8091D401803214
:100B500008F071C0E091D40181E08E0F8093D40140
:100B60008091BB00F0E0EC54FE4F80833DC0803BA1
:100B700039F0E0F4803A09F479C0883A09F09CCF62
:100B800084E08093D6011092B3011092B201E091FB
:100B9000FE01F091FF0109958091B20181110FC012
:100BA00081E08093B2011092920109C0803C09F467
:100BB000A6CF883C09F4A3CF883B09F07DCFE09114
:100BC000B30181E08E0F8093B301F0E0EE56FE4F4B
:100BD00080818093BB009091B3018091B20129C0C4
:100BE0008091FB018093BB0085EC8093BC0064CFB7
:100BF0009091FA018091F901981758F5E091FA0166
:100C000081E08E0F8093FA01F0E0E752FE4F808181
:100C1000E9CFE091FA0181E08E0F8093FA01809193
:100C2000BB00F0E0E752FE4F80839091FA01809183
:100C3000F9019817C8F285E8D8CFE091FA0181E070
:100C40008E0F8093FA018091BB00F0E0E752FE4FD7
:100C500080838091D80181115CCF81E08093D7019E
:100C600084EA8093BC001092D60126CF85EC809355
:100C7000BC001092D6018091D401803230F4E09112
:100C8000D401F0E0EC54FE4F10826091D40170E08A
:100C9000E091FC01F091FD0184EB91E00995109247
:100CA000D4010ACF1092D50134CFEDE0F2E01382E7
:100CB000128288EE93E0A0E0B0E084839583A6835F
:100CC000B78324E031E03183208325EC30E03587A1
:100CD000248724EC30E03787268720EC30E0318B06
:100CE000208B21EC30E0338B228B22EC30E0358BF3
:100CF000248B26EC30E0378B268B118E128E138ED0
:100D0000148EEAEAF2E01382128284839583A6832A
:100D1000B78386E191E091838083E6EBF2E0138272
:100D2000128288E291E09183808380E2848380E173
:100D3000818782E0828713860895789484B58260E3
:100D400084BD84B5816084BD85B5826085BD85B56F
:100D5000816085BD80916E00816080936E001092ED
:100D60008100809181008260809381008091810068
:100D700081608093810080918000816080938000F9
:100D80008091B10084608093B1008091B000816057
:100D90008093B00080917A00846080937A00809183
:100DA0007A00826080937A0080917A0081608093DB
:100DB0007A0080917A00806880937A001092C10056
:100DC000E0911D02F0911E0282E08083E091190201
:100DD000F0911A021082E0911B02F0911C028FEC3C
:100DE000808310922502E0912102F091220286E098
:100DF0008083E0911F02F0912002808180618083D6
:100E0000E0911F02F0912002808188608083E09150
:100E10001F02F0912002808180688083E0911F0290
:100E2000F091200280818F7D8083109203021092C6
:100E3000020210920102109200020E9470028AE3E4
:100E400091E09093FF018093FE018BE391E09093FA
:100E5000FD018093FC011092BB028091C0028230A0
:100E600018F098E09093BB028093BE0262E370E0BA
:100E700080E090E00E9408016091C10286EB92E060
:100E80000E94350368EE73E080E090E00E94080164
:100E900060E386EB92E00E945804CBE4D6E4CE01F6
:100EA0000197F1F760E386EB92E00E9458042197E6
:100EB000F1F760E386EB92E00E94580483E592E04C
:100EC0000197F1F760E286EB92E00E94580460918E
:100ED000BB02606240E086EB92E00E94710484E015
:100EE0008093BC0240E06CE086EB92E00E947104CB
:100EF00040E061E086EB92E00E947104CBE3DFE129
:100F0000CE010197F1F782E08093BD0240E066E0F8
:100F100086EB92E00E94710440E062E086EB92E092
:100F20000E947104CE010197F1F788E08093C1021D
:100F300060E086EB92E00E9435030E9488044CE05A
:100F400050E060E371E086EB92E00E943C0160EAD1
:100F50007FE080E090E00E94080140E061E086EBE5
:100F600092E00E9471042197F1F7EFE9F0E02491FB
:100F7000EBE8F0E08491882399F090E0880F991FC6
:100F8000FC01E859FF4FA591B491FC01E458FF4FD3
:100F9000859194918FB7F894EC91E22BEC938FBFED
:100FA000C0EAD0E0FE0124910CE810E0F801849141
:100FB0008823C9F090E0880F991FFC01E859FF4F82
:100FC000A591B491FC01E458FF4F459154913FB76E
:100FD000F8949C91822F809598239C93FA0190819C
:100FE000892380833FBF94EBE92E90E0F92E20E027
:100FF000C22E20E0D22EF7018491FE019491F801D7
:10100000B490BB2061F081110E948C00EB2DF0E0C8
:10101000EE0FFF1FEE58FF4FA591B4918C910E94E7
:1010200088044BE050E06DE371E086EB92E00E94B3
:101030003C01C114D104F9F20E94A6018823D9F21F
:101040000E940000D8CFEE0FFF1F0590F491E02D15
:061050000994F894FFCFA3
:1010560000000000DC013C01690129029A017801C7
:101066008C01000000000603D9021D04AF02D20263
:10107600BF02B002000000008E043C011D041C04E7
:101086004D6F74204465746563746F7200416E2001
:0A1096004572726F722121210000E3
:00000001FF
