:100000000C945D000C9485000C9485000C94850084
:100010000C9485000C9485000C9485000C9485004C
:100020000C9485000C9485000C9485000C9485003C
:100030000C9485000C9485000C9485000C9485002C
:100040000C943A030C9485000C9485000C94850064
:100050000C9485000C9485000C9485000C9485000C
:100060000C9484030C948500000000080002010039
:100070000003040700000000000000000000000072
:10008000250028002B0000000000240027002A0083
:10009000040404040404040402020202020203032E
:1000A0000303030301020408102040800102040836
:1000B0001020010204081020A30411241FBECFEF5A
:1000C000D8E0DEBFCDBF11E0A0E0B1E0EEE6FEE09B
:1000D00002C005900D92A436B107D9F722E0A4E63C
:1000E000B1E001C01D92A933B207E1F710E0CDE500
:1000F000D0E004C02197FE010E942F07CC35D10724
:10010000C9F70E94C2040C9435070C9400000895AE
:100110000895AF92BF92CF92DF92EF92FF920F932A
:100120001F93CF93DF936C017B018B01040F151F8D
:10013000EB015E01AE18BF08C017D10759F06991F5
:10014000D601ED91FC910190F081E02DC601099559
:10015000892B79F7C501DF91CF911F910F91FF9006
:10016000EF90DF90CF90BF90AF90089590E0FC01AA
:10017000E859FF4F2491FC01EC55FF4F3491FC01ED
:10018000E057FF4FE491EE23C9F0222339F02330EA
:1001900001F1A8F4213019F1223029F1F0E0EE0F3D
:1001A000FF1FE458FF4FA591B4918FB7F894EC91DD
:1001B000611126C030953E233C938FBF08952730B0
:1001C000A9F02830C9F0243049F7809180008F7D54
:1001D00003C0809180008F7780938000DFCF84B54B
:1001E0008F7784BDDBCF84B58F7DFBCF8091B0004E
:1001F0008F778093B000D2CF8091B0008F7DF9CF00
:100200003E2BDACF3FB7F8948091120290911302FF
:10021000A0911402B091150226B5A89B05C02F3FEE
:1002200019F00196A11DB11D3FBFBA2FA92F982F1C
:100230008827BC01CD01620F711D811D911D42E017
:10024000660F771F881F991F4A95D1F708958F92DF
:100250009F92AF92BF92CF92DF92EF92FF924B01AB
:100260005C010E9402016B017C010E9402016C1979
:100270007D098E099F09683E734081059105A8F3A9
:1002800021E0821A9108A108B10888EEC80E83E027
:10029000D81EE11CF11C81149104A104B10429F7BA
:1002A000FF90EF90DF90CF90BF90AF909F908F9096
:1002B000089585ED8093BC008091BC0084FDFCCF47
:1002C00010921C0208952091C601260F3327331F78
:1002D00021323105ECF420911C02FC0190E080E019
:1002E000243069F082E00895A091C6012191AC010B
:1002F0004A555E4FA40FB52FB11D2C93019686175A
:1003000098F38091C601680F6093C60180E008955C
:1003100081E008950895E091200280911F02E8177E
:1003200030F4F0E0EA57FE4F808190E008958FEFBF
:100330009FEF08959091200280911F022FEF3FEFD1
:10034000981748F4E92FF0E0EA57FE4F208130E09B
:100350009F5F90932002C901089580911F029091A0
:100360002002891B990B0895CF92DF92EF92FF92A2
:100370000F931F93CF93DF937C01CB018A012091D0
:100380008501222389F0EB016B01C40ED51ECC152B
:10039000DD0569F06991D701ED91FC910190F08143
:1003A000E02DC7010995F3CF642F0E946301C801B6
:1003B000DF91CF911F910F91FF90EF90DF90CF9041
:1003C0000895CF93DF931F92CDB7DEB76983209155
:1003D00085012223F9F020911D02203258F021E0FE
:1003E00030E0FC013383228390E080E00F90DF91C6
:1003F000CF91089580911E02E82FF0E0EB59FE4F57
:10040000998190838F5F80931E0280931D0281E00B
:1004100090E0ECCF61E0CE0101960E946301F7CF3E
:10042000CF93FC01C48121E020938501C093640136
:1004300010921E0210921D028385682B81E292E0C9
:100440000E94E10190911D02913208F03FC080911D
:100450001C028111FCCF82E080931C0281E080931A
:100460001B028FEF8093E90110920B0290930A0216
:10047000A5E6B1E0EAEEF1E080E098132FC010921B
:100480000C0280910C02CC0FC82BC0930C028091FF
:100490001A02813039F510921A0280910C02809371
:1004A000BB008091BC0083FDF8CF85EC8093BC003D
:1004B00080911C028230E1F38091E9018F3F31F09D
:1004C0008091E901803211F08091E90110921E02C1
:1004D00010921D0210928501CF9108952D912193C4
:1004E0008F5FCBCF85EEE2CF089590E080E0089556
:1004F0008F929F92AF92BF920F931F93CF93DF93F0
:10050000CDB7DEB7A1970FB6F894DEBF0FBECDBF53
:1005100019A2423008F44AE08E010F5D1F4F842E6D
:10052000912CB12CA12CA50194010E949106E62FDB
:10053000B901CA01EA3044F5E05DD801EE938D01BE
:10054000232B242B252B79F790E080E0109769F07E
:10055000FD0101900020E9F73197AF014A1B5B0BC9
:10056000BD018DE292E00E948900A1960FB6F89439
:10057000DEBF0FBECDBFDF91CF911F910F91BF9016
:10058000AF909F908F900895E95CD7CFFC010190C8
:100590000020E9F73197AF01481B590BBC018DE2F0
:1005A00092E00C9489000F931F93CF938C01C62F78
:1005B0000E9410026C2F6460C8010E9410026C2F10
:1005C0006B7FC8010E94100283EC90E00197F1F765
:1005D000CF911F910F9108950F931F93CF93DF93A6
:1005E0008C01D62FC42F607F642B0E94D30280E140
:1005F000D89FB00111246C2BC801DF91CF911F91BE
:100600000F910C94D302CF93DF93CDB7DEB7289729
:100610000FB6F894DEBF0FBECDBF98E0E0E0F1E08A
:10062000DE01119601900D929A95E1F790913502B5
:10063000981708F48FEF90E0880F991F21E030E0C1
:100640002C0F3D1F820F931FFC016081606840E00A
:100650008DE292E028960FB6F894DEBF0FBECDBFB4
:10066000DF91CF910C94EC0241E00E94EC0281E01A
:1006700090E008951F920F920FB60F9211242F93BE
:100680003F938F939F93AF93BF9380910E0290916E
:100690000F02A0911002B091110230910D0223E0DF
:1006A000230F2D3758F50196A11DB11D20930D0282
:1006B00080930E0290930F02A0931002B093110248
:1006C0008091120290911302A0911402B091150230
:1006D0000196A11DB11D8093120290931302A09365
:1006E0001402B0931502BF91AF919F918F913F91EA
:1006F0002F910F900FBE0F901F90189526E8230F93
:100700000296A11DB11DD2CF1F920F920FB60F926C
:1007100011242F933F934F935F936F937F938F9306
:100720009F93AF93BF93EF93FF938091B900887F1E
:10073000803609F44AC0F0F5883209F4A7C018F5EC
:10074000803109F49BC0B8F4882309F4F9C08830DB
:1007500009F494C0FF91EF91BF91AF919F918F9158
:100760007F916F915F914F913F912F910F900FBEAD
:100770000F901F901895883109F488C0803251F786
:100780008093E90114C0803409F49DC040F48033A3
:10079000B9F38833F9F68093E90185ECB0C0803570
:1007A00009F485C0883509F496C0883499F60E940A
:1007B0005901D0CF883909F48CC038F5883729F031
:1007C00050F4883611F0803729F683E080931C02BC
:1007D0001092E80157C0883809F47BC0803919F0BD
:1007E000803809F0B7CF8091E801803208F071C0FD
:1007F000E091E80181E08E0F8093E8018091BB00D9
:10080000F0E0E853FE4F80833DC0803B39F0E0F4D8
:10081000803A09F479C0883A09F09CCF84E080934B
:100820001C021092C7011092C601E0911802F091CB
:10083000190209958091C60181110FC081E0809352
:10084000C6011092A60109C0803C09F4A6CF883CDD
:1008500009F4A3CF883B09F07DCFE091C70181E087
:100860008E0F8093C701F0E0EA55FE4F80818093A0
:10087000BB009091C7018091C60129C080910C02F4
:100880008093BB0085EC8093BC0064CF90910B02F9
:1008900080910A02981758F5E0910B0281E08E0FC3
:1008A00080930B02F0E0E651FE4F8081E9CFE091AA
:1008B0000B0281E08E0F80930B028091BB00F0E071
:1008C000E651FE4F808390910B0280910A029817A7
:1008D000C8F285E8D8CFE0910B0281E08E0F8093BB
:1008E0000B028091BB00F0E0E651FE4F80838091C7
:1008F0001B0281115CCF81E080931A0284EA80930D
:10090000BC0010921C0226CF85EC8093BC00109294
:100910001C028091E801803230F4E091E801F0E0BF
:10092000E853FE4F10826091E80170E0E0911602FA
:10093000F091170288EC91E009951092E8010ACF36
:100940001092E90134CFE1E2F2E01382128288EEE4
:1009500093E0A0E0B0E084839583A683B7838CE026
:1009600091E091838083EDE2F2E0138212828EE1C6
:1009700091E091838083148280E1818782E0828785
:1009800013860895789484B5826084BD84B58160AF
:1009900084BD85B5826085BD85B5816085BD80914A
:1009A0006E00816080936E001092810080918100C2
:1009B00082608093810080918100816080938100BA
:1009C000809180008160809380008091B10084607C
:1009D0008093B1008091B00081608093B0008091DD
:1009E0007A00846080937A0080917A00826080939C
:1009F0007A0080917A00816080937A0080917A00F9
:100A0000806880937A001092C100EEEAF0E02491B1
:100A1000EAE9F0E084918823C1F090E0880F991F03
:100A2000FC01EA57FF4FC591D491FC01E458FF4FF8
:100A3000A591B4919FB7F8948881E22FE0958E2319
:100A400088838C91E823EC939FBFEDEAF0E024913A
:100A5000E9E9F0E08491882399F090E0880F991FEC
:100A6000FC01EA57FF4FA591B491FC01E458FF4FF8
:100A7000859194918FB7F894EC91E22BEC938FBF12
:100A80001092200210921F0210921E0210921D025C
:100A900010921C0281E080931B0210921A0261E006
:100AA00082E10E94B60061E083E10E94B60080917D
:100AB000B9008E7F8093B9008091B9008D7F8093BB
:100AC000B90088E48093B80085E48093BC0087E88F
:100AD00090E0909319028093180288E890E0909338
:100AE00017028093160210923202809137028230F0
:100AF00018F098E0909332028093350262E370E040
:100B000080E090E00E942701609138028DE292E03F
:100B10000E94100268EE73E080E090E00E942701DE
:100B200060E38DE292E00E94D302CBE4D6E4CE01F2
:100B30000197F1F760E38DE292E00E94D3022197E2
:100B4000F1F760E38DE292E00E94D30283E592E048
:100B50000197F1F760E28DE292E00E94D30260918A
:100B60003202606240E08DE292E00E94EC0284E09A
:100B70008093330240E06CE08DE292E00E94EC0250
:100B800040E061E08DE292E00E94EC02CBE3DFE125
:100B9000CE010197F1F782E08093340240E066E0F5
:100BA0008DE292E00E94EC0240E062E08DE292E091
:100BB0000E94EC02CE010197F1F788E080933802A1
:100BC00060E08DE292E00E94100280E00E94030348
:100BD00086E291E00E94C60268E873E180E090E05E
:100BE0000E94270140E061E08DE292E00E94EC0269
:100BF0002197F1F782E4B82E44244A9493E0592EC9
:100C0000612C712C20E0822E20E0922E60E089E0A1
:100C10000E94B600B0927C0080917A00806480933C
:100C20007A0080917A0086FDFCCF60917800C091B7
:100C30007900DC2FC62F24E630E0DE010E94280771
:100C4000A30192010E94720669017A018901BE0125
:100C5000DD0F880B990B0E94C4069B01AC010E941A
:100C6000FF06882369F081E00E9403038DE391E091
:100C70000E94C60268EB7BE080E090E00E942701C2
:100C800080E00E9403038CE491E00E94C6024AE0E7
:100C9000C701B601F7FE0EC041E06DE28DE292E0C1
:100CA0000E94EC0266277727CB016C197D098E091B
:100CB0009F094AE00E94780281E691E00E94C60204
:100CC00061E00E31110524F00D33110524F060E0D0
:100CD00089E00E94B6008114910409F497CF0E9424
:100CE000000094CF052E97FB1EF400940E94890605
:100CF00057FD07D00E94910607FC03D04EF40C94D8
:100D0000890650954095309521953F4F4F4F5F4F45
:100D1000089590958095709561957F4F8F4F9F4F67
:100D20000895A1E21A2EAA1BBB1BFD010DC0AA1F2C
:100D3000BB1FEE1FFF1FA217B307E407F50720F044
:100D4000A21BB30BE40BF50B661F771F881F991FBF
:100D50001A9469F760957095809590959B01AC0108
:100D6000BD01CF010895A29FB001B39FC001A39F11
:100D7000700D811D1124911DB29F700D811D1124D4
:100D8000911D0895E89409C097FB3EF490958095D5
:100D9000709561957F4F8F4F9F4F9923A9F0F92F41
:100DA00096E9BB279395F695879577956795B795BF
:100DB000F111F8CFFAF4BB0F11F460FF1BC06F5FA5
:100DC0007F4F8F4F9F4F16C0882311F096E911C0B7
:100DD000772321F09EE8872F762F05C0662371F0D8
:100DE00096E8862F70E060E02AF09A95660F771FEC
:100DF000881FDAF7880F9695879597F908950E94CE
:100E00000407880B990B0895990F0008550FAA0B3A
:100E1000E0E8FEEF16161706E807F907C0F012160D
:100E20001306E407F50798F0621B730B840B950B10
:100E300039F40A2661F0232B242B252B21F4089565
:100E40000A2609F4A140A6958FEF811D811D089502
:100E50000E94B306B7FF0895821B930B0895EE0F0F
:0E0E6000FF1F0590F491E02D0994F894FFCF48
:100E6E00000040001400540000000000E101B40135
:100E7E0075028A01AD019A018B0100000000340356
:100E8E00890075027402536F696C204D6F6973741B
:100E9E007572652053656E736F7221210053656EF6
:100EAE00736F72204572726F72212100536F696CDD
:100EBE00206D6F697374757265206C6576656C3A1A
:040ECE0000250000FB
:00000001FF
